:0400000080310E2815
:100008007E1480314E01161A0C1E0C2887311D27CC
:100018007E10090080311028F801F901FA014330F7
:100028008400003085001F3087315D278031A03083
:100038008400003085001D3087315D277E10400127
:1000480082312F2A02304001B7000430B600BA309E
:10005800890B2C28B60B2C28B70B2C280000400144
:100068009A1102304001B7000430B600BA30890B4B
:100078003B28B60B3B28B70B3B28000040019A15DC
:100088001A304001B600F830890B4828B60B4828CA
:1000980000004001B2017F308631AE268031083041
:1000A800B6003608B2000D308631AE268031B20176
:1000B8000E308631AE2680312230B6003608B200C6
:1000C8000F308631AE268031B20110308631AE262F
:1000D8008031B20111308631AE2680310630B6004B
:1000E8003608B2001B308631AE2680310730B600A4
:1000F8003608B2001C308631AE2680310530B60095
:100108003608B2001D308631AE2680310D30B6007B
:100118003608B2001E308631AE2680310230B60075
:100128003608B2002D308631AE2680312030B60038
:100138003608B2002E308631AE2680310C1DA62836
:10014800B201AA284030B6003608B2002F308631F6
:10015800AE268031B20130308631AE268031B20110
:1001680031308631AE2680311C30B6003608B200F8
:1001780007308631AE268031B20108308631AE268E
:100188008031B20109308631AE2680310830B600A0
:100198003608B20008308631AE2680310230B6000B
:1001A8003608B2007F308631AE2680318030B60006
:1001B8003608B20000308631AE2680318030B60075
:1001C8003608B20001308631AE2680311830B600CC
:1001D8003608B20008308631AE2680311830B600B5
:1001E8003608B20009308631AE268031B2017F3040
:1001F8008631AE268031B20108308631AE26803194
:100208003F30B6003608B20001308631AE26803164
:100218003930B6003608B20003308631AE26803158
:10022800B20104308631AE268031B201B20A0530FF
:100238008631AE268031B20106308631AE260800FE
:10024800B7003708031D3703031D0800B2017F30CC
:100258008631AE2681313708031D79291C30B60056
:100268003608B20007308631AE2681310830B60034
:100278003608B20008308631AE2681310230B60029
:100288003608B2007F308631AE2681318030B60024
:100298003608B20000308631AE2681318030B60093
:1002A8003608B20001308631AE2681311830B600EA
:1002B8003608B20008308631AE2681311830B600D3
:1002C8003608B20009308631AE268131B2017F305E
:1002D8008631AE268131B20108308631AE268131B1
:1002E800B20104308631AE2608003703031D08002A
:1002F8003C30B6003608B20007308631AE26813170
:100308000830B6003608B20008308631AE26813192
:100318000230B6003608B2007F308631AE26813111
:100328008030B6003608B20000308631AE26813102
:100338008030B6003608B20001308631AE268131F1
:100348000830B6003608B20008308631AE26813152
:100358000830B6003608B20009308631AE26813141
:10036800B2017F308631AE268131B2010830863144
:10037800AE268131B201B20A04308631AE260800B9
:10038800BA003608031D3603031D080004303A027C
:1003980003180800B2017F308631AE268131360855
:1003A800031D182A1C30B7003708B2000730863101
:1003B800AE2681310830B7003708B20008308631E0
:1003C800AE2681310230B7003708B2007F3086315F
:1003D800AE2681318030B7003708B2000030863150
:1003E800AE2681318030B7003708B200013086313F
:1003F800AE2681311830B7003708B2000830863190
:10040800AE2681311830B7003708B200093086317E
:10041800AE268131B2017F308631AE268131B201FC
:1004280008308631AE2608003603031D08003A0856
:10043800B7000530B735FF3E031D1E2A3735303863
:10044800B8003808B9003908B7003708B2000830D2
:100458008631AE260800FF30BF003F08C100863154
:1004680091268231F801F9013130F3000330F400AC
:1004780087316F2782313130F3000330F400873140
:100488007F2782318B170B1780312620823100306D
:100498008631822682314001BF003F08C2004208EF
:1004A800BF00C0013F08F8004008F9000030813162
:1004B80024218231B60142088131C42182310030C1
:1004C800853154258231BB0142088331ED238231C5
:1004D80034304001BF00F130890B702ABF0B702AFD
:1004E80000328731062782314001BF003F08C20031
:1004F800420A03196C2A4208410603196C2ABB01F7
:1005080042088331ED2382314208BF003F08F300DF
:10051800003085317225823140014208BF003F0812
:10052800C1006C2A873169278231003A031DA62A47
:10053800CA2A8731A82708008731A42708008731ED
:100548009C27080040015208A5002508A400063091
:10055800433E86008701413F8A00403F0A008231BE
:100568004001A600A7012708003A0319BC2AA32ABC
:100578002608013A0319A32A033A03199D2A013AC6
:100588000319A02A073A0319A32AA32A40015F10D6
:100598001730433E86008701403F84008501810A69
:1005A800000887317A27823101304001DB020030B0
:1005B800DC3B5B085C04031DE32A063008000330BB
:1005C80008004001980199019A013F309200F030EB
:1005D8009300F730940030307E01CE00C3013330F1
:1005E800B800C401B901CC30CF00BA01C501D001AF
:1005F8003730BB00F030C600FF30D1003F30BC00C0
:10060800F030C700FF30D2005513D5135417D41754
:100618005317D317DA30F3000730F40087316F2708
:100628008231DB30F3000730F40087317F274E0139
:1006380016160D307D01C9000E30C50013307E013D
:100648009E0015309F0016309D0014309C000C3021
:100658007D01C6000F30C80008000530F0007008A2
:10066800F2000130F202720A031D352B0E0E890CBE
:10067800890C0139F0000E0D0E0D013909077004BF
:10068800F1007108F2000310FA0D0310FA0D720858
:10069800F0007008FA047A080F39323E8400863078
:1006A8000318013E85000008F000F101F01BF1037A
:1006B8007008F8077108F93D7908803AF000803031
:1006C8007002031D692B04307802031C702B033061
:1006D800F8000030F9000800F91F0800F801F901D6
:1006E80008008731BB2783314001A5005A088600DE
:1006F8008701250881000130A5002508DA070130A7
:10070800DB020030DC3B5B085C0403198F2B87316C
:10071800B02705300800DF15972B87319027080090
:100728008731942708004F08A5002508A40044082D
:100738008A0043080A0083314001A600A701270860
:10074800003A0319A82B942B2608013A0319942B75
:10075800033A0319912B013A0319912B073A03190C
:10076800942B942B0800F400F501F50A5F19EB2B84
:100778007408F3007308D900DF105F155F100E309E
:10078800F3007308DD00F430D7000130D800DF151E
:10079800D630C3000730C400CF01D630C5000730BB
:1007A800C600D001D630C7000730C800D101D63006
:1007B800C9000730CA00D201D430CB000730CC00C2
:1007C800D3018731CD27833187311227F501750889
:1007D8000800BE0004303E02031808003B08031D51
:1007E8003B03031D0800B2017F308631AE268331FA
:1007F8003E080838BC003C08BD003D08BC003C0869
:10080800B2000D308631AE2683311830BC003C086A
:10081800B2000E308631AE2683310230BC003C086F
:10082800B2002D308631AE2683313B08BC003C082F
:10083800B6003E088131C4210800B10040013108EA
:100848008331B7238431003A0319222C52304001F6
:10085800A0000630A1002F30B0003008A200863179
:10086800FA2684310130F3000030F4002E3086314E
:10087800BB2684310030A000A100A2018631E22607
:1008880084318731842784318531BF258431013A09
:10089800031D0800482CDF155B2C8731A0270800B2
:1008A8008731B8270330080087319C2708004F0894
:1008B800A5002508A40044088A0043080A008431DA
:1008C8004001A600A7012708003A03196C2C582CF0
:1008D8002608013A0319582C033A0319512C013AF6
:1008E8000319512C073A0319542C582C08005F108F
:1008F8000230A5002508DE00872C8731A0270800D4
:1009080087319C2708005108A5002508A400043059
:10091800433E86008701413F8A00403F0A008431F8
:100928004001A600A7012708003A03199C2C842C33
:100938002608023A0319812C013A0319812C842CC8
:1009480008008731CD27843140015F1CB62C8731E0
:1009580069278431003A0319B62C0F304001A800EA
:100968002808DD0040015D08A800A901A835A90DE7
:100978003430280784008530293D8500013F8A00EE
:10098800003F0A0084314001AA002A08DD0008005F
:10099800F700730874040319E22C7735A03E86002B
:1009A80087017308C03F7408C13F7508F6007708CF
:1009B800AC3E860087017608810008007735A03EA6
:1009C80086008701D230C03F0730C13F7708AC3E70
:1009D8008600870181010800F70073087404031971
:1009E800062D7735433E860087017308C03F74089B
:1009F800C13F7508F60077084F3E860087017608E4
:100A0800810008007735433E86008701D630C03F15
:100A18000730C13F77084F3E8600870181010800F3
:100A2800003400340034003400340034003400341E
:100A3800003400340034003400340034003400340E
:100A480000340034003400340034003400340034FE
:100A580000340034003400340034003400340034EE
:100A6800AC340734563407346334073496340234CC
:100A780075340334753407344F340434A8340734D8
:100A8800A4340734A03407349C340734983407342A
:100A980094340734903407348C3407347B3404346A
:100AA800B7003708031D3703031D0800B2017F3064
:100AB8008631AE2685313708031D6A2D2030B600F1
:100AC8003608B2002E308631AE2608003703031DE3
:100AD8000800B2012E308631AE260800F40050011D
:100AE8009E18732D1E1774089A0070309B009D0184
:100AF80073089C0003108B1B03148B131E155530B1
:100B08009F00AA309F009E149E18882D1E11031C5A
:100B180008008B170800AC00AD01AD0ADF18A52D41
:100B2800DF14AD012C0803199C2DDD01DD0AA02D71
:100B38000230AB002B08DD008731C72785318731AC
:100B480028272D080800240886008701403FF30065
:100B5800413FF4002408023E8600870101088631DF
:100B6800A026853100304001A000A100A2018631F5
:100B7800EE2602300800F401F40ADF18D52D5F11C3
:100B8800FF30F3007308D9008731CD2785318731CD
:100B9800D82785318731CA2740015E08F3007308DA
:100BA800F40074080800240886008701403FF30019
:100BB800413FF4002408023E86008701010886317F
:100BC800BB2685310030A000A100A2018631FA269B
:100BD800023008000130F3000030F40024088631A8
:100BE800A026853100304001A000A100A201863175
:100BF800EE26043008000230F3000030F400240828
:100C08008631A026853100304001A000A100A20154
:100C18008631EE26023008000130F3000030F4007F
:100C280024088631A026863100304001A000A100AA
:100C3800A2018631EE26023008000230F3000030AF
:100C4800F40024088631A026863100304001A00037
:100C5800A100A2018631EE26043008000034FF34DA
:100C680001340034013400340034FF34FF340034DC
:100C78000034013400340134FF3400340230F3000E
:100C88000030F40024088631BB2686310030A000ED
:100C9800A100A2018631FA26043008000130F300D1
:100CA8000030F40024088631BB2686310030A000CD
:100CB800A100A2018631FA26043008000230F300B0
:100CC8000030F40024088631BB2686310030A000AD
:100CD800A100A2018631FA26023008000130F30093
:100CE8000030F40024088631BB2686310030A0008D
:100CF800A100A2018631FA2602300800F300852EF1
:100D08004001640050019E18842E1E1773089A0033
:100D180070309B001E141C0808008731322786316A
:100D280087314527863187314E2786318231E52242
:100D3800863187313C270800F6004101BC1D0800B8
:100D48007608F5007508B7007408B9007308B8008C
:100D5800BC110800B5003508B3003308AE003208EE
:100D6800B4003408AF007030843121240800F60044
:100D7800DF1D08007608F5007508DA007408DC0045
:100D88007308DB00DF1108004001620863040319DF
:100D9800D22E63088A0062080A0086317E01D513C4
:100DA80008004001640865040319DF2E65088A00FD
:100DB80064080A0086317E01551308002108F400F2
:100DC8002008F3002208A3002308F500023084312C
:100DD800F02408002108F4002008F3002208A300EA
:100DE8002308F50000308431CC2408002108F400E1
:100DF8002008F3002208A3002308F50000308431FE
:100E0800F0240800FF30F3007308F400F91B102FDA
:100E18007808F3007308F400740808004301901A76
:100E280008008F0108309000910113308D00901652
:100E380008007E01551F232F8631D5268731D51FFF
:100E480008008631C82608004001DF1C08008731E9
:100E5800882787318431A5248731282F4F019601AF
:100E68009701980199019A019B019C019D01080035
:100E7800623051018D008F0191010630930092017B
:100E8800080043018F0108309000910113308D0054
:100E980090120800990108309A009B0113309700BE
:100EA8009A1208005F140314590D87317A27053008
:100EB8000800640080010131890B5E2F00345F1443
:100EC800593587317A27033008004301110E890C00
:100ED800890C0139080074084001E5007308E40032
:100EE80008005F108731BE2704300800F30073083C
:100EF80043018C0008007408E3007308E20008004E
:100F0800003085318F2508004E010F180800882F02
:100F1800DF10DE010E3008008731B42709300800E1
:100F28008731B4270A3008008731B0270530080018
:100F38008731C127003008008731C42701300800F5
:100F48008731C427023008008731C42701300800E0
:100F5800DF10DE010E30080043019112111608005F
:100F680043019116111608004E010F1408004301A1
:100F78000C080800430191150800430111150800E9
:100F88004301911408004301111408004301901211
:100F980008004E010F100800053008000130080055
:100FA8000530080001300800191008000800080082
:020000040001F9
:0A000E00EC3FFF3F9F3FFF3FFF3F25
:10E000000000FF00FF00FF00FF00FF00FF00FF0017
:00000001FF
