:1000000080312928490808007E148031003086009C
:10001000003087000B1F27284101991B8F1F1428D0
:100020008C31B82480312728191B0F1F1B288C31D5
:10003000BB2480312728971B8D1F22288D313D2519
:1000400080312728961A8C1E27288D3131257E1065
:10005000090080312B281D30840087308500A030B6
:100060008600003087004B308C31F22480312830FC
:1000700084008D30850032308600013087000930E1
:100080008C31F2248031F901FA01FB01FC01493085
:1000900084000030850018308C31EC247E10400143
:1000A0008331A72B0130BF070030C03DC630F000C0
:1000B0000030F1008F3188278031AD002D08031901
:1000C000A1294101410840012D060319742841016D
:1000D0003E35C23E860087010030873D3E35003008
:1000E000873D0030C03FC13F40012D084101C100A4
:1000F000103040012D06031D942841013E084001A7
:10010000A000A101A035A10DC230A2000030A300C3
:100110002008220786002108233D8700013081073F
:1001200041310318810AAF2820302D06031DAF2866
:1001300041013E084001A000A101A035A10DC2303F
:10014000A2000030A3002008220786002108233DDA
:100150008700FF3081074131FF30813D7F31410110
:100160003E08031D24292B084001AA0041012A084A
:100170004001A90041013E084001A000A101A035B5
:10018000A10DC230A2000030A30020082207860083
:100190002108233D8700403FA400413FA5002508DA
:1001A000803AA60080302602031DD82801302402A0
:1001B000031CDF28FF304001A907FF30F62841016A
:1001C0003E084001A000A101A035A10DC230A2004F
:1001D0000030A3002008220786002108233D870065
:1001E0004131811F04290130A9070030AA3D410196
:1001F0003E35C23E860087010030873D3E350030E7
:10020000873D0030C03FC13F40012A08803AA0002E
:1002100080302002031D0E2940302902031C1529BD
:1002200000304101AB003F3022294001AA1F1C29A8
:100230004101AA01AB01A1292A084101AB004001FB
:1002400029084101AA00A12927084001AC00410169
:1002500026084001AB0041013E084001A000A10179
:10026000A035A10DC230A2000030A3002008220753
:1002700086002108233D8700403FA400413FA500A0
:100280002508803AA60080302602031D4929033044
:100290002402031C502901304001AB0700307429AF
:1002A00041013E084001A000A101A035A10DC230CE
:1002B000A2000030A3002008220786002108233D69
:1002C0008700403FA400413FA5002508803AA600D2
:1002D0007F302602031D6E29FE3024020318822976
:1002E000FF304001AB07FF30AC3D41013E35C23E1F
:1002F000860087010030873D3E350030873D003065
:10030000C03FC13F40012C08803AA000803020024D
:10031000031D8C2904302B02031C92294101A601E4
:10032000A701A1294001AC1F9A2900304101A70073
:100330000330A0292C084101A70040012B084101EE
:10034000A60040010E19AF2941014708031DED2900
:100350004008CC003F08CB000130C700ED29410127
:1003600047080319ED29CB30860000308700A03004
:100370008400003085001F31403F00024001A00092
:100380000131413F003BA1002008A7002108A8003F
:100390004101C7010030400128021430031927022F
:1003A000031CED2941014008CE003F08CD00033079
:1003B00040012802E83003192702031CE629033014
:1003C0004101CF00C901CA01C801ED290130410135
:1003D000C9070030CA3D0130C8004101480803196F
:1003E0000800CD30860000308700A0308400003047
:1003F00085001F31403F00024001A0000131413F14
:10040000003BA10001302102F53003192002031C3A
:100410000800410149034A04031D102A0130162A2D
:10042000023049064A04031D172A0230CF00C901D1
:10043000CA01C80108002E0886002F0887000103A2
:10044000031DAB2A2E082F3E860000302F3D87006B
:100450000108031D462A662A2E08860087014131BD
:1004600002300106031D5F2AE830B0000330B100FE
:100470002E088600870144313008C03F3108C13F53
:100480002E0886008701433101145F2A2E082F3E73
:10049000860000302F3D87000108B000B10131080F
:1004A000003A0319542A5F2A3008013A03195F2AD7
:1004B000033A03195F2A013A03192C2A5F2A2E08EE
:1004C0002F3E860000302F3D870081012E083E3EE2
:1004D000860000302F3D87000108031908008A2A92
:1004E0002E0886008701423102300106031DA32A2F
:1004F000E830B0000330B1002E0886008701443197
:100500003008C03F3108C13F2E08860087014331C3
:100510008114A32A2E083E3E860000302F3D87001E
:100520000108B000B1013108003A0319982AA32A42
:100530003008013A0319A32A033A0319A32A013AFE
:100540000319702AA32A2E083E3E860000302F3D54
:100550008700810108002E082F3E860000302F3DC5
:100560008700010803190800D02A2E088600870199
:100570005E310108031DC32A2E08860087015E3103
:1005800001308100E92A2E08860087015E310103CF
:10059000031DE92A2E08860087015E318101E92AC0
:1005A0002E082F3E860000302F3D87000108B00046
:1005B000B1013108003A0319DE2AE92A3008013A6C
:1005C0000319B52A033A0319E92A013A0319E92A5A
:1005D000E92A2E082F3E860000302F3D870081013A
:1005E00008003008860087014431403FB200413F97
:1005F000B3003308803AB40080303402031D022B6C
:1006000001303202031C102B4001300886008701A4
:100610004431FF3081074131FF30813D7F31080097
:10062000400130088600310887000103031D0800DF
:100630003008860087014331011C842B3008860076
:1006400087014331FE3081053008860087014A3139
:100650003008840085010631003FB200013FB3003D
:10066000B235B30DB235B30D32083007B4003308DC
:10067000313DB5003408840085010E31403F803F94
:10068000413F813F3008860087014631403FB2003C
:10069000413FB300B235B30DB235B30D3208300768
:1006A000B4003308313DB5003408860087014E316F
:1006B000300884008501063100088D31C225823161
:1006C00001060319842B400130088600870146315A
:1006D000403FB200413FB300B235B30DB235B30D68
:1006E00032083007B4003308313DB50034088600C5
:1006F00087014E310108AE0030088600870146317F
:1007000001088E317226823140013008860087014F
:100710004331811C08003008860087014331FD30D9
:100720008105300886008701463104308D31C225AD
:100730008231010603190800400130088600870154
:1007400046310108AE0004308E31722608000030B8
:100750004201B1000030B0000030AF000030AE0008
:100760008D31E72583310B304201AB002630AA00E2
:100770005D30890BB92BAA0BB92BAB0BB92B00320F
:10078000863168268331BE304001AE000C30AF00A8
:100790008D310E2583318B170B17A0304001C60019
:1007A0000030C70084314A248331DF2B4001981682
:1007B0001817DF2B40019812DF2B40011813A030CF
:1007C0004001C2000030C3008431E8248331A030EE
:1007D000AF000030B0008731B2278331A030AE00C7
:1007E0000030AF0082311B228331A030B0000030D6
:1007F000B1008231F12283310B304201AA00623014
:10080000890B002CAA0B002C000001304201AE071E
:100810000030AF3DB03DB13D00304001B10000308F
:10082000B0000330AF00E830AE00420131084001B3
:10083000B500420130084001B40042012F084001D8
:10084000B30042012E084001B2008F31C02783312E
:10085000310830042F042E04031DDF2B8D31B02509
:1008600083313E084201AD0040013D084201AC0029
:100870002D08003A03193D2CDF2B2C08003A0319F0
:10088000D62B013A0319DA2B033A0319DD2BDF2BA0
:10089000803129284608453E86000030473D8700C4
:1008A000160001040319602CC3014608453E86006A
:1008B0000030473D8700413F8A00403F0A008431B5
:1008C00040014608453E86000030473D870016003F
:1008D00001040319782CC301C30A4608453E86006B
:1008E0000030473D8700413F8A00403F0A00843185
:1008F00040014608453E86000030473D870016000F
:1009000001040319902C0230C3004608453E8600BE
:100910000030473D8700413F8A00403F0A00843154
:1009200004308D31C22584314201A000A101400173
:10093000460886008701463142012008C03F210851
:10094000C13F4001C80148088D31C22584314201B0
:10095000A000A101400148084201A200A301A23564
:10096000A30DA235A30D2208400146074201A400B1
:1009700023084001473D4201A50024088600870165
:100980004E312008C03F2108C13F400148084201C4
:10099000A600A701A635A70DA635A70D260840017C
:1009A00046074201A80027084001473D4201A9002F
:1009B00028088600870150312008C03F2108C13F28
:1009C00001304001C8070430480203180800A32C76
:1009D0004208860087014831403FC400413FC500BE
:1009E0004208860087014631403FC600413FC700AC
:1009F00045084706031DFE2C440846060319080057
:100A000042088600870148311600FF3AC4001600EC
:100A1000FF3AC40403192A2D4208860087014A318F
:100A20004208840085010831003FC400013FC50031
:100A3000C435C50DC435C50D44084207C600450878
:100A4000433DC7004608840085011031403F803F88
:100A5000413F813F4208473E86000030433D8700CA
:100A6000160001040319472D42088600870146310C
:100A7000403FC000413FC1004208473E8600003071
:100A8000433D8700413F8A00403F0A0085314208CC
:100A90008600870148311600FF3AC4001600FF3A6D
:100AA000C40403196B2D42088600870141310103FC
:100AB000031D6B2D42088600870143318114E83005
:100AC000C4000330C5004208860087014431440851
:100AD000C03F4508C13F42088600870146314208B1
:100AE000840085010831403F803F413F813F08003D
:100AF000E42D981615304001C5004B30C400BE30BF
:100B0000890B802DC40B802DC50B802D000040016A
:100B10009812181715304001C5004B30C400BE3084
:100B2000890B902DC40B902DC50B902D000040011A
:100B30001813981715304001C5004B30C400BE3063
:100B4000890BA02DC40BA02DC50BA02D00004001CA
:100B500098133230AE000130AF008531F82508001F
:100B600005304001C5000F30C400F130890BB62DAF
:100B7000C40BB62DC50BB62D4001991205304001AE
:100B8000C5000F30C400F130890BC42DC40BC42D37
:100B9000C50BC42D4001991668304001C400E430F3
:100BA000890BD02DC40BD02D000008003730BC00BD
:100BB0000130BD008F31562785313230BC00013005
:100BC000BD008631CA2608004308C400C501450897
:100BD000003A0319EC2DF72D4408003A0319792D3A
:100BE000013A0319B02D033A0319D62DF72D080049
:100BF000032E1810012E1810FE2D18149814262EEE
:100C000018149810262E2E0886002F0887004431CD
:100C10000108B000B1013108003A0319102E002E6E
:100C20003008003A0319F92D013A0319002E033A4E
:100C30000319FB2D013A0319FD2D002E1811242E46
:100C4000181198153E2E181598113E2E2E08860064
:100C50002F08870043310108B000B1013108003A84
:100C60000319332E232E3008013A03191E2E033A9E
:100C70000319232E013A0319202E232E19164F2E65
:100C800019149910191599150800191099101911AE
:100C900099110800191499101915991108002E08B6
:100CA00086002F08870042310108B000B1013108E9
:100CB000003A03195C2E4A2E3008003A0319452EDB
:100CC000013A03194A2E033A0319402E4A2E08000E
:100CD00040011A160E19080040010E197C2E05302D
:100CE0004001B1000F30B000F130890B752EB00B10
:100CF000752EB10B752E6C2EB201B30140011A1284
:100D00000B304001B1002630B0005D30890B862EDB
:100D1000B00B862EB10B862E003240011A160B3016
:100D20004001B1002630B0005D30890B952EB00B2C
:100D3000952EB10B952E003201304001B2070030E4
:100D4000B33D3308803AB00080303002031DAA2E34
:100D50000A303202031C7E2E4001AE0100308E317B
:100D6000722686314001AE0101308E317226863105
:100D70004001AE0102308E31722686314001AE0153
:100D800003308E31722686314001AE0104308E313F
:100D9000722608003C08E000BA01BA0A00308D3122
:100DA000552586311030C000DC2EC017FD2E4017AF
:100DB000FD2EC030C004FD2E600A86000130870081
:100DC0000108BE00BF013F08003A0319E82EFD2EBE
:100DD0003E08003A0319FD2E013A0319D52E033AB5
:100DE0000319D72E013A0319D92EFD2E4014172FBF
:100DF000C014172F0330C004172F6008860001307D
:100E000087000108BE00BF013F08003A0319092FFF
:100E1000172F3E08003A0319172F013A0319F62E2F
:100E2000033A0319F82E013A0319FA2E172F400836
:100E3000BA0001308D3155250800003402340234E7
:100E40000034FF34FF34FF34FF34FF34FF34FF3409
:100E5000FF34FF34FF343F340034FF34FF343F3479
:100E60000034FF34FF343F340034FF34FF343F3468
:100E70000034FF34FF3401340034003400340034D3
:100E800000340034003400340034003400340034C2
:100E900000340034003400340034003400340034B2
:100EA00000340034003400340034003400340034A2
:100EB0000034003400340034003400340034003492
:100EC0000034003478340534FF340C34B4340C343A
:100ED0004001980180309900C0309A009C01103088
:100EE000920040309300EF309400083096007D016E
:100EF0008C0196012030A0008D0197010F30A100D8
:100F0000B5018E019801A201FF308F00FF309900DA
:100F1000FF30A300FF309000FF309A00FF30A400A4
:100F20000830B8000E307C01C1000E307B019B0000
:100F300016307C01C70015307B01A20017307C0100
:100F4000C80016307B01A3007D019101920193013D
:100F50009B019C019D01A501A601A701B901BA0150
:100F6000BB0108002F08860087014C31403FB100CB
:100F7000413FB2002F08860087014A31403FB3004D
:100F8000413FB40032083406031DC82F3108330630
:100F9000031908002F08860087014A3101083F39EC
:100FA000B5002F08493E86000030303D870016000E
:100FB00001040319E82F3508AE002F08493E8600CA
:100FC0000030303D8700413F8A00403F0A008731B2
:100FD0002F08860087014A312F08840085010C31D3
:100FE000403F803F413F813F080041010C100B14FE
:100FF00000304001AE000030AF008C31D02408003A
:10196400080008000800C901083008008E31172655
:1019740008008F31292708008031522008004A3599
:101984004D018C00033008008C31E024F000700815
:1019940008008C31F824F000700808002F08DC00DF
:1019A4002E08DB0008005508AE00D5012E080800FB
:1019B40003144A0D4D018C00043008004D0111152B
:1019C4008D319E25003008004D0111140230400174
:1019D400D6000800640080010131890BED2C00342D
:1019E400FE0012001E00FE0BF32C00344D01901279
:1019F40090164001C901003008004108BE004008AB
:101A0400BD008D317D25080044018F019101053011
:101A140093009201940108002F084101EE00400157
:101A24002E084101ED0008002E082F0403190800B8
:101A34002F08FC002E08FB0008002E082F040319B1
:101A440008002F08FA002E08F900080001340234B7
:101A54000234023401340334FF34FF34FF346D089C
:101A64006E0403193A2D6E088A006D080A008D3140
:101A740041018C1208006B086C040319462D6C0894
:101A84008A006B080A008D3141018D130800BB00E8
:101A94001030B4000030B5003B08B6003A08B70077
:101AA4008E3133260800BB001130B4000030B5007D
:101AB4003B08B6003A08B7008E3133260800BB0055
:101AC4001030B7000030B8003B08B9003C30BA0011
:101AD4008E31B6263C08080080304D018F00083056
:101AE4009000910192014F308D004101191799170F
:101AF4004D019016080003308D3161258D31BF00F2
:101B0400F830BF053D080739BF043F08BA00033069
:101B14008D3149250800F93043019D009C0177303F
:101B24009F00B2304101ED000C30EE008C1296168D
:101B3400803043019E0008004001C9010030CB0001
:101B4400FF30CA00CC01CD01D001D101D601410141
:101B54000F138F134D01901310130800BF01C00120
:101B64005F080319BD2D06308D316125C100411A6E
:101B74003F144118BF144008BE003F08BD000800D0
:101B84004001AE00C62D4001640079019018C52DB6
:101B9400101740012E0879018C0070308D0010144C
:101BA4000E0808000130460190008F019101203099
:101BB4008D008C01B3304101EB000C30EC008D132F
:101BC4009717C03046018E0008008D3106258D31EF
:101BD400873168278D318D316E258D318D318D257D
:101BE4008D318D31D4258D318D31FC258D31873169
:101BF400F527080048304C019200903090002630C0
:101C0400910044308E008F0100304001AE0000305E
:101C1400AF008D3116258D310030AE000030AF009D
:101C24008D311F25D901DA01080006304001D600A4
:101C34000330D50041018F1340015608F100F20131
:101C4400F135F20D7930710784001130723D80381E
:101C54008500013F8A00003F0A008E314001D60012
:101C64000800B801B9013608B8003708B9003508CA
:101C7400AF003408AE003830B0000230B10000309C
:101C8400B2008E3152268E31003A03190800803199
:101C940002208E31003A031D492E8C31D5240800D0
:101CA400B301803102208E31003A031D702E0130C1
:101CB400C9002F08CB002E08CA00D4013008CC007C
:101CC400CD013208CF003108CE00D001D101D201BC
:101CD400D301D5018C31E6240130B3003308080068
:101CE400AF0079019018732E101740012F08790165
:101CF4008C0070308D008F0140012E0879018E0018
:101D040003108B1B03148B13101555309100AA304C
:101D14009100901490188C2E1011031C08008B173E
:101D240008004E084F040319A92E0130CE020030DA
:101D3400CF3B4C0886004D08870001084D018C00FC
:101D440001304001CC070030CD3D0330B32E5408A0
:101D54000319B12ED4014D0191140130B32E8C31ED
:101D6400E024F000700808003A0886008701810129
:101D74003808AF003708AE003930B0000130B10088
:101D84000030B2003A08B3000130B4000030B500AE
:101D94008E31D9268E31003A031908008031022091
:101DA4008E31003A031DD02E8C31D5240800B601A3
:101DB400803102208E31003A031DFB2E0130C90010
:101DC4002F08CB002E08CA000130D4003008CC0004
:101DD400CD013208CF003108CE003308D000D10144
:101DE4003508D3003408D200D5018C31E624013003
:101DF400B600360808000430F0004D010F1C262FF1
:101E04004001520853040319172F50088600510843
:101E140087004D010C08810001304001D0070030DB
:101E2400D13D0130D2020030D33B52085304031990
:101E34001F2F4D0191121116272F4D01911091164C
:101E440011160730F000272F9115700808000F13A2
:101E54004D010F1E312F8D319E258F31412F8F1E45
:101E6400111F392F05304001D6000130402F8F1A41
:101E7400111F412F05304001D6000230D50040012A
:101E84005608F100F201F135F20D79307107840042
:101E94001130723D80388500013F8A00003F0A00FE
:101EA4008F314001D60008003C08DF00C001400823
:101EB400BE00BF01BE35BF0DA2303E078400103006
:101EC4003F3D80388500003FC100013FC20041030F
:101ED400031D7B2F8F30C2053C0886003D08870018
:101EE40001080739BE000430BE35890B762F3E0841
:101EF400C2044208BA0041088D3149258F310130AE
:101F0400C0070E30400203180800592F40010E0C80
:101F14000139F2000E080139F3000130F335890B61
:101F2400902F73087204F800700886007108870007
:101F3400700884007108850000080F39F200F3016D
:101F4400F235F30DF235F30D0B30F4009130F5005A
:101F540072087407F6007308753DF7007808760771
:101F6400840077080318013E85000008810070088A
:101F740086007108870001083039080031083004F0
:101F84002F042E040319F72F0130B600B11BD42FF0
:101F94000130AE35AF0DB00DB10D890BCB2F013033
:101FA400B607C82F31083502031DE22F300834026A
:101FB400031DE22F2F083302031DE22F2E083202E5
:101FC400031CEC2F2E08B2022F08B33B3008B43B9D
:101FD4003108B53B0130B136B00CAF0CAE0C890BF7
:101FE400ED2F0130B602031DD42F3508B10034089B
:101FF400B0003308AF003208AE000800FC340D34E2
:10200400003400340034003400340034003400342C
:10201400003400340034003400340034003400341C
:10202400003400340034003400340034003400340C
:1020340000340034003400340034003400340034FC
:1020440000340034003400340034003416340D34C9
:102054001F340D34003400340034003450346134FF
:1020640072346934743479342034453472347234BB
:102074006F34723420346F3472342034423469340F
:1020840070346834613473346534203445347234C4
:1020940072346F347234203453347434613474348D
:1020A400753473343A342034253473340D340A349B
:1020B40000344334683461346E346E3465346C34C3
:1020C40020345334743461347434753473342034A8
:1020D4004234753466346634653472342034493499
:1020E4006E347434653472347234753470347434C8
:1020F4003A342034253473340D340A3400345134E2
:102104002D3473347534623463346F346434653419
:102114002034423475346634663465347234203481
:1021240049346E34743465347234723475347034B2
:1021340074343A342034253473340D340A3400347E
:102144000034633401345A34023488340334483458
:102154000434EE340534B534203477342134003477
:10216400223400342334003424343F342534FF34FF
:1021740026340334283420344E346F346E342D34F2
:10218400503443344D3420344134753474346F3412
:1021940020344434653474346534633474343A34E8
:1021A4002034253473340D340A34003450347234FA
:1021B40065342D3465346D3470346834613473346B
:1021C400693473342034443465347434653463348A
:1021D40074343A342034253473340D340A340034DE
:1021E4004434543453342D3443344434203441344B
:1021F400753474346F342034443465347434653441
:10220400633474343A342034253473340D340A344A
:1022140000340334023401340034233400340134F0
:1022240000341334023400340034033405340434E9
:1022340000340334033404341034033405340334D5
:10224400203441347534643469346F342034423476
:102254006934743420344F347534743470347534C0
:1022640074343A342034253473340D340A3400344D
:1022740050344C344C3420344C346F3463346B3429
:1022840020345334743461347434753473343A34CC
:102294002034253473340D340A3400345534733403
:1022A40069346E346734203469346E347034753470
:1022B400743420343A342034523458342534753448
:1022C4000D340A3400346E340D3400340034523486
:1022D4000E3400340034D9340E3400340034D53490
:1022E4000C34023400340034003400340034B53487
:1022F4000C34DA340C34C1340C3493340E34FD34DD
:102304000E34C6340C34CB340C34E0340C34F8348E
:102314000C34533461346D3470346C3469346E3439
:1023240067342034723461347434653420343A347C
:102334002034003453347434613474347534733455
:1023440020343A3420340D340A34003452346534A1
:102354007334653472347634653464340D340A3439
:1023640000343134373436342E3434344B34483436
:102374007A340D340A340034343434342E34313461
:102384004B3448347A340D340A3400343834383415
:102394002E3432344B3448347A340D340A34003415
:1023A4004E346F3420346334683461346E346734AB
:1023B400653400344E346F346E3420344134753413
:1023C400643469346F3400344E346F3420346434EC
:1023D40065347434653463347434003431343934DA
:1023E40032344B3448347A340D340A34003455349E
:1023F4006E346C346F3463346B3465346434003459
:102404004E346F3420344534723472346F34723441
:102414000034393436344B3448347A340D340A3485
:102424000034343438344B3448347A340D340A3478
:1024340000344334683461346E346734653464344E
:1024440000344C346F3463346B3465346434003496
:1024540044346534743465346334743400344F3430
:0C2464004634463400344F344E3400340B
:020000040001F9
:04000E008C3FE73FFD
:04001400FF3FFF3F6C
:10E0000000000000000000000000FF00FF00FF0013
:00000001FF
