:1000000080312928460808007E148031003086009F
:10001000003087000B1F27284101991B8F1F1428D0
:100020008D314F2580312728191B0F1F1B288D313B
:10003000522580312728971B8D1F22288D31F125CD
:1000400080312728961A8C1E27288D31E4257E10B2
:10005000090080312B288A30840086308500A0304A
:100060008600003087004F308D3193258031763007
:1000700084008D3085002E308600013087000530E9
:100080008D3193258031F901FA01FB01FC014630E5
:1000900084000030850018308D318D257E104001A0
:1000A0008631D92E01304101BF070030C03DC63036
:1000B000F0000030F1008731B3278031AD002D080A
:1000C0000319A2294101410840012D060319752891
:1000D00041013E35C23E860087010030873D3E35F6
:1000E0000030873D0030C03FC13F40012D08410135
:1000F000C100103040012D06031D952841013E0826
:100100004001A000A101A035A10DC230A200003025
:10011000A3002008220786002108233D8700013024
:10012000810741310318810AB02820302D06031DB4
:10013000B02841013E084001A000A101A035A10D59
:10014000C230A2000030A300200822078600210848
:10015000233D8700FF3081074131FF30813D7F31F2
:1001600041013E08031D25292B084001AA00410139
:100170002A084001A90041013E084001A000A10158
:10018000A035A10DC230A2000030A3002008220734
:1001900086002108233D8700403FA400413FA50081
:1001A0002508803AA60080302602031DD928013098
:1001B0002402031CE028FF304001A907FF30F72884
:1001C00041013E084001A000A101A035A10DC230AF
:1001D000A2000030A3002008220786002108233D4A
:1001E00087004131811F05290130A9070030AA3D50
:1001F00041013E35C23E860087010030873D3E35D5
:100200000030873D0030C03FC13F40012A08803A9E
:10021000A00080302002031D0F2940302902031C5A
:10022000162900304101AB003F3023294001AA1FAD
:100230001D294101AA01AB01A2292A084101AB00F5
:10024000400129084101AA00A22927084001AC0069
:10025000410126084001AB0041013E084001A000D9
:10026000A101A035A10DC230A2000030A3002008DA
:10027000220786002108233D8700403FA400413F1C
:10028000A5002508803AA60080302602031D4A29D1
:1002900003302402031C512901304001AB07003018
:1002A000752941013E084001A000A101A035A10D22
:1002B000C230A2000030A3002008220786002108D7
:1002C000233D8700403FA400413FA5002508803A18
:1002D000A6007F302602031D6F29FE30240203187A
:1002E0008329FF304001AB07FF30AC3D41013E3573
:1002F000C23E860087010030873D3E350030873D95
:100300000030C03FC13F40012C08803AA00080303F
:100310002002031D8D2904302B02031C9329410167
:10032000A601A701A2294001AC1F9B290030410171
:10033000A7000330A1292C084101A70040012B0888
:100340004101A60040010E19B02941014708031DD3
:10035000EE294008CC003F08CB000130C700EE2951
:10036000410147080319EE29CB3086000030870091
:10037000A0308400003085001F31403F0002400162
:10038000A0000131413F003BA1002008A700210847
:10039000A8004101C70100304001280214300319B0
:1003A0002702031CEE2941014008CE003F08CD0082
:1003B000033040012802E83003192702031CE72913
:1003C00003304101CF00C901CA01C801EE29013043
:1003D0004101C9070030CA3D0130C8004101480849
:1003E00003190800CD30860000308700A03084005B
:1003F000003085001F31403F00024001A000013164
:10040000413F003BA10001302102F53003192002D9
:10041000031C0800410149034A04031D112A01304D
:10042000172A023049064A04031D182A0230CF0059
:10043000C901CA01C80108002E0886002F088700DC
:100440000103031DAC2A2E082F3E860000302F3DED
:1004500087000108031D472A672A2E0886008701A6
:10046000413102300106031D602AE830B00003303C
:10047000B1002E088600870144313008C03F3108A2
:10048000C13F2E088600870143310114602A2E08DF
:100490002F3E860000302F3D87000108B000B101DB
:1004A0003108003A0319552A602A3008013A031925
:1004B000602A033A0319602A013A03192D2A602A97
:1004C0002E082F3E860000302F3D870081012E0828
:1004D0003E3E860000302F3D8700010803190800CA
:1004E0008B2A2E0886008701423102300106031D47
:1004F000A42AE830B0000330B1002E08860087013E
:1005000044313008C03F3108C13F2E0886008701C2
:1005100043318114A42A2E083E3E860000302F3D30
:1005200087000108B000B1013108003A0319992A87
:10053000A42A3008013A0319A42A033A0319A42A69
:10054000013A0319712AA42A2E083E3E8600003083
:100550002F3D8700810108002E082F3E86000030C5
:100560002F3D8700010803190800D12A2E088600B4
:1005700087015E310108031DC42A2E088600870109
:100580005E3101308100EA2A2E08860087015E3143
:100590000103031DEA2A2E08860087015E318101CE
:1005A000EA2A2E082F3E860000302F3D87000108E2
:1005B000B000B1013108003A0319DF2AEA2A3008F5
:1005C000013A0319B62A033A0319EA2A013A031930
:1005D000EA2AEA2A2E082F3E860000302F3D8700A7
:1005E000810108003008860087014431403FB20095
:1005F000413FB3003308803AB40080303402031D19
:10060000032B01303202031C112B400130088600FD
:1006100087014431FF3081074131FF30813D7F3117
:100620000800400130088600310887000103031DDF
:1006300008003008860087014331011C852B3008F3
:10064000860087014331FE3081053008860087012E
:100650004A313008840085010631003FB200013F75
:10066000B300B235B30DB235B30D32083007B40064
:100670003308313DB5003408840085010E31403F18
:10068000803F413F813F3008860087014631403F2F
:10069000B200413FB300B235B30DB235B30D3208ED
:1006A0003007B4003308313DB500340886008701B7
:1006B0004E31300884008501063100088E314E2607
:1006C000823101060319852B40013008860087011D
:1006D0004631403FB200413FB300B235B30DB235B1
:1006E000B30D32083007B4003308313DB50034088B
:1006F000860087014E310108AE0030088600870170
:10070000463101088E31EA268231400130088600E8
:1007100087014331811C080030088600870143317E
:10072000FD308105300886008701463104308E3166
:100730004E26823101060319080040013008860068
:10074000870146310108AE0004308E31EA260800E8
:100750004208860087014831403F4201A000413FE6
:10076000A10040014208860087014631403F420116
:10077000A200413FA30021082306031DC12B20082E
:10078000220603190800400142088600870148310B
:100790001600FF3A4201A0001600FF3AA004031918
:1007A000F52B40014208860087014A314208840047
:1007B00085010831003F4201A000013FA100A035A2
:1007C000A10DA035A10D2008400142074201A20061
:1007D00021084001433D4201A30022088400850115
:1007E0001031403F803F413F813F40014208473E3A
:1007F00086000030433D8700160001040319132CC6
:100800004208860087014631403FC000413FC10099
:100810004208473E86000030433D8700413F8A0042
:10082000403F0A00843142088600870148311600A3
:10083000FF3A4201A0001600FF3AA00403193C2C25
:10084000400142088600870141310103031D3C2C11
:1008500042088600870143318114E8304201A0003C
:100860000330A10040014208860087014431420163
:100870002008C03F2108C13F40014208860087018F
:1008800046314208840085010831403F803F413FA6
:10089000813F08002008453E86000030213D87004A
:1008A000160001040319622C4001C3014201200813
:1008B000453E86000030213D8700413F8A00403F91
:1008C0000A00843142012008453E86000030213D67
:1008D00087001600010403197C2C4001C301C30AE0
:1008E00042012008453E86000030213D8700413FFF
:1008F0008A00403F0A00843142012008453E8600BC
:100900000030213D8700160001040319962C0230A7
:100910004001C30042012008453E86000030213DD1
:100920008700413F8A00403F0A00843104308E3105
:100930004E2684314201A200A301200886008701CF
:1009400046312208C03F2308C13F4101EF016F0833
:100950008E314E2684314201A200A30141016F086D
:100960004201A400A501A435A50DA435A50D2408B8
:100970002007A6002508213DA7002608860087013C
:100980004E312208C03F2308C13F41016F08420198
:10099000A800A901A835A90DA835A90D2808200788
:1009A000AA002908213DAB002A08860087015031A2
:1009B0002208C03F2308C13F01304101EF07043046
:1009C0006F0203180800A72C502D9816153040010F
:1009D000C5004B30C400BE30890BEC2CC40BEC2C92
:1009E000C50BEC2C0000400198121817153040017F
:1009F000C5004B30C400BE30890BFC2CC40BFC2C52
:100A0000C50BFC2C0000400118139817153040014D
:100A1000C5004B30C400BE30890B0C2DC40B0C2D0F
:100A2000C50B0C2D0000400198132E30AE00013094
:100A3000AF0085316525080005304001C5000F3045
:100A4000C400F130890B222DC40B222DC50B222DA1
:100A50004001991205304001C5000F30C400F1304B
:100A6000890B302DC40B302DC50B302D400199164C
:100A700068304001C400E430890B3C2DC40B3C2D90
:100A800000000800EB30BC000030BD008F31CE27E5
:100A900084312E30BC000130BD008631372608007D
:100AA00040014308C400C5014508003A0319592D07
:100AB000642D4408003A0319E52C013A03191C2D52
:100AC000033A0319422D642D0800702D18106E2D65
:100AD00018106B2D18149814932D18149810932D2A
:100AE0002E0886002F08870044310108B000B101AC
:100AF0003108003A03197D2D6D2D3008003A031995
:100B0000662D013A03196D2D033A0319682D013A38
:100B100003196A2D6D2D1811912D18119815AB2DF3
:100B200018159811AB2D2E0886002F088700433129
:100B30000108B000B1013108003A0319A02D902D31
:100B40003008013A03198B2D033A0319902D013A0D
:100B500003198D2D902D1916BC2D191499101915E6
:100B600099150800191099101911991108001914F4
:100B700099101915991108002E0886002F08870072
:100B800042310108B000B1013108003A0319C92D02
:100B9000B72D3008003A0319B22D013A0319B72DC9
:100BA000033A0319AD2DB72D080040011A160E198E
:100BB000080040010E19E92D05304001B1000F3049
:100BC000B000F130890BE22DB00BE22DB10BE22D1C
:100BD000D92DB201B30140011A120B304001B1000E
:100BE0002630B0005D30890BF32DB00BF32DB10B27
:100BF000F32D003240011A160B304001B1002630AF
:100C0000B0005D30890B022EB00B022EB10B022E0C
:100C1000003201304001B2070030B33D3308803A62
:100C2000B00080303002031D172E0A303202031C40
:100C3000EB2D4001AE0100308E31EA2685314001B6
:100C4000AE0101308E31EA2685314001AE0102301D
:100C50008E31EA2685314001AE0103308E31EA261D
:100C600085314001AE0104308E31EA2608003C088F
:100C7000DD00BA01BA0A00308D31D8258631103036
:100C8000C000492EC0176A2E40176A2EC030C0041B
:100C90006A2E5D0A8600013087000108BE00BF0190
:100CA0003F08003A0319552E6A2E3E08003A0319F0
:100CB0006A2E013A0319422E033A0319442E013ACF
:100CC0000319462E6A2E4014842EC014842E03303D
:100CD000C004842E5D088600013087000108BE0034
:100CE000BF013F08003A0319762E842E3E08003AD1
:100CF0000319842E013A0319632E033A0319652E52
:100D0000013A0319672E842E4008BA0001308D3154
:100D1000D82508000034023402340034FF34FF3494
:100D2000FF34FF34FF34FF34FF34FF34FF34FF342B
:100D30003F340034FF34FF343F340034FF34FF3499
:100D40003F340034FF34FF343F340034FF34FF3489
:100D500001340034003400340034003400340034F2
:100D600000340034003400340034003400340034E3
:100D700000340034003400340034003400340034D3
:100D800000340034003400340034003400340034C3
:100D90000034003400340034003400340034E434CF
:100DA0000434A0340D344B340D340334FF34FF3499
:100DB000FF348731EB2786310B304201AD002630FE
:100DC000AC005D30890BE22EAC0BE22EAD0BE22EB7
:100DD00000328531D525863155304001AE000D30C9
:100DE000AF008D316C2586318B170B17A030420177
:100DF000A0000030A10084314A248631A030400197
:100E0000C2000030C3008331A8238631A0304001E6
:100E1000AF000030B000873170278631A030AE00BF
:100E20000030AF0082311C228631A030B00000308B
:100E3000B1008231F22286310B304201AC006230C7
:100E4000890B202FAC0B202F0000FE2E40019801B3
:100E500080309900C0309A009C01103092004030E0
:100E60009300EF309400083096007D018C019601CC
:100E70002030A0008D0197010F30A100B5018E0137
:100E80009801A201FF308F00FF309900FF30A300CE
:100E9000FF309000FF309A00FF30A4000830B80007
:100EA0000E307C01C1000E307B019B0016307C01AE
:100EB000C70015307B01A20017307C01C800163036
:100EC0007B01A3007D019101920193019B019C0193
:100ED0009D01A501A601A701B901BA01BB01080046
:100EE0002F08860087014C31403FB100413FB200DE
:100EF0002F08860087014A31403FB300413FB400CC
:100F000032083406031D862F310833060319080002
:100F10002F08860087014A3101083F39B5002F08A4
:100F2000493E86000030303D870016000104031959
:100F3000A62F3508AE002F08493E86000030303D10
:100F40008700413F8A00403F0A0087312F08860012
:100F500087014A312F08840085010C31403F803FD2
:100F6000413F813F080040010E0C0139F2000E089C
:100F70000139F3000130F335890BBB2F730872047C
:100F8000F8007008860071088700700884007108F6
:100F9000850000080F39F200F301F235F30DF23548
:100FA000F30D0B30F4009130F50072087407F60071
:100FB0007308753DF70078087607840077080318F2
:100FC000013E8500000881007008860071088700D6
:100FD0000108303908008D31A72587318731262750
:100FE00087318E310B2687318E313C2687318E3109
:100FF000602687318E31742687318D31C1250800F6
:101A9200080008000800C601083008008E318F26B1
:101AA20008008F31A12708008031522008004735F5
:101AB2004D018C00033008008D318125F000700843
:101AC20008008D319925F000700808002F08D90010
:101AD2002E08D80008002F08E1002E08E0000800B8
:101AE2005208AE00D2012E0808000134023402343A
:101AF200023401340314470D4D018C0004300800F8
:101B02004D0111158E312A26003008004D011114A5
:101B120002304001D3000800640080010131890BCA
:101B22008E2D0034FE0012001E00FE0B942D003498
:101B32004D01901290164001C60100300800410884
:101B4200BE004008BD008E311A26080044018F01F4
:101B52009101053093009201940108002E082F0490
:101B6200031908002F08FC002E08FB0008002E08AD
:101B72002F04031908002F08FA002E08F9000800A4
:101B820041010C100B1400304001AE000030AF00D8
:101B92008D3167250800BB001030B4000030B5005D
:101BA2003B08B6003A08B7008E31AB260800BB00EE
:101BB2001130B4000030B5003B08B6003A08B70057
:101BC2008E31AB2608004001600861040319EE2D36
:101BD20061088A0060080A008D3141018C120800F8
:101BE20040015E085F040319FB2D5F088A005E084E
:101BF2000A008D3141018D130800BB001030B7007F
:101C02000030B8003B08B9003C30BA008F312E27B3
:101C12003C08080080304D018F000830900091018F
:101C220092014F308D004101191799174D019016FD
:101C3200080003308D31FE258E31BF00F830BF051C
:101C42003D080739BF043F08BA0003308D31CC2567
:101C520008004001C6010030C800FF30C700C901BA
:101C6200CA01CD01CE01D30141010F138F134D01E2
:101C7200901310130800F93043019D009C01773046
:101C82009F0049304001E0000D30E10041018C121B
:101C92009616803043019E0008004001AE00522E8D
:101CA2004001640079019018512E101740012E084E
:101CB20079018C0070308D0010140E08080001307C
:101CC200460190008F01910120308D008C014A3035
:101CD2004001DE000D30DF0041018D139717C03047
:101CE20046018E00080048304C019200903090006E
:101CF2002630910044308E008F0100304001AE004A
:101D02000030AF008D31AF258E310030AE00003093
:101D1200AF008D31B825D601D70108000630400149
:101D2200D3000330D20041018F1340015308F10068
:101D3200F201F135F20D7930710784001130723DF4
:101D420080388500013F8A00003F0A008E31400141
:101D5200D3000800B801B9013608B8003708B90045
:101D62003508AF003408AE003830B0000230B100A0
:101D72000030B2008E31CA268E31003A03190800B3
:101D8200803102208E31003A031DC12E8D31712522
:101D92000800B301803102208E31003A031DE82E83
:101DA2000130C6002F08C8002E08C700D101300834
:101DB200C900CA013208CC003108CB00CD01CE01E6
:101DC200CF01D001D2018D3187250130B300330814
:101DD2000800AF0079019018EB2E101740012F0870
:101DE20079018C0070308D008F0140012E0879013D
:101DF2008E0003108B1B03148B13101555309100AA
:101E0200AA30910090149018042F1011031C08009E
:101E12008B1708004B084C040319212F0130CB0209
:101E22000030CC3B490886004A08870001084D0172
:101E32008C0001304001C9070030CA3D03302B2F0E
:101E420051080319292FD1014D01911401302B2F73
:101E52008D318125F000700808003A08860087015C
:101E620081013808AF003708AE003930B0000130C8
:101E7200B1000030B2003A08B3000130B4000030C3
:101E8200B5008F3151278F31003A03190800803194
:101E920002208F31003A031D482F8D317125080031
:101EA200B601803102208F31003A031D732F0130B9
:101EB200C6002F08C8002E08C7000130D100300824
:101EC200C900CA013208CC003108CB003308CD006A
:101ED200CE013508D0003408CF00D2018D318725DC
:101EE2000130B600360808000430F0004D010F1C26
:101EF2009E2F40014F08500403198F2F4D08860072
:101F02004E0887004D010C08810001304001CD07C9
:101F12000030CE3D0130CF020030D03B4F0850049C
:101F22000319972F4D01911211169F2F4D019110F8
:101F3200911611160730F0009F2F911570080800B6
:101F42000F134D010F1EA92F8E312A268F31B92F63
:101F52008F1E111FB12F05304001D3000130B82F61
:101F62008F1A111FB92F05304001D3000230D20061
:101F720040015308F100F201F135F20D7930710799
:101F820084001130723D80388500013F8A00003F95
:101F92000A008F314001D30008003C08DC00C00178
:101FA2004008BE00BF01BE35BF0DA2303E0784000F
:101FB20010303F3D80388500003FC100013FC20024
:101FC2004103031DF32F8F30C2053C0886003D08F4
:101FD200870001080739BE000430BE35890BEE2F99
:101FE2003E08C2044208BA0041088D31CC258F3127
:101FF2000130C0070E30400203180800D12F74349C
:102002000E34003400340034003400340034003420
:10201200003400340034003400340034003400341E
:10202200003400340034003400340034003400340E
:1020320000340034003400340034003400340034FE
:102042000034003400340034003400340034AF343F
:102052000D34B8340D3400340034003400345034BC
:1020620061347234693474347934203445347234CE
:1020720072346F34723420346F3472342034423408
:1020820069347034683461347334653420344534CF
:10209200723472346F347234203453347434613491
:1020A2007434753473343A342034253473340D3433
:1020B2000A3400344334683461346E346E34653427
:1020C2006C3420345334743461347434753473345E
:1020D20020344234753466346634653472342034C4
:1020E20049346E34743465347234723475347034F5
:1020F20074343A342034253473340D340A340034C1
:1021020051342D3473347534623463346F3464342F
:10211200653420344234753466346634653472343E
:10212200203449346E347434653472347234753404
:10213200703474343A342034253473340D340A3410
:1021420000340034633401345A34023488340334A2
:1021520048340434EE340534B53420347734213431
:102162000034223400342334003424343F34253400
:10217200FF3426340334283420344E346F346E3422
:102182002D34503443344D34203441347534743456
:102192006F342034443465347434653463347434B5
:1021A2003A342034253473340D340A340034503434
:1021B200723465342D3465346D347034683461346E
:1021C200733469347334203444346534743465347C
:1021D200633474343A342034253473340D340A347D
:1021E20000344434543453342D344334443420348E
:1021F2004134753474346F34203444346534743467
:102202006534633474343A342034253473340D34F1
:102212000A340034033402340134003423340034E9
:1022220001340034133402340034003403340534EE
:1022320004340034033403340434103403340534D6
:102242000334203441347534643469346F342034B7
:1022520042346934743420344F34753474347034F5
:10226200753474343A342034253473340D340A34DA
:10227200003450344C344C3420344C346F34633496
:102282006B3420345334743461347434753473349D
:102292003A342034253473340D340A34003455343E
:1022A200733469346E346734203469346E34703474
:1022B2007534743420343A3420345234583425344A
:1022C20075340D340A3400340B340E3400340034C7
:1022D200CA340E340034003451340F340034003424
:1022E20071340D34023400340034003400340034CC
:1022F2004C340D347B340D3458340D340B340F34DC
:1023020075340F345D340D3462340D3481340D3440
:1023120099340D34533461346D3470346C3469340F
:102322006E3467342034723461347434653420344A
:102332003A34203400345334743461347434753490
:10234200733420343A3420340D340A340034523495
:1023520065347334653472347634653464340D34E0
:102362000A3400343134373436342E3434344B3476
:1023720048347A340D340A340034343434342E344C
:1023820031344B3448347A340D340A34003438341E
:1023920038342E3432344B3448347A340D340A34DF
:1023A20000344E346F3420346334683461346E3414
:1023B2006734653400344E346F346E342034413423
:1023C2007534643469346F3400344E346F342034DD
:1023D20064346534743465346334743400343134B1
:1023E200393432344B3448347A340D340A340034BC
:1023F20055346E346C346F3463346B346534643406
:1024020000344E346F3420344534723472346F34B5
:1024120072340034393436344B3448347A340D341F
:102422000A340034343438344B3448347A340D347A
:102432000A3400344334683461346E3467346534AA
:10244200643400344C346F3463346B346534643434
:102452000034443465347434653463347434003481
:0E2462004F344634463400344F344E34003488
:020000040001F9
:04000E008C3FE73FFD
:04001400FF3FFF3F6C
:10E0000000000000000000000000FF00FF00FF0013
:00000001FF
