:1000000080314028080008007E14803100308600CE
:10001000003087000B1F0D280E283E284101991F34
:10002000122813281B288F1F162817281B288A31EF
:10003000922280313E28191F1E281F2827280F1FB3
:100040002228232827288A31962280313E28971F8C
:100050002A282B2833288D1F2E282F2833288B3130
:100060003E2380313E28961E362837283E288C1E97
:100070003A283B283E288B312F2380317E100900FF
:1000800080314228833084008E308500A030860085
:10009000003087004B308A31CE228031F901FA01DD
:1000A000FB01FC01FD0144308400003085001A3062
:1000B0008A31C82280317E1040018E31CE2E01302F
:1000C0004101BF070030C03DC630F0000030F100F4
:1000D0008D31322580314001AD002D080319712882
:1000E0007228D0294101410840012D0603197928C1
:1000F0007A28872841013E35C23E860087010030BC
:10010000873D3E350030873D0030C03FC13F400154
:100110002D084101C100103040012D06031D91281A
:100120009228A92841013E084001A000A101A03564
:10013000A10DC230A2000030A300200822078600D3
:100140002108233D87000130810741310318810ACE
:10015000C62820302D06031DAE28AF28C628410131
:100160003E084001A000A101A035A10DC230A200AF
:100170000030A3002008220786002108233D8700C5
:10018000FF3081074131FF30813D7F3141013E0821
:10019000031DCB28CC2848292B084001AA00410187
:1001A0002A084001A90041013E084001A000A10128
:1001B000A035A10DC230A2000030A3002008220704
:1001C00086002108233D8700403FA400413FA50051
:1001D0002508803AA60080302602031DF128013050
:1001E0002402031CF428F5280829FF304001A90740
:1001F000FF30AA3D41013E35C23E860087010030F6
:10020000873D3E350030873D0030C03FC13F232948
:1002100041013E084001A000A101A035A10DC2305E
:10022000A2000030A3002008220786002108233DF9
:1002300087004131811F1D291E2923290130A9076B
:100240000030AA3DFA2840012A08803AA0008030F8
:100250002002031D2D2940302902031C3029312999
:10026000372900304101AB003F30AA00D0294001BE
:10027000AA1F3B293C2940294101AA01AB01D029F1
:100280002A084101AB00400129084101AA00D029F8
:1002900027084001AC00410126084001AB004101A4
:1002A0003E084001A000A101A035A10DC230A2006E
:1002B0000030A3002008220786002108233D870084
:1002C000403FA400413FA5002508803AA6008030A9
:1002D0002602031D6D2903302402031C7029712995
:1002E000842901304001AB070030AC3D41013E356F
:1002F000C23E860087010030873D3E350030873D95
:100300000030C03FC13FAC2941013E084001A00080
:10031000A101A035A10DC230A2000030A300200829
:10032000220786002108233D8700403FA400413F6B
:10033000A5002508803AA6007F302602031DA229C9
:10034000FE3024020318A529A629AC29FF3040015C
:10035000AB07FF30AC3D762940012C08803AA00065
:1003600080302002031DB62904302B02031CB9295A
:10037000BA29BE294101A601A701D0294001AC1F1D
:10038000C229C329C92900304101A7000330A600B2
:10039000D0292C084101A70040012B084101A600EB
:1003A00040010E19D429D529E22941014708031D2E
:1003B000DA29DB29262A4008CC003F08CB0001308F
:1003C000C700262A410147080319E729E829262AF8
:1003D000CB30860000308700A030840000308500DC
:1003E0001F31403F00024001A0000131413F003B6E
:1003F000A1002008A7002108A8004101C701003082
:1004000040012802143003192702031C082A092A74
:10041000262A41014008CE003F08CD0003304001AC
:100420002802E83003192702031C172A182A1F2A5A
:1004300003304101CF00C901CA01C801262A013099
:100440004101C9070030CA3D0130C80041014808D8
:1004500003192B2A2C2A5C2ACD3086000030870015
:10046000A0308400003085001F31403F0002400171
:10047000A0000131413F003BA10001302102F530D5
:1004800003192002031C452A462A5C2A410149031C
:100490004A04031D4C2A4D2A502A0130CF00592A04
:1004A000023049064A04031D562A572A592A0230A7
:1004B000CF00C901CA01C801080040013E08FD0083
:1004C000BA017F308B312123823108304001BA00DC
:1004D0000D308B31212382314001BA010E308B3136
:1004E0002123823122304001BA000F308B31212389
:1004F00082314001BA0110308B3121238231400119
:10050000BA0111308B312123823106304001BA000B
:100510001B308B312123823107304001BA001C305F
:100520008B312123823105304001BA001D308B31DF
:10053000212382310D304001BA001E308B3121233E
:10054000823102304001BA002D308B3121238231BB
:1005500020304001BA002E308B3121238231CB2A4A
:100560004030BA002F308B3121238231E32A803092
:10057000BA002F308B3121238231E32AC030BA00F8
:100580002F308B3121238231E32ABA012F308B3176
:1005900021238231E32A40013E088600870143314E
:1005A0000108C000C1014108003A0319D82AC52A30
:1005B0004008403A0319B02AC03A0319B72A403A12
:1005C0000319BE2AC52A4001BA0130308B312123DC
:1005D00082314001BA0131308B31212382311C300C
:1005E0004001BA0007308B31212382314001BA012A
:1005F00008308B31212382314001BA0109308B311F
:100600002123823108304001BA0008308B31212388
:10061000823102304001BA007F308B312123823198
:1006200080304001BA0000308B312123823180308C
:100630004001BA0001308B31212382311830400152
:10064000BA0008308B312123823118304001BA00C2
:1006500009308B31212382314001BA017F308B3147
:10066000212382314001BA0108308B3121238231AC
:1006700033304001BA0001308B31212382313930CF
:100680004001BA0003308B31212382314001BA018D
:1006900004308B31212382314001BA01BA0A05307E
:1006A0008B31212382314001BA0106308B31212365
:1006B000823140013F08BD003E08BC008C31D4248B
:1006C000823140013F08BD003E08BC0086318B26C8
:1006D0008231080040012E0886002F0887000103A0
:1006E000031D732B742B052C2E082F3E8600003023
:1006F0002F3D8700010803197E2B7F2BBC2B9C2BE1
:100700002E0886008701413102300106031D892B26
:100710008A2BB52BE830B0000330B1002E088600DC
:10072000870144313008C03F3108C13F2E088600A0
:10073000870143310114B52B2E082F3E860000306F
:100740002F3D87000108B000B1013108003A0319BC
:10075000AA2BB52B3008013A0319B52B033A03191C
:10076000B52B013A0319802BB52B2E082F3E86009E
:1007700000302F3D870081012E083E3E860000306C
:100780002F3D870001080319C62BC72B502CE42BE3
:100790002E0886008701423102300106031DD12B4D
:1007A000D22BFD2BE830B0000330B1002E088600BC
:1007B000870144313008C03F3108C13F2E08860010
:1007C000870143318114FD2B2E083E3E8600003008
:1007D0002F3D87000108B000B1013108003A03192C
:1007E000F22BFD2B3008013A0319FD2B033A0319B4
:1007F000FD2B013A0319C82BFD2B2E083E3E860027
:1008000000302F3D87008101502C2E082F3E86009E
:1008100000302F3D8700010803190F2C102C502C9D
:10082000302C2E08860087015E310108031D192C2B
:100830001A2C212C2E08860087015E3101308100A0
:10084000492C2E08860087015E310103031D292CE7
:100850002A2C492C2E08860087015E318101492C03
:100860002E082F3E860000302F3D87000108B00083
:10087000B1013108003A03193E2C492C3008013AE5
:100880000319112C033A0319492C013A0319492C75
:10089000492C2E082F3E860000302F3D8700810115
:1008A000080040013C083D040319572C582C192D11
:1008B0003F08803AC00080304002031D612C0430A4
:1008C0003E020318642C652C192D4001BA017F30BB
:1008D0008B312123843140013C088600870141315E
:1008E0000108031D742C752C012D3C08860087011E
:1008F00042310108031D7D2C7E2CBB2C1C30BA001C
:1009000007308B312123843108304001BA00083090
:100910008B312123843102304001BA007F308B318A
:100920002123843180304001BA0000308B312123F3
:10093000843180304001BA0001308B312123843171
:1009400018304001BA0008308B312123843118302F
:100950004001BA0009308B31212384314001BA01B2
:100960007F308B31212384314001BA0108308B3133
:1009700021238431192D3C0886008701423101036F
:10098000031DC32CC42C192D3C30BA0007308B3109
:100990002123843108304001BA0008308B312123F3
:1009A000843102304001BA007F308B312123843101
:1009B00080304001BA0000308B31212384318030F7
:1009C0004001BA0001308B312123843108304001CD
:1009D000BA0008308B312123843108304001BA003D
:1009E00009308B31212384314001BA017F308B31B2
:1009F000212384314001BA0108308B312123843115
:100A0000192D3C088600870141310103031D092D82
:100A10000A2D192D3E08C0000630C035890B0D2D5A
:100A200040083038C1004108BA0008308B3121231A
:100A30008431080040013008860087014431403F7E
:100A4000B200413FB3003308803AB4008030340232
:100A5000031D2C2D01303202031C2F2D302D3C2D77
:100A600040013008860087014431FF308107413161
:100A7000FF30813D7F31DD2D400130088600310897
:100A800087000103031D452D462DDD2D300886000E
:100A900087014331011C4D2D4E2DB62D30088600A7
:100AA00087014331FE3081053008860087014A31D5
:100AB0003008840085010631003FB200013FB300D9
:100AC000B235B30DB235B30D32083007B400330878
:100AD000313DB5003408840085010E31403F803F30
:100AE000413F813F3008860087014631403FB200D8
:100AF000413FB300B235B30DB235B30D3208300704
:100B0000B4003308313DB5003408860087014E310A
:100B1000300884008501063100088B31902385312F
:100B200001060319942D952DB62D4001300886003D
:100B300087014631403FB200413FB300B235B30DAB
:100B4000B235B30D32083007B4003308313DB5007B
:100B50003408860087014E310108AE003008860057
:100B60008701463101088731CF27853140013008A0
:100B7000860087014331811CBE2DBF2DDD2D30083D
:100B8000860087014331FD308105300886008701EA
:100B9000463104308B319023853101060319D12D64
:100BA000D22DDD2D40013008860087014631010835
:100BB000AE0004308731CF278531080041016D0830
:100BC000453E860000306E3D870016000104031983
:100BD000EA2DEB2DF92D4001C20141016D08453E82
:100BE000860000306E3D8700413F8A00403F0A008A
:100BF000853141016D08453E860000306E3D87001D
:100C0000160001040319052E062E152E4001C201FF
:100C1000C20A41016D08453E860000306E3D8700E6
:100C2000413F8A00403F0A00863141016D08453E40
:100C3000860000306E3D8700160001040319212E46
:100C4000222E312E02304001C20041016D08453E86
:100C5000860000306E3D8700413F8A00403F0A0019
:100C6000863104308B31902385314201A000A101EF
:100C700041016D0886008701463142012008C03FCE
:100C80002108C13F4001C30143088B3190238531C6
:100C90004201A000A101400143084201A200A301BA
:100CA000A235A30DA235A30D220841016D07420113
:100CB000A400230841016E3D4201A50024088600DE
:100CC00087014E312008C03F2108C13F4001430841
:100CD0004201A600A701A635A70DA635A70D260837
:100CE00041016D074201A800270841016E3D420104
:100CF000A90028088600870150312008C03F21083C
:100D0000C13F01304001C30704304302031C892E58
:100D10008A2E442E080040013C083D040319912E00
:100D2000922E302FBA017F308B3121238631400142
:100D30003C088600870142310108031DA02EA12E28
:100D4000E42E1C30BA0007308B3121238631083065
:100D50004001BA0008308B31212386310230400136
:100D6000BA007F308B312123863180304001BA00B8
:100D700000308B312123863180304001BA000130B0
:100D80008B312123863118304001BA0008308B3175
:100D90002123863118304001BA0009308B312123DC
:100DA00086314001BA017F308B31212386314001E9
:100DB000BA0108308B31212386314001BA01043059
:100DC0008B3121238631302F3C0886008701423148
:100DD0000103031DEC2EED2E302F3C30BA000730FE
:100DE0008B312123863108304001BA0008308B3125
:100DF0002123863102304001BA007F308B3121231C
:100E0000863180304001BA0000308B312123863199
:100E100080304001BA0001308B3121238631083007
:100E20004001BA0008308B3121238631083040015F
:100E3000BA0009308B31212386314001BA017F305D
:100E40008B31212386314001BA0108308B312123B7
:100E500086314001BA01BA0A04308B312123863130
:100E6000080042012008860087014831403FA20067
:100E7000413FA3002008860087014631403FA4007F
:100E8000413FA50023082506031D482F22082406FC
:100E900003194B2F4C2FCE2F200886008701483195
:100EA0001600FF3AA2001600FF3AA2040319592FB8
:100EB0005A2F782F2008860087014A3120088400A5
:100EC00085010831003FA200013FA300A235A30D18
:100ED000A235A30D22082007A4002308213DA50068
:100EE0002408840085011031403F803F413F813F0D
:100EF0002008473E86000030213D8700160001048F
:100F00000319832F842F992F2008860087014631EB
:100F1000403F4101ED00413FEE0042012008473EC5
:100F200086000030213D8700413F8A00403F0A0093
:100F30008731420120088600870148311600FF3AB8
:100F4000A2001600FF3AA2040319A72FA82FC22F50
:100F500020088600870141310103031DB02FB12F06
:100F6000C22F20088600870143318114E830A20097
:100F70000330A30020088600870144312208C03FC7
:100F80002308C13F200886008701463120088400DD
:100F900085010831403F803F413F813F08004001CB
:100FA000AF0079019018D52FD62FD12F10174001FF
:100FB0002F0879018C0070308D008F0140012E08C0
:100FC00079018E00400103108B1FE72FE82FE92FD6
:100FD00003148B137901101555309100AA3091003C
:100FE00090149018F42FF52FF12F10114001031CCD
:100FF000FA2FFB2FFC2F8B17080040014408080034
:10151A0008004001C401083008008B31CD238A310C
:10152A0008008D316A258A31080080315F208A31AE
:10153A000800400145354D018C00033008008A310E
:10154A00DB228A31F000700808008A31E2228A31EF
:10155A00F0007008080040012F08FC002E08FB006C
:10156A00080040012F08E1002E08E00008004001B1
:10157A005008AE00D0012E0808004D0111140230A7
:10158A004001D1000800640080010131890BC92A99
:10159A000034FE0012001E00FE0BCF2A0034031492
:1015AA004001450D4D018C00043008004D01111514
:1015BA008B316C238A31003008004D01901290164D
:1015CA004001C4010030080044018F019101053037
:1015DA00930092019401080040012E082F04031978
:1015EA00F72AF82AFC2A2F08FA002E08F900080020
:1015FA0040012E082F040319032B042B082B2F0854
:10160A00D5002E08D400080041010C100B1400303C
:10161A004001AE000030AF008A31B0228B310800A1
:10162A0041016E084001C30041016D084001C2003A
:10163A008E3138268B3108004001BB007030B4006F
:10164A000030B5003B08B6003A08B7008C310724D1
:10165A008B3108004001600861040319352B362BD1
:10166A003B2B61088A0060080A008B3141018C1209
:10167A00080040015E085F040319442B452B4A2BDE
:10168A005F088A005E080A008B3141018D13080049
:10169A0080304D018F0008309000910192014F3047
:1016AA008D004101191799174D0190160800400144
:1016BA00BB007030B7000030B8003B08B9003C30BE
:1016CA00BA008C3154248B3140013C080800400197
:1016DA00C4010030C600FF30C500C701C801CB01F4
:1016EA00CC01D10141010F138F134D019013101337
:1016FA000800F93043019D009C0177309F008D302E
:10170A004001E0000A30E10041018C129616803057
:10171A0043019E0008004001AE0064007901901860
:10172A00972B992B4001922B101740012E08790113
:10173A008C0070308D0010140E080800013046012C
:10174A0090008F01910120308D008C010230400100
:10175A00DE000030DF0041018D139717C0304601CB
:10176A008E0008008A31E9228B318D31EE258B31CA
:10177A008B314D238B318B317E238B318B31A323DC
:10178A008B318B31E9238B318B3109238B31080063
:10179A0006304001D1000330D00041018F134001CF
:1017AA005108F100F201F135F20D5C307107840045
:1017BA001030723D80388500013F8A00003F0A00E0
:1017CA008B314001D100080048304C019200903022
:1017DA0090002630910044308E008F010030400185
:1017EA00AE000030AF008A31F1228B310030400167
:1017FA00AE000030AF008A31FD228B314001D601A4
:10180A00D70108004001B801B9013608B800370805
:10181A00B9003508AF003408AE003830B0000230E5
:10182A00B1000030B2008C312D248C31003A031DF6
:10183A001F2C202C212C2C2C8731FD278C31003A8F
:10184A00031D282C292C212C8A31BC228C3108001A
:10185A004001B3018731FD278C31003A031D362C34
:10186A00372C512C01304001C4002F08C6002E0825
:10187A00C500CF013008C700C8013208CA003108C4
:10188A00C900CB01CC01CD01CE01D0018A31C222DF
:10189A008C3101304001B300400133080800400197
:1018AA003A088600870181013808AF003708AE0080
:1018BA003930B0000130B1000030B2003A08B3004C
:1018CA000130B4000030B5008C31A9248C31003AC3
:1018DA00031D702C712C722C7D2C8731FD278C31C5
:1018EA00003A031D792C7A2C722C8A31BC228C3155
:1018FA000800400149084A040319842C852C982CB5
:10190A000130C9020030CA3B4708860048088700F0
:10191A0001084D018C0001304001C7070030C83D65
:10192A000330F000A72C4F0803199C2C9D2CA32CE4
:10193A00CF014D0191140130F000A72C8A31DB222E
:10194A008C31F000700808004001B6018731FD278C
:10195A008C31003A031DB22CB32CD12C013040013A
:10196A00C4002F08C6002E08C5000130CF00300879
:10197A00C700C8013208CA003108C9003308CB00C1
:10198A00CC013508CE003408CD00D0018A31C222FC
:10199A008C3101304001B600400136080800400190
:1019AA003C083D040319DA2CDB2CFF2CBA017F30EA
:1019BA008B3121238C3140013C0886003D08870089
:1019CA000108031DE92CEA2CF12C2030BA002E3034
:1019DA008B3121238C31FF2C3C0886003D0887007F
:1019EA000103031DF92CFA2CFF2CBA012E308B317E
:1019FA0021238C3108000430F0004D010F1C062D04
:101A0A00072D2F2D40014D084E0403190D2D0E2DC3
:101A1A001E2D4B0886004C0887004D010C088100DA
:101A2A0001304001CB070030CC3D0130CD020030FF
:101A3A00CE3B4D084E040319232D242D282D4D018C
:101A4A0091121116302D4D01911091161116073071
:101A5A00F000302D91157008080040010E0C013974
:101A6A00F2000E080139F3000130F335890B3A2DE3
:101A7A0073087204F80070088600710887007008FD
:101A8A0084007108850000080F39F200F301F2356D
:101A9A00F30DF235F30D3030F4009030F500720892
:101AAA007407F6007308753DF70078087607840016
:101ABA0077080318013E8500000881007008860037
:101ACA007108870001083039080041010F134D01E0
:101ADA000F1E702D712D752D8B316C238D31902D2C
:101AEA008F1A782D792D832D111F7C2D7D2D832D15
:101AFA0005304001D1000130D000902D8F1E862D77
:101B0A00872D902D111F8A2D8B2D902D0530400188
:101B1A00D1000230D00040015108F100F201F13544
:101B2A00F20D5C30710784001030723D80388500F8
:101B3A00013F8A00003F0A008D314001D1000800B0
:101B4A0040012F08860087014C31403FB100413FD8
:101B5A00B2002F08860087014A31403FB300413F57
:101B6A00B40032083406031DBC2D310833060319AC
:101B7A00BF2DC02DED2D2F08860087014A3101089F
:101B8A003F39B5002F08493E86000030303D8700B6
:101B9A00160001040319D22DD32DE02D3508AE000D
:101BAA002F08493E86000030303D8700413F8A00B9
:101BBA00403F0A008D3140012F08860087014A31D3
:101BCA002F08840085010C31403F803F413F813F0F
:101BDA0008004001980180309900C0309A009C01A9
:101BEA001030920040309300EF3094000830960095
:101BFA007D018C0196012030A0008D0197010F30E4
:101C0A00A100B5018E019801A201FF308F00FF30BB
:101C1A009900FF30A300FF309000FF309A00FF3098
:101C2A00A4000830B8000E307C01C1000E307B01E0
:101C3A009B0016307C01C70015307B01A2001730CB
:101C4A007C01C80016307B01A3007D01910192013D
:101C5A0093019B019C019D01A501A601A701B90160
:101C6A00BA01BB0108007D0803193C2E3D2E822EC5
:101C7A0040014308803A4101EB0080306B02031DAA
:101C8A00492E04304001420203184C2E4D2E822E5A
:101C9A004001BA017F308B3121238E314001420845
:101CAA0008384101EC006C084001BA000D308B3154
:101CBA0021238E3118304001BA000E308B31212396
:101CCA008E312D308B315C238E314101EC006C0852
:101CDA00FC390238EC006C084001BA002D308B3117
:101CEA0021238E317D084001BC00BD014308BF009D
:101CFA004208BE00843151248E3108000034023477
:101D0A0002340034FF34FF34FF34FF34FF34FF342D
:101D1A00FF34FF34FF34FF343F340034FF34FF34E0
:101D2A003F340034FF34FF343F340034FF34FF348F
:101D3A003F340034FF34FF340134003400340034BB
:101D4A0000340034003400340034003400340034E9
:101D5A0000340034003400340034003400340034D9
:101D6A0000340034003400340034003400340034C9
:101D7A0000340034003400340034003400340034B9
:101D8A0000340034003488340F3415340B340334EF
:101D9A0000348B31B7238E310B304201AB00263031
:101DAA00AA005D30890BD72EAA0BD72EAB0BD72EE4
:101DBA0000328F311F278E319A304001AE000A302F
:101DCA00AF008A31B6228E318B170B17A030410132
:101DDA00ED000030EE008531DE258E31A030420163
:101DEA00A0000030A100873131278E31A030400198
:101DFA00AF000030B0008D31A5258E31A0304001F2
:101E0A00AE000030AF0083316A238E31A03040012A
:101E1A00B0000030B10085311A258E310B304201F5
:101E2A00AA006230890B172FAA0B172F0000F32E76
:101E3A008031402840011A160E19242F252F872F8A
:101E4A00322F05304001B1000F30B000F130890B5C
:101E5A002C2FB00B2C2FB10B2C2F40010E1D362F1F
:101E6A00372F262FB201B30140011A120B3040015D
:101E7A00B1002630B0005D30890B412FB00B412FE5
:101E8A00B10B412F003240011A160B304001B1004C
:101E9A002630B0005D30890B502FB00B502FB10B9C
:101EAA00502F003201304001B2070030B33D3308F1
:101EBA00803AB00080303002031D652F0A303202AA
:101ECA00031C682F692F392F4001AE01003087317A
:101EDA00CF278F314001AE0101308731CF278F31B3
:101EEA004001AE0102308731CF278F314001AE0168
:101EFA0003308731CF278F314001AE01043087315B
:101F0A00CF278F310800EA2F40019816153041017A
:101F1A00EC004B30EB00BE30890B912FEB0B912F6D
:101F2A00EC0B912F0000400198121817153041014F
:101F3A00EC004B30EB00BE30890BA12FEB0BA12F2D
:101F4A00EC0BA12F0000400118139817153041011E
:101F5A00EC004B30EB00BE30890BB12FEB0BB12FED
:101F6A00EC0BB12F000040019813FF2F05304101FF
:101F7A00EC000F30EB00F130890BC12FEB0BC12FB6
:101F8A00EC0BC12F4001991205304101EC000F30D2
:101F9A00EB00F130890BCF2FEB0BCF2FEC0BCF2FB0
:101FAA004001991668304101EB00E430890BDB2FC0
:101FBA00EB0BDB2F0000FF2F5A304001BE00003030
:101FCA00BF0082315D228F31FF2F4001420841015B
:101FDA00EB00EC016C08003A0319F42FFF2F6B0891
:101FEA00003A0319892F013A0319BB2F033A03193F
:101FFA00E12FFF2F0800E9340B3400340034003499
:10200A000034003400340034003400340034003426
:10201A000034003400340034003400340034003416
:10202A000034003400340034003400340034003406
:10203A0000340034003400340034003400340034F6
:10204A00003400340034F1340A34FD340A340034E4
:10205A0000340034003403340234013400342334AD
:10206A0000340134003413340234003400340334AD
:10207A000534043400340334033404341034033490
:10208A000534033420344D340B34003400342D34F9
:10209A000C3400340034A9340C3400340034BC3419
:1020AA000A34FD34073400340034003400348E34EA
:1020BA000A34D4340A349E340A347E340C3400345C
:1020CA000D34A4340A34AA340A34DB340A34E23430
:0220DA000A34C6
:020000040001F9
:04000E008C3FE73FFD
:04001400FF3FFF3F6C
:10E0000000000000000000000000FF00FF00FF0013
:00000001FF
