:0400000080313D28E6
:100008007E1480314101161E0A280B2813280C1E65
:100018000E280F28132886311E2680313B280B1FF7
:10002800162817283B28991F1A281B2823288F1FB2
:100038001E281F2823288531E62580313B28191FD3
:10004800262827282F280F1F2A282B282F288531D4
:10005800E22580313B28961E322833283B288C1E07
:10006800362837283B288531322580313B287E10B9
:10007800090080313F28A630840085308500503043
:1000880086000030870006308531AC2580317B3012
:10009800840083308500A03086000030870034302B
:1000A8008531AC258031F601F701F801F9013C30C2
:1000B80084000030850014308531B22580317E10EF
:1000C80040018231752A4001B000B1013008CF00EB
:1000D800AC0100308531162580314001AC0101307A
:1000E80085311625803140304001AC000230853121
:1000F800162580314001AC01033085311625803149
:10010800C5304001AC000530853116258031952871
:100118003030AE002E08B104BF28B116BF28311602
:10012800BF2840014F0A860087010108AE00AF01D1
:100138002F08003A0319A128BF282E08003A0319EE
:10014800AF28013A03199328033A03199128013A71
:1001580003198C28BF28BF28C030AE002E08B10470
:10016800D528C830AE002E08B104D528C530AE0059
:100178002E08B104D5284F08860087010108AE0073
:10018800AF012F08003A0319CA28BA282E08003AE6
:100198000319B028013A0319B528033A0319BA28F4
:1001A800BA283108AC0005308531162580317F30FA
:1001B8004001AC0006308531162580318030400181
:1001C800AC00043085311625803108004001B800A4
:1001D800981618179817503082312122803105302F
:1001E8004001B3000F30B200F130890BF928B20B8F
:1001F800F928B30BF9284001991205304001B300E2
:100208000F30B200F130890B0729B20B0729B30B65
:1002180007294001991668304001B200E430890B83
:100228001329B20B13290000543080316720803124
:1002380050308131C8218031043085310725803123
:100248004001B200B301380A860087013208C03F76
:100258003308C13FB901390885310725803140018C
:10026800B200B3013908B4000130B435FF3E031DB4
:10027800392934353807B50035080B3E8600870123
:100288003208C03F3308C13F3908B6000130B635DF
:10029800FF3E031D4B2936353807B70037080D3E9A
:1002A800860087013208C03F3308C13F0130B200E1
:1002B8003208B90704303902031C632964292F293D
:1002C800080040010E1969296A29C72977290530CC
:1002D8004001A1000F30A000F130890B7129A00B5B
:1002E8007129A10B712940010E1D7B297C296B29DD
:1002F800A201A301400112170B304001A1002630D2
:10030800A0005D30890B8629A00B8629A10B8629C0
:100318000032400112130B304001A1002630A0002A
:100328005D30890B9529A00B9529A10B95290032E1
:1003380001304001A2070030A33D2308803AA00005
:1003480080302002031DAA290A302202031CAD298D
:10035800AE297E29F40100308331DB238131F40199
:1003680001308331DB238131F40102308331DB2317
:100378008131F40103308331DB238131F40104300E
:100388008331DB23813108004001B0003008CE0002
:10039800AC01AC0A00308531242581311030400190
:1003A800B100DF29B117012A3117012AC030AE0088
:1003B8002E08B104012A4E0A860087010108AE0002
:1003C800AF012F08003A0319EA29012A2E08003A3A
:1003D8000319012A013A0319D629033A0319D8291E
:1003E800013A0319DA29012A31141A2AB1141A2AEE
:1003F8000330AE002E08B1041A2A4E088600870181
:100408000108AE00AF012F08003A03190C2A1A2A76
:100418002E08003A03191A2A013A0319F829033A4F
:100428000319FA29013A0319FC291A2A3108AC00E0
:10043800013085312425813108004001A000302A8F
:10044800181098104A2A181098144A2A1814981440
:100458004A2A181498104A2A2008033E8600870161
:100468000108F400F5017508003A03193C2A2D2A01
:100478007408003A0319242A013A03192D2A033A69
:100488000319272A013A03192A2A2D2A181598111F
:1004980019165D2A1914991019159915742A191025
:1004A800991019119911742A19149910191599117B
:1004B800742A2008023E860087010108F400F5012D
:1004C8007508003A0319692A582A7408003A03196A
:1004D800532A013A0319582A033A03194E2A582A6B
:1004E80008008431F72482310B304001BB002630EC
:1004F800BA005D30890B7E2ABA0B7E2ABB0B7E2A96
:1005080000328131652182314030F4000530F50038
:100518008531CA2582318B170B1786310526823122
:10052800A0308031EA20823115304001BB004B30C9
:10053800BA00BE30890B9E2ABA0B9E2ABB0B9E2A94
:10054800000003104001181F03140318AC2AAF2A37
:1005580040011817B12A400118130C1AB42AB52AF9
:10056800B72A9816982A9812982A80313D2840016F
:1005780098019901C0309A009C0110309200C03057
:100588009300FF309400083096007D018C01C03044
:1005980096003830A0008D0197010730A100B50101
:1005A8008E019801A201FF308F00FF309900FF30C3
:1005B800A300FF309000FF309A00FF30A4000830FD
:1005C800B80016307C01C70015307B01A200173037
:1005D8007C01C80016307B01A3007D0191019201C6
:1005E80093019B019C019D01A501A601A701B901E9
:1005F800BA01BB0108008631172682318531912561
:100608008231003A0319092B0A2B182B8531B8259A
:100618008231003A0319112B122B182B0530400197
:10062800C7000130C6002D2B8531D4258231003A10
:1006380003191F2B202B2D2B8531B8258231003A29
:100648000319272B282B2D2B05304001C70002301A
:10065800C60040014708F200F301F235F30DD5302A
:10066800720784000430733D80388500013F8A009A
:10067800003F0A0083314001C70008000430F10040
:100688008531F2258331003A03194B2B4C2B762BFD
:100698004001430844040319522B532B632B42088F
:1006A8008600870186311126833181000130F000F0
:1006B80070084001C2070130C3020030C43B430840
:1006C80044040319682B692B6D2B8531F62583317A
:1006D800792B86310B2683318531EE25833107301E
:1006E800F100792B86310E26833171080800003419
:1006F800FF34FF34FF34FF34FF34FF34FF34FF345A
:10070800FF34FF3400340034FF34FF340034003445
:10071800FF34FF3400340034FF34FF340034003435
:10072800FF34FF3401340034003400340034003422
:100738000034003400340034003400340034003411
:100748000034003400340034003400340034003401
:100758000034003400344001400841040319B52B2B
:10076800B62BC92B0130C0020030C13B03303C3EE0
:1007780086008701403F84008501810A0008853191
:10078800D92583310330F100D92B45080319CD2B26
:10079800CE2BD52BC501863108268331F101F10A0C
:1007A800D92B85317A258331F10071080800F500CD
:1007B80079019018E02BE12BDC2B101775088C00C1
:1007C80070308D008F0174088E00400103108B1F5C
:1007D800EE2BEF2BF02B03148B13790110155530EA
:1007E8009100AA30910090149018FB2BFC2BF82B49
:1007F80010114001031C012C022C032C8B1708003C
:100808004001AA01AB012708AA002808AB00260866
:10081800A1002508A0002A30A2000230A300003061
:10082800A4008431282484314001A900290803192F
:100838001E2C1F2C272C8431E7248431003A031DF9
:10084800262C272C1F2C0800F5018431E72484313D
:10085800003A031D302C312C482C01304001BC00DB
:100868002108BE002008BD00C5012208BF002408D9
:10087800C1002308C000C201C301C401C6018531FB
:100888008A258431F501F50A75080800063040010B
:10089800C7000330C60086311A2684314001470854
:1008A800F200F301F235F30DD530720784000430FD
:1008B800733D80388500013F8A00003F0A0084317B
:1008C8004001C7004D088A004C080A00843108001E
:1008D8000334023401340034233400340134003446
:1008E800133402340034003403340534043400343F
:1008F800033403340434103403340534033420340B
:1009080080304D018F0008309000910192014F30E6
:100918008D008531DE2584311F30F4000630F50066
:100928008531592584314D019016080084340434EA
:1009380000340034283404340034003400340034E3
:100948000034003400340034E734043459340534B6
:1009580000340034F93043019D009C0177309F003A
:100968001D30F4000630F5008531CA258431410177
:100978008C129616803043019E0008004001BC018D
:100988000030BE00FF30BD00BF01C201C701863183
:100998001726843186311A2684318531FA25843127
:1009A8000800EA340534823405349F340534AF3402
:1009B800033442340334C4340534BE3405347A3441
:1009C800053498340534F401F40A40013C08031D49
:1009D800EE2CEF2CF52C4D018F19F32CF42CF52C63
:1009E800F401740808008531702584318231BB22F6
:1009F80084318431842484318431AE248431853136
:100A0800652584310800F4006400790190180D2DE3
:100A18000E2D082D101774088C0070308D001014DE
:100A28000E0808004001AD001030A5000030A600F7
:100A38002D08A7002C08A80084310424853108005B
:100A48004001AD001130A5000030A6002D08A70018
:100A58002C08A800843104248531080041018C1237
:100A6800760877040319392D3A2D3F2D77088A0027
:100A780076080A008531080003104001981F031406
:100A88000318472D4A2D400198174C2D4001981303
:100A98000800AE340434053406340034003400341D
:100AA8000034CA340534003400347408750403195A
:100AB8005E2D5F2D642D75084001CD007408CC00B3
:100AC800080041010C100B140030F4000030F50050
:100AD8008531CF258531080044018E018F019101B0
:100AE8000530930090019201940108008631142684
:100AF80085318431C2248531003008000314400157
:100B08003D0D8531D925853104300800863102260E
:100B1800853102304001C700080003104D018F1EC7
:100B280003140030093D08008531FE258531400158
:100B3800BC010030080040013D358531D92585319B
:100B4800033008000334033402340234023400341E
:100B5800FE0012001E00FE0BAD2D00346400800163
:100B68000131890BB32D00344D01110E890C890C0C
:100B780001390800853198258531F0007008080092
:100B880085317A258531F000700808007508F7006E
:100B98007408F60008007508F9007408F8000800E1
:100BA8004D010F0E890C01390800F00070084D0145
:100BB8008C00080041011917991708008231FF229B
:100BC8008531080084314A24853108004001BC0180
:100BD800083008004D019116111608004D010F0844
:100BE800013908004D019112111608004D019013AA
:100BF800101308004D019012901608004D011114B1
:100C0800080043019E1708004D01911408004D018A
:100C1800911008004D01911508004D010C080800BD
:100C28004D011115080041010F13080041018F13F0
:080C3800080008000800080094
:020000040001F9
:04000E008C3FE73FFD
:04001400FF3FFF3F6C
:10E0000000000000000000000000FF00FF00FF0013
:00000001FF
