:1000000080313D28080008007E1480314101161E11
:100010000A280B2813280C1E0E280F2813288031BD
:10002000032080313B280B1F162817283B28991FD7
:100030001A281B2823288F1F1E281F2823288D31AC
:10004000FB2580313B28191F262827282F280F1F22
:100050002A282B282F288D31FF2580313B28961EFA
:10006000322833283B288C1E362837283B288E31EF
:10007000BB2680313B287E10090080313F283F306D
:1000800084008E3085005A308600003087000630AC
:100090008E31392680310030840087308500A030D1
:1000A00086000030870034308E3139268031FC01E3
:1000B000FD01443084000030850016308E31332637
:1000C00080317E1040018631872EC1308731342740
:1000D00080314001A500250803196F287028782970
:1000E00041013C084001250603197728782880281B
:1000F00041013B35BD3E860087010030C03FC13F16
:10010000400125084101BC00103040012506031DB7
:100110008A288B28962841013B35BD3E8600870101
:100120000130810741310318810AA72820302506B4
:10013000031D9B289C28A72841013B35BD3E860016
:100140008701FF3081074131FF30813D7F3141011F
:100150003B08031DAC28AD280D2926084001A2004C
:10016000410125084001A10041013B35BD3E86000B
:100170008701403FF900413FFA007A08803AFB00CE
:1001800080307B02031DC62801307902031CC92878
:10019000CA28D828FF304001A107FF30A23D410105
:1001A0003B35BD3E860087010030C03FC13FE82897
:1001B00041013B35BD3E860087014131811FE12869
:1001C000E228E82801304001A1070030A23DCF28F5
:1001D00040012208803AF90081307902031DF2289B
:1001E00000302102031CF528F628FC2800304101CC
:1001F000A600FF30A50078294001A21F002901298F
:1002000005294101A501A601782922084101A6007E
:10021000400121084101A500782922084001A400DD
:10022000410121084001A30041013B35BD3E86004C
:100230008701403FF900413FFA007A08803AFB000D
:1002400080307B02031D262903307902031C2929F3
:100250002A29382901304001A3070030A43D41017B
:100260003B35BD3E860087010030C03FC13F542969
:1002700041013B35BD3E86008701403FF900413FCB
:10028000FA007A08803AFB007F307B02031D4A297E
:10029000FE30790203184D294E295429FF304001C0
:1002A000A307FF30A43D2F2940012408803AF9001C
:1002B00080307902031D5E2904302302031C61296A
:1002C000622966294101A101A20178294001A41FE8
:1002D0006A296B29712900304101A2000330A10075
:1002E000782924084101A200400123084101A1000E
:1002F00041014603470403197E297F29B5290030AF
:1003000040010E190130A0002008031D8829892909
:100310009F291430F0000030F10001304101C20784
:100320000030C33D4308F3004208F2008431F42456
:10033000803171084101C5007008C400B529410130
:100340004508803AF90080307902031DA92901305F
:100350004402031CAC29AD29B22900304101C70079
:100360000130C6004101C201C30108004001A900DB
:100370002908860087010103031DBF29C0292D2AF2
:100380002908263E86008701160001040319C929A1
:10039000CA29142A2908243E86008701403FA60066
:1003A000413FA7002708803AA80080302802031D9B
:1003B000DB2996302602031CDE29DF29052A4001AD
:1003C0002908053E86008701290A84008501000866
:1003D000A6000130A635FF3E031DEA292635290770
:1003E000A70027080B3E84008501403F803F413F26
:1003F000813FE830A6000330A7002908093E8600A7
:1004000087012608C03F2708C13F40012908263E32
:10041000860087010030C03FC13F2908243E860086
:1004200087010030C03FC13F2908323E8600870166
:100430001600010403191D2A1E2AAA2A2908263E8D
:10044000860087010030C03FC13F2908243E860056
:1004500087010030C03FC13FAA2A2908263E8600F6
:100460008701160001040319362A372AAA2A290807
:10047000243E86008701403FA600413FA700270891
:10048000803AA80080302802031D482A96302602B0
:10049000031C4B2A4C2A732A40012908053E86007A
:1004A0008701290A840085010008A6000130A635CD
:1004B000FF3E031D572A26352907A70027080B3EB4
:1004C00084008501403F803F413F813FE830A600E6
:1004D0000330A7002908093E860087012608C03F8F
:1004E0002708C13F9C2A400129081B3E860087013E
:1004F0000108031D7C2A7D2A842A29081B3E8600C8
:10050000870101308100892A29081B3E8600870166
:10051000810129081C3E86008701810129081B3EB4
:100520008600870101352907A60026081D3E8600A2
:1005300087010030C03FC13F2908263E8600870161
:100540000030C03FC13F2908243E860087010030AB
:10055000C03FC13F08004001B800B9013808D900C8
:10056000B40100308E31AD2682314001B40101303A
:100570008E31AD26823140304001B40002308E31E0
:10058000AD2682314001B40103308E31AD26823177
:10059000C5304001B40005308E31AD268231D92AF4
:1005A0003030B6003608B904032BB916032B3916C0
:1005B000032B4001590A860087010108B600B701E4
:1005C0003708003A0319E52A032B3608003A0319C5
:1005D000F32A013A0319D72A033A0319D52A013A13
:1005E0000319D02A032B032BC030B6003608B904F8
:1005F000192BC830B6003608B904192BC530B6001F
:100600003608B904192B5908860087010108B6007D
:10061000B7013708003A03190E2BFE2A3608003AB4
:100620000319F42A013A0319F92A033A0319FE2A95
:10063000FE2A3908B40005308E31AD2682317F3074
:100640004001B40006308E31AD2682318030400149
:10065000B40004308E31AD26823108004001AA007A
:100660002A08093E860087011600FF3AA8001600F6
:10067000FF3AA80403193D2B3E2BA92B2A08093E5B
:1006800086008701FF3081074131FF30813D7F3196
:1006900016000104031D4D2B4E2BA92B2A0A8600A0
:1006A000870104308E31FF26833101060319592B4F
:1006B0005A2B642B40012A0886008701413FA6007F
:1006C000043087316527833140012A0A860087017B
:1006D0000108A8000130A835FF3E031D6B2B28350B
:1006E0002A07A90029080B3E860087012A0A8400F0
:1006F000850100088E31FF26833101060319812B05
:10070000822B9C2B40012A0A860087010108A80041
:100710000130A835FF3E031D892B28352A07A90083
:100720002908860087014B3FA6002A0A8600870118
:100730000108873165278331FF304001A800FF3071
:10074000A9002A08093E860087012808C03F290819
:10075000C13F08004001C0009816181798175A307A
:100760008531AC25833105304001BB000F30BA0024
:10077000F130890BB92BBA0BB92BBB0BB92B40014C
:10078000991205304001BB000F30BA00F130890BDF
:10079000C72BBA0BC72BBB0BC72B40019916683070
:1007A0004001BA00E430890BD32BBA0BD32B0000E5
:1007B0005E308231AB2283315A308531532583310B
:1007C00004308E31FF2683314001BA00BB01400A5C
:1007D000860087013A08C03F3B08C13FC10141087C
:1007E0008E31FF2683314001BA00BB014108BC00B5
:1007F0000130BC35FF3E031DF92B3C354007BD00E1
:100800003D080B3E860087013A08C03F3B08C13FC8
:100810004108BE000130BE35FF3E031D0B2C3E35A6
:100820004007BF003F080D3E860087013A08C03FE1
:100830003B08C13F0130BA003A08C1070430410209
:10084000031C232C242CEF2B080040010E19292C0B
:100850002A2C8C2C372C05304001A9000F30A80021
:10086000F130890B312CA80B312CA90B312C400114
:100870000E1D3B2C3C2C2B2CAA01AB014001121766
:100880000B304001A9002630A8005D30890B462CB2
:10089000A80B462CA90B462C0032400112130B303A
:1008A0004001A9002630A8005D30890B552CA80B0B
:1008B000552CA90B552C003201304001AA070030FD
:1008C000AB3D2B08803AA80080302802031D6A2C1B
:1008D0000A302A02031C6D2C6E2C3E2C4001A6010E
:1008E00000308731652784314001A601013087310E
:1008F000652784314001A6010230873165278431A4
:100900004001A60103308731652784314001A601EB
:10091000043087316527843108004001C000400859
:10092000033E86008701403FBC00413FBD00400AB6
:1009300086008701403FBE00413FBF003D083F06A3
:10094000031DA42C3C083E060319A72CA82CF32C4D
:100950004008033E860087011600FF3ABC001600DF
:10096000FF3ABC040319B52CB62CD02C4008053E28
:10097000860087014008033E840085010008BC0012
:100980000130BC35FF3E031DC12C3C354007BD0086
:100990003D080D3E84008501403F803F413F813F3F
:1009A000400A86008701403FB600413FB7005E30F5
:1009B0008F31272784314001400A86008701400893
:1009C000033E84008501403F803F413F813FE83046
:1009D000BC000330BD004008093E860087013C088A
:1009E000C03F3D08C13F0800F601F11FF82CF92C6B
:1009F000002DF009F109F00A0319F10AF601F60ACF
:100A0000F31F032D042D0D2DF209F309F20A03192A
:100A1000F30A0130F4007408F606F701F8017008D3
:100A200071040319142D152D442DF501F50A212DFE
:100A30000130F035F10D890B192D0130F4007408E7
:100A4000F507F11F242D252D182D0130F735F80D50
:100A5000890B262D71087302031D302D7008720258
:100A6000031C332D342D392D7008F2027108F33B2D
:100A700077140130F136F00C890B3A2D0130F50274
:100A8000031D432D442D252D76080319482D492D8E
:100A90004E2DF709F809F70A0319F80A7808F1004A
:100AA0007708F00008004001B8003808D800B40109
:100AB000B40A00308E319F26853110304001B900D4
:100AC0006A2DB9178C2D39178C2DC030B600360819
:100AD000B9048C2D580A860087010108B600B701B9
:100AE0003708003A0319752D8C2D3608003A031982
:100AF0008C2D013A0319612D033A0319632D013A34
:100B00000319652D8C2D3914A52DB914A52D03308D
:100B1000B6003608B904A52D5808860087010108DB
:100B2000B600B7013708003A0319972DA52D3608EE
:100B3000003A0319A52D013A0319832D033A03192D
:100B4000852D013A0319872DA52D3908B4000130F0
:100B50008E319F26853108004001A800BB2D18105A
:100B60009810D52D18109814D52D18149814D52D2B
:100B700018149810D52D2808033E86008701010817
:100B8000A600A7012708003A0319C72DB82D26088B
:100B9000003A0319AF2D013A0319B82D033A03198E
:100BA000B22D013A0319B52DB82D18159811191643
:100BB000E82D1914991019159915FF2D1910991070
:100BC00019119911FF2D1914991019159911FF2D4B
:100BD0002808023E860087010108A600A701270811
:100BE000003A0319F42DE32D2608003A0319DE2DEF
:100BF000013A0319E32D033A0319D92DE32D080017
:100C0000400198019901C0309A009C011030920077
:100C1000C0309300FF309400083096007D018C01B5
:100C2000C03096003830A0008D0197010730A10038
:100C3000B5018E019801A201FF308F00FF309900AD
:100C4000FF30A300FF309000FF309A00FF30A40077
:100C50000830B80016307C01C70015307B01A200B7
:100C600017307C01C80016307B01A3007D01910183
:100C7000920193019B019C019D01A501A601A70181
:100C8000B901BA01BB0108008D31CB2586318E3107
:100C900053268631003A03194E2E4F2E5D2E8E318B
:100CA00021268631003A0319562E572E5D2E053027
:100CB0004001CF000130CE00722E8E3110268631D9
:100CC000003A0319642E652E722E8E31212686314C
:100CD000003A03196C2E6D2E722E05304001CF00A4
:100CE0000230CE0040014F08F200F301F235F30D5F
:100CF0002C30720784001030733D80388500013F2E
:100D00008A00003F0A0086314001CF0008008E3182
:100D1000CA2686310B304001C3002630C2005D3048
:100D2000890B902EC20B902EC30B902E0032843173
:100D30002524863103304001A6000E30A7008E31F5
:100D40002D2686318B170B178D31DD258631A0308E
:100D50008331AA238631A03084318D248631A0309E
:100D60008F31D7278631A0308131B6218631A0302E
:100D700083312E2386310B304001C2006230890B53
:100D8000BF2EC20BBF2E0000AB2E80313D28043099
:100D9000F1008D31EF258631003A0319D02ED12E86
:100DA000FB2E40014B084C040319D72ED82EE82EF9
:100DB0004A08860087018D31D125863181000130B6
:100DC000F00070084001CA070130CB020030CC3B74
:100DD0004B084C040319ED2EEE2EF22E8D31EB252F
:100DE0008631FE2E8D31D72586318D31F325863122
:100DF0000730F100FE2E8D31D425863171080800B0
:100E00000034FF34FF34FF34FF34FF34FF34FF3449
:100E1000FF34FF34FF3400340034FF34FF34003437
:100E20000034FF34FF3400340034FF34FF34003426
:100E30000034FF34FF340134003400340034003413
:100E40000034003400340034003400340034003402
:100E500000340034003400340034003400340034F2
:100E60000034003400340034F70040010E0C013926
:100E7000F0000E08013909077004F60077088600B3
:100E8000870177088400850100080F39F000F1011F
:100E9000F035F10DF035F10D0030F2009030F30037
:100EA00070087207F4007108733DF5007608740746
:100EB000840075080318750A85000008810077080A
:100EC000860087010108303908004001A700790138
:100ED00090186B2F6C2F672F10174001270879018E
:100EE0008C0070308D008F014001260879018E0042
:100EF000400103108B1F7D2F7E2F7F2F03148B1338
:100F00007901101555309100AA3091009014901875
:100F10008A2F8B2F872F10114001031C902F912FA8
:100F2000922F8B1708004001480849040319992F94
:100F30009A2FAD2F0130C8020030C93B0330443E28
:100F400086008701403F84008501810A00088E31B8
:100F50000B2687310330F100BD2F4D080319B12F47
:100F6000B22FB92FCD018D31DA258731F101F10A88
:100F7000BD2F8E3169268731F100710808004001CC
:100F8000AF018E31DA268731003A031DC82FC92FF1
:100F9000E52F01304001C4002808C6002708C5001D
:100FA0000130CD002908C7002B08C9002A08C80055
:100FB0002C08CA002E08CC002D08CB00CE018E31A3
:100FC0005A2687314001AF01AF0A40012F080800BF
:100FD00080304D018F0008309000910192014F3018
:100FE0008D008E310726873102304001A600003087
:100FF000A7008E317B2687314D019016080008002E
:101B900041018F13080041010F1308004D01111579
:101BA00008004D010C0808004D01911508004D0179
:101BB000911008004D019114080043019E17080080
:101BC0004D01111408004D019012901608004D01AE
:101BD0009013101308004D019112111608004D01C9
:101BE0000F08013908004D01911611160800400137
:101BF000C401083008008F3144278D310800863138
:101C000044268D310800803165208E310800410165
:101C1000191799170800F00070084D018C00080092
:101C20004D010F0E890C013908008E3169268E3165
:101C3000F000700808008E314C268E31F0007008DC
:101C400008004D01110E890C890C01390800400172
:101C50002708D7002608D600080040012708D5002D
:101C60002608D4000800640080010131890B342E5D
:101C70000034FE0012001E00FE0B3A2E0034033426
:101C800002340234023402340034400145358E31CE
:101C90000B268E31033008008D31E3258E31400153
:101CA000C4010030080003104D018F1E03140030E2
:101CB000093D08008D31E0258E3102304001CF0012
:101CC000080003144001450D8E310B268E3104307F
:101CD00008008D31CE258E318E31EC268E310030CC
:101CE000080044018E018F0191010530930090019D
:101CF0009201940108004001260827040319812E4F
:101D0000822E862E2708FD002608FC0008004101CF
:101D10000C100B1400304001A6000030A7008E31DB
:101D200027268E3108004001B5001030B000003089
:101D3000B1003508B2008F31AF278E310800400165
:101D4000B5001130AD000030AE003508AF003408EA
:101D5000B0008F3166278E3108004001B500103089
:101D6000AD000030AE003508AF003408B0008F3150
:101D700066278E31080041018C1240015408550439
:101D80000319C32EC42EC92E55088A0054080A0010
:101D90008E3108008E3171268E31863100268E31CB
:101DA0008731E8278E318F3112278E318E31872689
:101DB0008E3108004001A601A60A4408031DE12E49
:101DC000E22EE92E4D018F19E62EE72EE92E400175
:101DD000A6014001260808004001C4010030C600E9
:101DE000FF30C500C701CA01CF018D31CB258E312F
:101DF0008D31C8258E318D31E7258E3108004001A7
:101E0000A600640079019018062F082F4001012FC9
:101E100010174001260879018C0070308D001014D5
:101E20000E080800F93043019D009C0177309F00A7
:101E3000FF304001A6000730A7008E312D268F31DC
:101E400041018C129616803043019E000800043038
:101E50008E3193268F314001BB00C730B80038085F
:101E6000BB0536080739B8000230B835FF3E031D00
:101E7000352F3835B9003908BB043B08B4000430AD
:101E80008E31AD268F31080006304001CF0003307F
:101E9000CE008D31C8258F3140014F08F200F3018B
:101EA000F235F30D2C30720784001030733D80380A
:101EB0008500013F8A00003F0A008F314001CF00BA
:101EC0007D088A007C080A008F3108004001B201B9
:101ED000B3012F08B2003008B3002E08A8002D0867
:101EE000A7003230A9000230AA000030AB008F31C9
:101EF0008A278F314001B10031080319802F812FCB
:101F0000892F8E31DA268F31003A031D882F892FD1
:101F1000812F08004001AC018E31DA268F31003A62
:101F2000031D932F942FAC2F01304001C4002808CB
:101F3000C6002708C500CD012908C7002B08C90025
:101F40002A08C800CA01CB01CC01CE018E315A2625
:101F50008F314001AC01AC0A40012C08080040015F
:101F60003108A8003008A7003230A9000130AA00CB
:101F70000030AB003430AC000130AD000030AE00BA
:101F80008731BF278F314001B30033080319C92FB0
:101F9000CA2FD52F8E31DA268F31003A031DD12F6B
:101FA000D22FCA2F40013408D62F0030080040013C
:101FB000AA002A08073E86008701403FA600413F4D
:101FC000A7002A08053E86008701403FA800413F40
:101FD000A90027082906031DEF2F26082806031944
:101FE000F22FF32FFF2F2A08053E860087012A08CB
:101FF000073E84008501403F803F413F813F08000C
:102000000334023401340034233400340134003406
:1020100013340234003400340334053404340034FF
:1020200003340334043410340334053403342034CB
:10203000E8340734003400348A340F340034003478
:10204000BF3407340034003400340034DA340E3442
:102050007B340E3400340034F7340D3461340E34E4
:1020600045340E3493340734C734063415340E34F3
:102070001B340E3469340E344C340E3412340F34A5
:10208000DD340D3400340034003400342D340E348B
:0420900000340034E4
:020000040001F9
:04000E008C3FE73FFD
:04001400FF3FFF3F6C
:10E0000000000000000000000000FF00FF00FF0013
:00000001FF
