:0400000080313128F2
:100008007E1480314101161E0A280B2812280C1E66
:100018000E280F2812288431D02480310B1F152870
:1000280016282F284101991F1A281B2823288F1FBB
:100038001E281F2823288631512680312F28191F72
:10004800262827282F280F1F2A282B282F288631D3
:100058004D2680312F287E10090080313328183032
:1000680084008530850020308600003087001630F7
:10007800863109268031FC01FD01363084000030CC
:1000880085000E3086310F2680317E104001833185
:10009800E22B40010E0C0139F0000E080139090766
:1000A8007004F70028082E3E8600870128082E3E97
:1000B800840085010008F0000130F035FF3E031D83
:1000C80061287035770481002908031D6C286D2884
:1000D800972828082E3E8600870101080F397A3EA6
:1000E800840085300318013E85001200FF3A031D85
:1000F8007E287F2882280130A900D92828082E3E8A
:100108008600870101080F397A3E8400853003187C
:10011800013E85001200013A031D93289428D9282E
:100128000230A900D9282903031D9B289C28BE2832
:1001380028082E3E8600870101080F397A3E840080
:1001480085300318013E85001200013A031DAD28D1
:10015800AE28BE280230A9002835303E8600870127
:100168000030C03FC13F28082E3E8600870177082F
:100178008100D92802302906031DC328C428D9289C
:1001880028082E3E8600870101080F397A3E840030
:1001980085300318013E85001200FF3A031DD5285B
:1001A800D628D9280130A900B02828082E3E860074
:1001B800870101080F397A3E840085300318013E13
:1001C80085000008F000F101F01BF1032835303EEE
:1001D800860087017008810741317108813D7F31B0
:1001E8002808031DF828F9285B292508F4002408A5
:1001F800F3002835303E86008701403FF000413F3C
:10020800F1007108803AF20080307202031D0E2955
:1002180002307002031C112912291F29FF30F3072D
:10022800FF30F43D40012835303E8600870100301C
:10023800C03FC13F3A2940012835303E860087013A
:10024800403FF000413FF1007108803AF2007F30F2
:100258007202031D3129FF30700203183429352931
:100268003A290130F3070030F43D16297408803A22
:10027800F00081307002031D432900307302031C13
:10028800462947294D2900304001A500FF30A40028
:10029800BC29F41F5029512955294001A401A50161
:1002A800BC2974084001A5007308A400BC292108D2
:1002B800F6002008F5002835303E86008701403FCB
:1002C800F000413FF1007108803AF200803072027C
:1002D800031D702906307002031C732974298129B3
:1002E8000130F5070030F63D40012835303E8600E4
:1002F80087010030C03FC13F9C2940012835303E6E
:1003080086008701403FF000413FF1007108803AC4
:10031800F2007F307202031D9329FB30700203182C
:10032800962997299C29FF30F507FF30F63D782953
:100338007608803AF00080307002031DA529043049
:100348007502031CA829A929AD294001A001A10112
:10035800BC29F61FB029B129B72903304001A000F4
:100368000030A100BC2976084001A1007508A00052
:1003780008004001C9004908023E86008701403F45
:10038800C500413FC600490886008701403FC700B5
:10039800413FC80046084806031DD42945084706BA
:1003A8000319D729D8293C2AF030C50045088D05FE
:1003B80049088600870101088531422581314001BD
:1003C800C500C6014908043E860087014508C03FAC
:1003D8004608C13F4908043E860087014908063E91
:1003E80084008501403F803F413F813F4908043EEA
:1003F8008600870101080C060319032A042A092A22
:10040800490886008701443F8C0005304001C6003A
:100418000F30C500F130890B0F2AC50B0F2AC60B08
:100428000F2A01304001C500490886008701010AEA
:100438001E2AC535890B1D2A45080F39C6004608EE
:100448008D044908860087014908023E8400850119
:10045800403F803F413F813FFA30C5000030C60031
:100468004908143E860087014508C03F4608C13F39
:1004780008004001C8004808143E8600870116009D
:10048800FF3AC6001600FF3AC60403194C2A4D2A43
:100498009E2A4808143E86008701FF3081074131B3
:1004A800FF30813D7F3116000104031D5C2A5D2A5F
:1004B8009E2A48088600870104308531422582310A
:1004C80001060319682A692A732A40014808860028
:1004D80087010108C400043084315424823140016A
:1004E8004808043E86008701480884008501000802
:1004F80085314225823101060319832A842A912AEB
:100508004001480886008701443FC4004808860027
:1005180087010108843154248231FF304001C6002C
:10052800FF30C7004808143E860087014608C03FD0
:100538004708C13F08004001C800FF308C00F03078
:10054800C50045088D050D16C901CA014A08803A3B
:10055800C50080304502031DB32A04304902031C3C
:10056800B62AB72AB82AE92A01304001C500490A43
:10057800BE2AC535890BBD2A4508C7004708C500EE
:1005880045088D0415304001C6004B30C500BE300B
:10059800890BCC2AC50BCC2AC60BCC2A00004001FB
:1005A8004709C50045088D050130C9070030CA3D17
:1005B8004A08803AC50080304502031DE52A043008
:1005C8004902031CE82AE92AB82A04308531422561
:1005D80082314001C500C6014808860087014508E8
:1005E800C03F4608C13F4808093E8600870181018F
:1005F800080040019801990118309A009C01920165
:10060800C0309300FF309400083096007D018C01C3
:10061800C0309600E030A0008D019701A101B5011E
:100628008E019801A201FF308F00FF309900FF3042
:10063800A300FF309000FF309A00FF30A40008307C
:10064800B80013307C01C70015307B019F001430BF
:100658007C01C80016307B01A0007D019101920148
:1006680093019B019C019D010330A5000730A60062
:10067800A701B901BA01BB0183304001C4000630AB
:10068800C50086312126823184304001C4000630FD
:10069800C50086311B26823182304001C4000630F5
:1006A800C500863115268231410116160800400121
:1006B800C8004808063E86008701403FC400413F05
:1006C800C5004808043E86008701403FC600413FF8
:1006D800C70045084706031D732B4408460603193F
:1006E800762B772B9E2B4808043E8600870101084D
:1006F8000C060319802B812B9E2B48088600870146
:10070800443F8C004808043E860087014808063E9E
:1007180084008501403F803F413F813FFA30C4005B
:100728000030C5004808143E860087014408C03FD1
:100738004508C13F080086317C2683318531F42580
:100748008331003A0319A92BAA2BB82B86312D2601
:100758008331003A0319B12BB22BB82B0530400175
:10076800C1000130C000CD2B86313F268331003ACD
:100778000319BF2BC02BCD2B86312D268331003A90
:100788000319C72BC82BCD2B05304001C1000230FF
:10079800C00040014108F200F301F235F30D683062
:1007A800720784000530733D80388500013F8A0058
:1007B800003F0A0083314001C10008008531B5259A
:1007C8008331203082319F2283314D304001C40073
:1007D8000030C5008631212683314D304001C400E8
:1007E8000030C50086311B268331E9304001C40042
:1007F8000430C5008631152683318B170B1720303E
:100808008131BD218331203083315B238331203016
:1008180082313D228331D0304001CB00C930890B71
:10082800132CCB0B132C0032032C803131280430CD
:10083800F10086315D268431003A0319242C252CD9
:100848004F2C40013D083E0403192B2C2C2C3C2C2A
:100858003C08860087018631762684318100013084
:10086800F00070084001BC070130BD020030BE3BFB
:100878003D083E040319412C422C462C8631612642
:100888008431522C86317026843186315926843140
:100898000730F100522C8631732684317108080024
:1008A8004001C500790190185A2C5B2C562C101762
:1008B8004001450879018C0070308D008F0140019E
:1008C800440879018E00400103108B1F6C2C6D2C9D
:1008D8006E2C03148B137901101555309100AA3032
:1008E800910090149018792C7A2C762C10114001D4
:1008F800031C7F2C802C812C8B17080040013A08A0
:100908003B040319882C892C9C2C0130BA02003036
:10091800BB3B0330363E86008701403F840085019B
:10092800810A00088631442684310330F100AC2C5A
:100938003F080319A02CA12CA82CBF0186316D26D5
:100948008431F101F10AAC2C8531E4258431F100C0
:100958007108080006304001C1000330C00086312C
:100968007F26843140014108F200F301F235F30D8E
:100978006830720784000530733D80388500013F78
:100988008A00003F0A0084314001C1007D088A00C6
:100998007C080A00843108007D01271CD42CD52C42
:1009A800D82C8531A72584317D01A71CDC2CDD2CB2
:1009B800E02C8531992584317D01271DE42CE52C17
:1009C800E82C85318A258431080040012808031D58
:1009D800EE2CEF2CF22C0130A800F32CA801A90171
:1009E80028082E3E8600870181012835303E860082
:1009F80087010030C03FC13F080080304D018F00A3
:100A080008309000910192014F308D0086314926BF
:100A1800853185304001C4000630C5008531CE25BA
:100A280085314D0190160800FF34FF34FF34FF3440
:100A3800FF34FF34FF34FF34003400340034003412
:100A480000340034003400340034003400340034FE
:100A5800FF34FF34013405340034003400340034EA
:100A680000340034003400340034003400340034DE
:100A780000340034CE340534003400344001C4005E
:100A8800640079019018492D4B2D4001442D101711
:100A98004001440879018C0070308D0010140E0854
:100AA80008004001B6010030B800FF30B700B901B6
:100AB800BC01C10186317C26853186317F2685318E
:100AC800863165268531080055340634EC34053402
:100AD80002340634823404341B3404343934063482
:100AE80033340634E4340534FB3405340034FF343D
:100AF80001340034013400340034FF34FF3400344E
:100B08000034013400340134FF34003440014C080F
:100B18004D040319902D912D962D4D088A004C08EF
:100B28000A0085317D012711080078087904031926
:100B38009E2D9F2DA42D79088A0078080A008531FA
:100B48007D01A71008007A087B040319AC2DAD2D90
:100B5800B22D7B088A007A080A0085317D012710AA
:100B680008008531DA2585318231FD2285318531CC
:100B7800012585318531C2258531080041010C10D8
:100B88000B1400304001C4000030C5008631272610
:100B9800853108004001440845040319D42DD52D9A
:100BA800D92D4508FD004408FC00080044018E01C9
:100BB8008F01910105309300900192019401080082
:100BC80086317926853185315525853100300800F3
:100BD80003144001370D863144268531043008005E
:100BE80003104D018F1E03140030093D08008631A3
:100BF800692685314001B6010030080040013735CB
:100C080086314426863103300800FE0012001E009B
:100C1800FE0B0A2E0034640080010131890B102E6E
:100C2800003440014508CD004408CC0008004001CC
:100C38004508F9004408F800080040014508FB0091
:100C48004408FA00080040014508C3004408C200EF
:100C580008004D01110E890C890C013908008531F5
:100C6800FB258631F000700808008531E4258631BF
:100C7800F000700808004D010F0E890C01390800BA
:100C8800F00070084D018C000800410119179917F0
:100C9800080083319F23863108008431AE248631D1
:100CA80008004001B601083008004D0191161116E0
:100CB80008004D010F08013908004D019112111665
:100CC80008004D019013101308004D019012901662
:100CD80008004D01911408004D01911008004D01C4
:100CE800911508004D010C0808004D011115080068
:100CF80041010F13080041018F1308000800080084
:040D080008000800D7
:020000040001F9
:08000000FF3FFF3FFF3FFF3F00
:0A000E00FF3FE73FFF3FFF3FFF3FCA
:10E00000FF00FF00FF00FF000000FF00FF00FF0017
:00000001FF
