:1000000080311E28080008007E1480314101161A34
:100010000C1E0E2897310A2780311C280B1F1C2824
:10002000971B8D1F17289731232780311C28961A7C
:100030008C1E1C28973155277E10090080312028FE
:100040000C308400973085005F30860000308700D8
:10005000043097311627803167308400883085005E
:10006000A0308600003087003A3097311627803163
:10007000FA01FB01FC01FD01203084000030850005
:100080002C30973110274101EA01EB01EC01ED0121
:10009000EE01EF017E10400189313B2940010D0E38
:1000A0000139D8002E082F04031973285808031D9E
:1000B0005B2801305C28003030060319732858088B
:1000C000031D6428013065280030F0002F088A00E5
:1000D0002E080A00803140015808031D71280130A4
:1000E00072280030B0003908031D08003608031DCF
:1000F0009E285808031D7F280130B50708003508E1
:10010000031994280130B6000130FB00FC01A40162
:10011000A501A601A701FD01A201A301FF30BA00BC
:100120000130B400FA010800200A0319210A03195A
:1001300008000130A0070030A13D08007B0803192A
:10014000D82958080319AE280130B407EC3034021E
:10015000031CFF2BB601B501B401FF2BD501D6015D
:10016000BA0120303502031CC5282A303502031895
:10017000C52806303402031CC5280C30340203188D
:10018000C5288F30D500983014295E303502031C05
:10019000D928B33035020318D9282F303402031C74
:1001A000D9285B3034020318D9287E30D500983026
:1001B00014295E303502031CED28B33035020318D4
:1001C000ED2817303402031CED282E3034020318BA
:1001D000ED286D30D500983014293C303502031CD1
:1001E00001294D303502031801293C303402031C2B
:1001F00001294D303402031801295C30D5009830B4
:10020000142928303502031C16293F303502031803
:10021000162913303402031C162921303402031826
:1002200016294B30D5009830D60092290B30350274
:10023000031C1E2911303502031C262916303502F5
:10024000031C532921303502031853290B30340283
:10025000031C2E2911303402031C362916303402B7
:10026000031C532921303402031853293A30D50096
:100270009830D6003408B20011303502031C4429EE
:1002800021303502031C4C2911303402031C502943
:100290002130340203185029B1014030FA0092296C
:1002A0000130B100922923303502031C69292E3018
:1002B0003502031869290B303402031C69291130F7
:1002C0003402031869292930D5009830D600B201CC
:1002D000502903303502031C712907303502031CF5
:1002E000792906303502031C90290D303502031898
:1002F000902907303402031C81290C303402031C7E
:1003000089290E303402031C902917303402031857
:1003100090291830D5009830D6003408B200502902
:10032000B601BB0136080319A4293B30F0000030A8
:10033000F1005608F3005508F2001130F4000030C7
:10034000F5009731A92780314B1CD32917303B0684
:100350000319D32909303B060319D32934083D0278
:100360000318C7293D08CC00CD01CC35CD0D4D0873
:10037000803ACE0080304E02031DC02934084C0262
:10038000031CC7294001CB18CF290130D0294001D7
:100390003108031DD329CB1CCF290130D0290030CF
:1003A0008C31282480310130B500B401FB01FF2BD2
:1003B0007C080319F52BD30158080319E52A0130ED
:1003C000B40748083A06031D0D2A4903031D0D2AE8
:1003D0004B18EF292E30D1000030D200F129D10185
:1003E000D2015208803ACC0080304C02031DFA2919
:1003F0003408510203180D2A40014B18072A4008FF
:100400003502031C092A35084102031C092AC901C7
:10041000E72AB601B501B401E72A40013B03031DF9
:10042000352A0C303402031C352A0B303A02031CE7
:10043000352A3A08013EC8000130D3003A08CC0002
:10044000CD014C08CD00CC014C08003ECF00F5306A
:100450004D3DD0004F08A6045008A70446083A07AF
:10046000013EC7000A30B400E72A17303B06031DDF
:100470007E2A4908031D7E2A3F08CC00CD01CC35D9
:10048000CD0D4D08803A803C031D482A4C083402AB
:10049000031C522A0F3040013A02031C522A113029
:1004A000C800A32A113040013A02031CE72A113088
:1004B000BB00C4010B30C5000B30C6001630C700AE
:1004C0000230A635A70D890B612A2508CD00240826
:1004D000CC000630CD36CC0C890B6A2A4C08A60419
:1004E0004D08A7043F30A4050030A5053108CC0015
:1004F000CD014C08A4044D08A504E72A4B1CA82AEA
:100500003F08CC00CD01CC35CD0D4D08803A803C64
:10051000031D8C2A4C083402031CA82A40014808F9
:10052000FE3ECC00FF3003180030CD004D08803A6D
:10053000803C031D9D2A4C083A02031CA82A400156
:100540004908031DA82A0130D3000130C900E72A59
:10055000EC3040013402031CE72A4808FF3ECC007F
:10056000FF3003180030CD003A084C064D04031D3F
:10057000BF2A4908031DBF2A0130BA07E72A023003
:100580003B060319C72A1C303B06031D092A3A08FB
:10059000031D092A073021021A300319200203180B
:1005A000E32A0130C9000230BB003A08C8006208E3
:1005B000A7006108A6006008A5005F08A400371422
:1005C000A001A101E72AB901E72A0130D3005308AD
:1005D0000319FF2B4B1C932B35083D020318462BA8
:1005E00009303B06031D0E2B04303A06031D0E2B6B
:1005F0000C303502031C0E2B24304806031D072B3C
:1006000001308C312824803101304001442B0030EE
:100610008C31282480314001B101902BCB18122B52
:100620000130132B00308C312824803109303B06F7
:10063000031D372B04303A06031D372B0C303502CF
:10064000031C372B01308C31282480313F08CC002B
:10065000CD01CC35CD0D4D08803ACE0080304E0214
:10066000031D342B34084C02031C0B2B042BCB1C16
:100670003B2B01303C2B00308C3128248031CB1CAB
:10068000432B0130442B0030B100902B3C08350245
:10069000031C8E2B35083D02031C8E2B32083F02B3
:1006A00003186D2B3F08CC00CD01CC35CD0D4D0886
:1006B000803ACE0080304E02031D602B32084C027F
:1006C000031C6D2B40013108031D682B0130692B81
:1006D0000030D7005708B100702B40013108D70017
:1006E00009303B06031D892B3A03031D892B570351
:1006F000031D892B2430C8000530C40044080F3E78
:10070000C5004508013EC60046080F3EC700A601C9
:10071000A70157088C3128248031902BB601B401F1
:100720003408B200F12B03303B06031DCB2B1030F5
:100730003A06031DCB2B05303502031CAF2B0D30C1
:1007400035020318AF2B3C303402031CAF2B4D3065
:1007500034020318AF2BFC010130BA07F22B05302D
:100760003502031CC82B0D3035020318C82B0A3084
:10077000BB001030C6002030C7002030C8000F304A
:100780003402031CED2B20303402031CDB2BED2B39
:10079000B601B401F22B3C083502031CDD2B3508F1
:1007A0003D02031CDD2B3E083402031CDD2B340804
:1007B0003F02031CDD2B0130EE2B40083502031CE9
:1007C000C82B35084102031CC82B42083402031C05
:1007D000C82B34084302031CC82B00308C3128245A
:1007E0008031FC010130B500FF2B5808031DFB2BA5
:1007F0000130B507FF2B0130FC000130B400360892
:100800000319080048083A06031D08004908031D9B
:10081000080025086006031D0F2C24085F06031D31
:100820001B2C04302102BC300319200203181B2C9E
:100830000130B3071C2CB3013B03031D292C3303E8
:100840000319262C02303306031D292CA001A10117
:10085000AF2C0130B90002303B06031D462C3A088C
:10086000031D462C073021021A30031920020318F9
:10087000452C6208A7006108A6006008A5005F0873
:10088000A4003714A001A101462CB90105303B0694
:10089000031D842C41016B084001CC000430CC3690
:1008A000890B4F2C0F304C05CD000F3041016B05EB
:1008B0004001CE0041016A084001CF000430CF362C
:1008C000890B5F2C0F304F05D00041016A080F39AA
:1008D000400150064E064D06D4000F3041016C0514
:1008E0004001CC004C085406031DB90141016C08BD
:1008F0006D066E064001D40041016F0840015406A8
:10090000031DB9017D08B70409303B06031D8E2C79
:1009100024304806031D8E2C15308F2C3B08B80060
:100920002708AD002608AC0002303B06031D9C2CB6
:100930002708E2002608E10007303B06031DA72C2C
:100940007A08CC00CD014C08A4044D08A504250864
:10095000AB002408AA002308A9002208A80039082F
:100960000319D32C25086006031DB82C24085F0644
:10097000031DC92C27086206031DC02C260861062A
:10098000031DC92C08302102E13003192002031C89
:1009900037142708E2002608E1002508E0002408B3
:1009A000DF00A001A101B601A401A501B501B401B8
:1009B0000800C130F0000030F10088312F20843170
:1009C000D80058080319212E41013C08400158065F
:1009D0000319F62C41013B35BD3E86000030873DB2
:1009E0003B350030873D0030C03FC13F40015808D3
:1009F0004101BC00103040015806031D162D410175
:100A00003B084001CC00CD01CC35CD0DBD30CE0032
:100A10000030CF004C084E0786004D084F3D870040
:100A20000130810741310318810A312D20305806E9
:100A3000031D312D41013B084001CC00CD01CC35D7
:100A4000CD0DBD30CE000030CF004C084E078600E3
:100A50004D084F3D8700FF3081074131FF30813D18
:100A60007F3141013B08031DA52D26084001D5001B
:100A7000410125084001D40041013B084001CC0060
:100A8000CD01CC35CD0DBD30CE000030CF004C08AF
:100A90004E0786004D084F3D8700403FD000413F44
:100AA000D1005108803AD20080305202031D5A2DE5
:100AB00001305002031C612DFF304001D407FF308C
:100AC000782D41013B084001CC00CD01CC35CD0D46
:100AD000BD30CE000030CF004C084E0786004D08D8
:100AE0004F3D87004131811F852D0130D4070030F3
:100AF000D53D41013B35BD3E86000030873D3B354D
:100B00000030873D0030C03FC13F40015508803A6A
:100B1000CC0080304C02031D8F2D40305402031C4A
:100B2000962D00304101A6003F30A32D4001D51F76
:100B30009D2D4101A501A601212E55084101A600C8
:100B4000400154084101A500212E22084001D70090
:100B5000410121084001D60041013B084001CC0081
:100B6000CD01CC35CD0DBD30CE000030CF004C08CE
:100B70004E0786004D084F3D8700403FD000413F63
:100B8000D1005108803AD20080305202031DCA2D94
:100B900003305002031CD12D01304001D607003034
:100BA000F52D41013B084001CC00CD01CC35CD0DE8
:100BB000BD30CE000030CF004C084E0786004D08F7
:100BC0004F3D8700403FD000413FD1005108803A5F
:100BD000D2007F305202031DEF2DFE305002031869
:100BE000022EFF304001D607FF30D73D41013B3593
:100BF000BD3E86000030873D3B350030873D0030EC
:100C0000C03FC13F40015708803ACC0080304C02C1
:100C1000031D0C2E04305602031C122E4101A101AB
:100C2000A201212E4001D71F1A2E00304101A2003F
:100C30000330202E57084101A2004001560841010F
:100C4000A1004101460347040319080040010E0CAE
:100C5000890C0139D3005308031D422E1430F000D3
:100C60000030F10001304101C2070030C33D4308AC
:100C7000F3004208F2008731AE277108C500700802
:100C8000C400080041014508803A4001CC00803092
:100C90004C02031D4E2E013041014402031C552E0F
:100CA00000304101C7000130C6004101C201C3014B
:100CB0000800C130F0000030F10088312F2086316B
:100CC000D20052080319CC2E41013C0840015206C3
:100CD00003196D2E4101BD01BE01400152084101C1
:100CE000BC00103040015206031D7B2E0130410133
:100CF000BD070030832E20305206031D842EFF30A6
:100D00004101BD07FF30BE3D410126084001CF0033
:100D1000410125084001CE0041013E08803AF9001A
:100D200080307902031D962E01303D02031C9D2E5A
:100D3000FF304001CE07FF30A92EA03086000030E2
:100D400087005D314131811FAD2E01304001CE075A
:100D50000030CF3D4101BD01BE0140014F08803A46
:100D6000F90080307902031DB72E40304E02031C7B
:100D7000BE2E00304101A6003F30CB2E4001CF1FD8
:100D8000C52E4101A501A601CC2E4F084101A600A8
:100D900040014E084101A500CD30F0000030F100C7
:100DA0008831A1208631D20052080319432F410116
:100DB0004808400152060319E02E4101C901CA0149
:100DC000400152084101C800103040015206031D85
:100DD000EE2E01304101C9070030F62E20305206B8
:100DE000031DF72EFF304101C907FF30CA3D410105
:100DF00022084001D100410121084001D0004101F9
:100E00004A08803AF90080307902031D092F033027
:100E10004902031C102F01304001D0070030202F61
:100E200041014A08803AF9007F307902031D1A2FE8
:100E3000FE3049020318242FFF304001D007FF3055
:100E4000D13D4101C901CA0140015108803AF90070
:100E500080307902031D2E2F04305002031C342FE2
:100E60004101A101A201432F4001D11F3C2F0030BD
:100E70004101A2000330422F51084101A20040016C
:100E800050084101A1004101460347040319792F8D
:100E900040010E0C890C0139CC004C08031D652F54
:100EA0001430F0000030F10001304101C207003081
:100EB000C33D4308F3004208F2008731AE27863174
:100EC0007108C5007008C400792F41014508803AB7
:100ED000F90080307902031D6F2F01304402031C9A
:100EE000762F00304101C7000130C6004101C20128
:100EF000C301520353040319080040010E0D0E0DE7
:100F00000139CD004D08031D992F1430F000003039
:100F1000F10001304101CE070030CF3D4F08F30012
:100F20004E08F2008731AE277108D1007008D0005A
:100F3000080041015108803AF90080307902031D10
:100F4000A32F01305002031CAA2F00304101D3000F
:100F50000130D2004101CE01CF010800F501F11F9F
:100F6000B82FF009F109F00A0319F10A0130F50070
:100F7000F31FC12FF209F309F20A0319F30A013032
:100F8000F506F601F701700871040319EE2F013020
:100F9000F400F11BD32F0130F035F10D890BCC2F6C
:100FA0000130F407C92F0130F635F70D890BD42F26
:100FB00071087302031DDE2F70087202031CE52FF7
:100FC0007008F2027108F33B76140130F136F00C30
:100FD000890BE62F0130F402031DD32F7508031986
:100FE000F62FF609F709F60A0319F70A7708F10050
:100FF0007608F00008005A08AF005908AE00080053
:1010000080314E20080041010C100B1400304001CB
:10101000D9000030DA0097312A270800DA00790178
:1010200090180F28101740015A0879018C00703071
:101030008D008F014001590879018E0003108B1B30
:1010400003148B13101555309100AA3091009014A1
:10105000901828281011031C08008B170800400165
:101060000E0C0139F2000E080139F3000130F3359E
:10107000890B372873087204F8007008860071081D
:101080008700700884007108850000080F39F2009D
:10109000F301F235F30DF235F30D0030F400983022
:1010A000F50072087407F6007308753DF7007808BC
:1010B0007607840077080318013E85000008810048
:1010C0007008860071088700010830390800013473
:1010D000FF34FF34FF34FF34FF34FF34FF34FF3478
:1010E000FF34FF343F340034FF34FF343F340034E6
:1010F000FF34FF343F340034FF34FF343F340034D6
:10110000FF34FF3400340034003400340034003441
:10111000003400340034003400340034003400342F
:10112000003400340034003400340034003400341F
:10113000003400340034003400340034003400340F
:10114000003440010E0E890C890C0139F2000E0E9C
:10115000890C0139F3000130F335890BAC28730891
:101160007204F80070088600710887007008840017
:101170007108850000080F39F200F301F235F30D14
:10118000F235F30D0030F4009830F5007208740762
:10119000F6007308753DF700780876078400770835
:1011A0000318013E85000008810070088600710860
:1011B000870001083039080040018E1B08004001FB
:1011C0008E1BEF2805304001DC000F30DB00F130D2
:1011D000890BE828DB0BE828DC0BE828DF28DD0199
:1011E000DE0103104001991E0314031CFA2840017C
:1011F0009916FC284001991215304001DC004B3053
:10120000DB00BE30890B0229DB0B0229DC0B022933
:10121000000001304001DD070030DE3D5E08803A0D
:10122000DB0080305B02031D17290A305D02031CBE
:10123000F2283F304001D900003088310E2088313B
:101240003F304001D900013088310E2088313F30D5
:101250004001D900023088310E2088313F304001F2
:10126000D900033088310E2088314001D901043083
:1012700088310E2008009731602789310B304201F8
:10128000A5002630A4005D30890B4429A40B442915
:10129000A50B442900328831DC20893142304001DD
:1012A000D9001730DA0097313227893100304001F8
:1012B000D9000830DA0097313A2789318B170B179C
:1012C000A0304001DA000030DB008A31C4228931CD
:1012D0008031032089311C304001D9001730DA00F9
:1012E0008731FB278931A0304101DA000030DB0073
:1012F0008E31DA268931A0304001D9000030DA0081
:101300008C31F1248931A0304001D9000030DA005D
:101310008B3170238931A0304001D9000030DA00D0
:101320008D31CC258931A030DB000030DC008931E3
:10133000A42189310B304201A4006230890B9E291F
:10134000A40B9E29000073295B08860087014931A0
:101350001600FF3A4101DA001600FF3ADA040319D9
:10136000080040015B08860087014931FF30810792
:101370004131FF30813D7F3116000104031D08001B
:101380005B08860087014131043097316F2789312E
:1013900001060319D62940015B0886008701413107
:1013A0000108D900043088310E20893140015B08E2
:1013B000860087014131403F4101DA00413FDB00B7
:1013C000DA35DB0DDA35DB0D5A0840015B074101E8
:1013D000DC005B0840015C3D4101DD005C088600EB
:1013E00087014B3140015B08840085010131000811
:1013F00097316F27893101060319242A40015B08C0
:10140000860087014131403F4101DA00413FDB0066
:10141000DA35DB0DDA35DB0D5A0840015B07410197
:10142000DC005B0840015C3D4101DD005C0886009A
:1014300087014B3101084001D9005B088600870114
:101440004131010888310E20FF304101DA00FF30C0
:10145000DB0040015B0886008701493141015A08E1
:10146000C03F5B08C13F0800DE013908031D872A21
:10147000C22A2A092B06031D9B2AFF30AA05003029
:10148000AB052808DC00DB015B08AA045C08AB04A0
:10149000642A2A092B0603195D2AEE302C068730B0
:1014A00003192D06031D622A0B30B8002B08DB0040
:1014B000DC015B08AC005C08AD00FF30AA05003021
:1014C000AB05642A3830B8000130DE009B2A2B08B7
:1014D0002A0603195D2A9B2A2A090139DB002A08FA
:1014E000DC000130DC36890B722A01305C05DD003E
:1014F0005D085B06031D9B2A0130AB36AA0C890BE5
:101500007D2A642ADF30AC05FF30AD05642A380837
:10151000023A0319492A013A0319392A043A0319EC
:10152000822A163A03196C2A063A03196C2A253ABC
:101530000319672A482A5E080319BB2A590886003E
:101540005A08870038088100590886008701413110
:101550002C08C03F2D08C13F590886008701433140
:101560002A08C03F2B08C13F590886008701453132
:1015700037088100BC2AB801AA01AB01AC01AD015A
:10158000B701B9015E0808009916F0308D052030CA
:101590004101DA002930890BCB2ADA0BCB2A003241
:1015A00040010C08C0393F388C004201A101A20162
:1015B0002208803A4101DA0080305A02031DE32AF2
:1015C0000430420121020318182B01304101DA00D6
:1015D0004201210A4101ED2ADA35890BEC2A5A0829
:1015E0004201A000200840018D0415304101DB00BC
:1015F0004B30DA00BE30890BFB2ADA0BFB2ADB0BFF
:10160000FB2A00004201200940018D050130420102
:10161000A1070030A23D2208803A4101DA00803063
:101620005A02031D162B043042012102031CE52A35
:10163000043097316F278A314101DA00DB01400124
:101640005A0886008701413141015A08C03F5B08B2
:10165000C13F4201A301230897316F278A3141011D
:10166000DA00DB01420123084101DC00DD01DC3549
:10167000DD0DDC35DD0D5C0840015A074101DE005F
:101680005D0840015B3D4101DF005E088600870187
:101690004B315A08C03F5B08C13F4201230841015A
:1016A000E000E101E035E10DE035E10D60084001C9
:1016B0005A074101E200610840015B3D4101E3003E
:1016C0006208860087014D315A08C03F5B08C13F60
:1016D00001304201A30704302302031808002B2B1A
:1016E0005908860087014731403FDB00413FDC005D
:1016F0005908860087014531403FDD00413FDE004B
:101700005C085E06031D862B5B085D060319080056
:10171000590886008701453101083F394101E00041
:101720003F3040010C05DB005B08410160060319F6
:101730000800DA01DB015B08803A4001DB00803001
:101740005B02031DA62B063041015A020318D92B58
:1017500001304001DB0041015A0A4001B02BDB356A
:10176000890BAF2B5B084101DE005E08600540017C
:10177000DB0041015E0840010C05DC005C085B06F3
:101780000319D32B410160085E050319CA2B5E08BB
:1017900040018C0420304001DB002930890BCE2B26
:1017A000DB0BCE2B003201304101DA070030DB3D8C
:1017B0009B2B4101DC01DD015D08803A4001DB002B
:1017C00080305B02031DE72B063041015C020318E9
:1017D0001A2C01304001DB0041015C0A4001F12B71
:1017E000DB35890BF02B5B084101DF005F086005EA
:1017F0004001DB0041015F0840010C05DC005C0892
:101800005B060319142C410160085F05031D0B2CB6
:101810005F0940018C0520304001DB002930890B35
:101820000F2CDB0B0F2C003201304101DC070030A4
:10183000DD3DDC2B40015908860087014531590800
:10184000840085010731403F803F413F813F0800D0
:10185000F20044083A02031C4D2C45083A020318D2
:101860004D2C4A080319402C7208F000F10144087D
:101870003A02890A3D2CF035F10D890B3B2C482C9E
:101880000130A635A70D890B412C7208F000F1013B
:101890007008A6047108A704702C46083A02031CBD
:1018A000702C47083A020318702C4A080319642C5C
:1018B0007208F000F10146083A02890A612CF035FD
:1018C000F10D890B5F2C6C2C0130A435A50D890B13
:1018D000652C7208F000F1017008A4047108A504D9
:1018E00003303B06031D8C2C11303A02031C8C2C58
:1018F00015303A0203188C2C7208F000F1013A08F6
:10190000EF3E890A852CF035F10D890B832C700888
:10191000A2047108A304EE2C05303B06031DEE2C37
:1019200014303A02031CA82C18303A020318A82CD1
:101930007208F000F1013A08F83E890AA12CF0354E
:10194000F10D890B9F2C7008A4047108A504BB2C11
:1019500018303A02031CBB2C1C303A020318BB2C73
:101960007208F0003A08EC3E890AB72CF035890B72
:10197000B62C7008FD0430303A020318EE2C7208C1
:101980000319D82C3A08F0000330F036890BC52C27
:101990007008EA3E860087010130F1003A080739F5
:1019A000890AD32CF135890BD22C71088104EE2CD5
:1019B0003A08F0000330F036890BDB2C7008EA3E61
:1019C000860087010130F1003A080739890AE92CBD
:1019D000F135890BE82C7108FF3A81050130BA070F
:1019E00008005908860087014331403F4101DA0071
:1019F000413FDB0040015908860087014131403FEB
:101A00004101DC00413FDD005B085D06031D0A2D3E
:101A10005A085C060319080040015908860087012E
:101A200043311600FF3A4101DA001600FF3ADA04AA
:101A300003193E2D40015908860087014531590898
:101A4000840085010331003F4101DA00013FDB00E2
:101A5000DA35DB0DDA35DB0D5A0840015907410153
:101A6000DC005B0840015A3D4101DD005C08840058
:101A700085010D31403F803F413F813FF0304001C3
:101A80008D0520304101DA002930890B452DDA0B14
:101A9000452D003240015908860087014131403F01
:101AA0004101DA00413FDB00DA35DB0DDA35DB0DD1
:101AB0005A08400159074101DC005B0840015A3DCA
:101AC0004101DD005C08860087014D314001590865
:101AD000840085010531403F803F413F813F070839
:101AE0004101DF000608DE00400159088600870139
:101AF000473141015E08C03F5F08C13F40015908BE
:101B00008600870145313F3001054101DA0040017F
:101B10000C08C03941015A0440018C0001304101D8
:101B2000DA0040015908860087014131010A41016C
:101B30009A2DDA35890B992D0F305A05DB004001BB
:101B40000D08F03941015B0440018D002030410156
:101B5000DA002930890BAA2DDA0BAA2D00324001B8
:101B600059088600870141315908840085010331F5
:101B7000403F803F413F813FE8304101DA00033080
:101B8000DB004001590886008701493141015A08AC
:101B9000C03F5B08C13F0800590886005A0887000B
:101BA0000103031D4D2E5908263E860000305A3D84
:101BB0008700160001040319302E5908243E8600C0
:101BC00000305A3D8700403FDB00413FDC005C08AD
:101BD000803ADD0080305D02031DF02D96305B02FF
:101BE000031C1D2E40015908860087014531590804
:101BF000840085010131003FDB00013FDC00DB3563
:101C0000DC0DDB35DC0D5B085907DD005C085A3D57
:101C1000DE005D08840085010B31403F803F413F7D
:101C2000813FE830DB000330DC0059088600870183
:101C300049315B08C03F5C08C13F40015908263E5E
:101C4000860000305A3D87000030C03FC13F590830
:101C5000243E860000305A3D87000030C03FC13F1F
:101C60005908323E860000305A3D870016000104B4
:101C7000031908005908263E860000305A3D8700A7
:101C80000030C03FC13F5908243E860000305A3D15
:101C900087000030C03FC13F08005908263E86003B
:101CA00000305A3D87001600010403190800590846
:101CB000243E860000305A3D8700403FDB00413F14
:101CC000DC005C08803ADD0080305D02031D6A2E76
:101CD00096305B02031C982E40015908860087014C
:101CE00045315908840085010131003FDB00013F87
:101CF000DC00DB35DC0DDB35DC0D5B085907DD0076
:101D00005C085A3DDE005D08840085010B31403FD0
:101D1000803F413F813FE830DB000330DC00590861
:101D20008600870149315B08C03F5C08C13FC72E70
:101D300040015908860087015B310108031DA72E69
:101D40005908860087015B3101308100AC2E5908AB
:101D5000860087015B3181015908860087015C316B
:101D600081015908860087015B310108DB00DC0135
:101D7000DB35DC0D5B085907DD005C085A3DDE00F1
:101D80005D08860087015D310030C03FC13F5908C2
:101D9000263E860000305A3D87000030C03FC13FDC
:101DA0005908243E860000305A3D87000030C03F6D
:101DB000C13F08005A08343E4001D90000304101BB
:101DC0005B3D4001DA008A3134228E31003A03193A
:101DD000080041015A08343E860000305B3D870010
:101DE00007300106031D08005A08353E8600003002
:101DF0005B3D87001600013ADC001600DC04031D81
:101E000008005A08860087014131403FE200413F07
:101E1000E3005A08860087014531403FE000413F1A
:101E2000E1005A08393E860000305B3D870001081A
:101E30000319642F902F0130E2070030222FFF306A
:101E4000E207FF30E33DA72FFF30E007FF302B2FE5
:101E50000130E0070030E13DA72F5A0886008701D6
:101E600045315A08840085010131003FDC00013F03
:101E7000DD00DC35DD0DDC35DD0D5C085A07DE00EC
:101E80005D085B3DDF005E08840085010B31403F4B
:101E9000803F413F813F0130DC000030DD005A08C7
:101EA0008600870149315C08C03F5D08C13FA72F0C
:101EB000E201E301A72F0130602F0230602F0330D1
:101EC000E2000030E300A72F5A08373E86000030BA
:101ED0005B3D8700403FDC00413FDD005D08003A8C
:101EE0000319732FA72F5C08013A0319582F033ADF
:101EF00003195B2F013A03195D2F073A03195F2F6E
:101F0000143A0319242F013A0319282F313A0319DF
:101F10001B2F013A03191F2F143A03192D2FA72F36
:101F20005A08373E860000305B3D8700403FDC00AA
:101F3000413FDD005D08003A03199F2FA72F5C0881
:101F4000103A0319242F013A0319282FA72F6308E9
:101F5000803ADC0080305C02031DB02F0430620246
:101F6000031CBB2F41015A08860087014131003014
:101F7000C03FC13FD32F4101E31FCB2F0330DC0013
:101F80000030DD005A088600870141315C08C03FFF
:101F90005D08C13FD32F5A0886008701413162088E
:101FA000C03F6308C13F6108803ADC0080305C02BA
:101FB000031DDC2F40306002031CEC2F3F30410139
:101FC000DC000030DD005A088600870145315C08DE
:101FD000C03F5D08C13F08004101E11FF72F5A08CB
:101FE0008600870145310030C03FC13F08005A08D4
:101FF0008600870145316008C03F6108C13F080085
:102E140008000800FF34FF34FF34FF3464008001ED
:102E24000131890B112F0034FE0012001E00FE0B2D
:102E3400172F003470080319212F991208009916CE
:102E440008008D1365088A0064080A009731080099
:102E54005A084101E900400159084101E80008000D
:102E64005A084101E700400159084101E600080001
:102E74005A084101E500400159084101E4000800F5
:102E84002003031D482F8631592608008431D92494
:102E9400080044018E018F019101053093009001D7
:102EA4009201940108008C12660867040319080053
:102EB40067088A0066080A009731080097314B2793
:102EC40097319731CA2797319731812797319731B5
:102ED400942797318831032008004001D900732FCB
:102EE4004001640079019018722F101740015908AD
:102EF40079018C0070308D0010140E080800F93030
:102F040043019D009C0177309F000B304001D900A4
:102F14001730DA00973132278C129616803043012D
:102F24009E0008000330460190008F019101833018
:102F34008D008C0102304001D9000030DA00973155
:102F44003A278D139717C03046018E000800730886
:102F5400F7007208F6007008F9000130F40200303E
:102F6400F53B740A0319750A0319080076088400EE
:102F7400770885000008F8000130F6070030F73DB7
:102F8400790886008701780881000130F907AF2F9E
:102F94004001980199019A019C019201D03093005B
:102FA400FF309400083096007D018C01C0309600FB
:102FB4001830A0008D0110309700E730A100B50152
:102FC4008E019801A201FF308F00FF309900FF307D
:102FD400A300FF309000FF309A00FF30A4000830B7
:102FE400B8009101920193019B019C019D01A501EF
:102FF400A601A701B901BA01BB01080003340234D8
:1030040001340034233400340134003413340234E2
:1030140000340034033405340434003403340334FA
:1030240004341034033405340334203417340334A3
:1030340006340334063400340034003400340034DD
:103044000934093411341634003400340334093497
:1030540005340C34053409340034003400340034AD
:1030640005340D340D341534153400340034033470
:1030740007340B3410340B3410340034003400346F
:1030840000340134073407340D340D340034003473
:103094000134053403340A340E34183403340A3446
:1030A40004340934003410341C34283430340134EA
:1030B40001340034033405340C340F341F34053424
:1030C4000C3404340B3400341034153425342534D2
:1030D400013401340034023405340C341134223404
:1030E40005340C3405340C3400340034003400341A
:1030F4000034013401340034023405340C34113406
:10310400223405340C3405340C34003410341034B7
:103114002034203401340134003401340F341534A4
:1031240007340B3407340B3407340B340F341434A2
:1031340000340F341434003401340034943417341C
:103144000034003400340034003400343A3417348A
:103154000034003481341734003400340034003433
:0C316400003400343234173400340034DE
:020000040001F9
:04000E008C3FE73FFD
:04001400FF3FFF3F6C
:00000001FF
