:0400000080310E2815
:100008007E1480314E01161A0C1E0C2885311C25D1
:100018007E10090080311028F801F901FA013E30FC
:100028008400003085001D3085315C258031A0308A
:100038008400003085001D3085315C257E1040012C
:1000480080312628FF30BA003A08BC008431902459
:100058008031F801F9016830F3000130F40085318E
:100068006E2580316830F3000130F40085317E253B
:1000780080318B170B1780317E208031003084311E
:10008800812480314001BA003A08BD003D08BA0019
:10009800BB013A08F8003B08F9003D088331742396
:1000A800803134304001BA00F130890B5928BA0B3D
:1000B800592800328531052580314001BA003A08B7
:1000C800BD003D0A031955283D083C06031955286B
:1000D8003D088331742380313D08BA003A08F300A3
:1000E800003083315723803140013D08BA003A0877
:1000F800BC00552802304001B7000430B600BA30C1
:10010800890B8428B60B8428B70B8428000040018B
:100118009A1102304001B7000430B600BA30890B9A
:100128009328B60B9328B70B9328000040019A1523
:100138001A304001B600F830890BA028B60BA02869
:1001480000004001B20100308431AD248031B20199
:1001580001308431AD2480314030B6003608B20019
:1001680002308431AD248031B20103308431AD24B2
:100178008031C530B6003608B20005308431AD2470
:1001880080317F30B6003608B20006308431AD24A5
:100198000800853168258031003A031DDD280129D2
:1001A8008531A72508008531A325080085319B25C1
:1001B800080040014D08A5002508A40006303E3E71
:1001C80086008701413F8A00403F0A008031400194
:1001D800A600A7012708003A0319F328DA282608F9
:1001E800013A0319DA28033A0319D428013A031902
:1001F800D728073A0319DA28DA2840015A101730A5
:100208003E3E86008701403F84008501810A000840
:1002180085317925803101304001D6020030D73B45
:1002280056085704031D1A29063008000330080031
:100238004001980199019A013F309200F0309300F3
:10024800F730940030307E01CE00C3013330B8005F
:10025800C401B901CC30CF00BA01C501D001373093
:10026800BB00F030C600FF30D1003F30BC00F0309A
:10027800C700FF30D2005513D5135417D41753179E
:10028800D317D930F3000530F40085316E2581315C
:10029800DA30F3000530F40085317E254E0116165C
:1002A8000D307D01C9000E30C50013307E019E005F
:1002B80015309F0016309D0014309C000C307D01D5
:1002C800C6000F30C80008000530F0007008F200C2
:1002D8000130F202720A031D6C290E0E890C890C7A
:1002E8000139F0000E0D0E0D013909077004F100F7
:1002F8007108F2000310FA0D0310FA0D7208F000ED
:100308007008FA047A080F39313E840084300318E3
:10031800013E85000008F000F101F01BF1037008B0
:10032800F8077108F93D7908803AF00080307002CA
:10033800031DA02904307802031CA7290330F80004
:100348000030F9000800F91F0800F801F901080059
:100358008531BA2581314001A500550886008701FD
:10036800250881000130A5002508D5070130D602EF
:100378000030D73B560857040319C6298531AF25E5
:1003880005300800DA15CE2985318F25080085311A
:10039800932508004A08A5002508A4003F088A00FC
:1003A8003E080A0081314001A600A7012708003A4B
:1003B8000319DF29CB292608013A0319CB29033A67
:1003C8000319C829013A0319C829073A0319CB297F
:1003D800CB290800F400F501F50A5A19222A7408F5
:1003E800F3007308D400DA105A155A100E30F300CF
:1003F8007308D800F430D2000130D300DA15D530B4
:10040800BE000530BF00CA01D530C0000530C100AC
:10041800CB01D530C2000530C300CC01D530C400B3
:100428000530C500CD01D330C6000530C700CE0168
:100438008531CC25813185311125F50175080800F4
:10044800B100400131088131EE218231003A0319AF
:10045800252A51304001A0000430A1002F30B000FF
:100468003008A2008431F92482310130F3000030D1
:10047800F4002E308431BA2482310030A000A1006B
:10048800A2018431E124823185318325823183318F
:10049800BE238231013A031D08004B2ADA155E2A71
:1004A80085319F2508008531B7250330080085313F
:1004B8009B2508004A08A5002508A4003F088A00D3
:1004C8003E080A0082314001A600A7012708003A29
:1004D80003196F2A5B2A2608013A03195B2A033A93
:1004E8000319542A013A0319542A073A0319572AB7
:1004F8005B2A08005A100230A5002508D9008A2A6C
:1005080085319F25080085319B2508004C08A500EA
:100518002508A40004303E3E86008701413F8A003A
:10052800403F0A0082314001A600A7012708003A8F
:1005380003199F2A872A2608023A0319842A013AAE
:100548000319842A872A08008531CC258231400185
:100558005A1CB92A853168258231003A0319B92A0B
:100568000F304001A8002808D80040015808A8000A
:10057800A901A835A90D3730280784008330293D03
:100588008500013F8A00003F0A0082314001AA002D
:100598002A08D8000800F700730874040319E52A2C
:1005A8007735A03E860087017308C03F7408C13FB5
:1005B8007508F6007708AC3E86008701760881004A
:1005C80008007735A03E86008701D130C03F05304E
:1005D800C13F7708AC3E8600870181010800F7001B
:1005E800730874040319092B77353E3E860087018A
:1005F8007308C03F7408C13F7508F60077084A3E83
:100608008600870176088100080077353E3E86001F
:100618008701D530C03F0530C13F77084A3E860084
:1006280087018101080000340034003400340034AC
:100638000034003400340034003400340034003412
:100648000034003400340034003400340034003402
:1006580000340034003400340034003400340034F2
:10066800003400340034AB34053455340534623476
:100678000534CD340034AC34013474340534523488
:100688000234A7340534A33405349F3405349B342D
:10069800053497340534933405348F3405348B345A
:1006A80005347E340234F40050019E18582B1E176E
:1006B80074089A0070309B009D0173089C00031019
:1006C8008B1B03148B131E1555309F00AA309F00F7
:1006D8009E149E186D2B1E11031C08008B17080012
:1006E800B900043039020318080039080739B60080
:1006F8000230B635FF3E031D7D2B36358038B700F6
:100708003708B8003808B6003608B200033084311C
:10071800AD240800AC00AD01AD0ADA18A42BDA1438
:10072800AD012C0803199B2BD801D80A9F2B023046
:10073800AB002B08D8008531C625833185312725A4
:100748002D080800240886008701403FF300413F38
:10075800F4002408023E86008701010884319F24A2
:10076800833100304001A000A100A2018431ED24B2
:1007780002300800F401F40ADA18D42B5A11FF30B9
:10078800F3007308D4008531CC2583318531D72512
:1007980083318531C92540015908F3007308F400F5
:1007A80074080800240886008701403FF300413F91
:1007B800F4002408023E8600870101088431BA2427
:1007C80083310030A000A100A2018431F924023055
:1007D80008000130F3000030F400240884319F241D
:1007E800833100304001A000A100A2018431ED2432
:1007F800043008000230F3000030F400240884318B
:100808009F24833100304001A000A100A20184315F
:10081800ED24023008000130F3000030F400240811
:1008280084319F24843100304001A000A100A2013E
:100838008431ED24023008000230F3000030F40067
:10084800240884319F24843100304001A000A10095
:10085800A2018431ED24043008000034FF3401344F
:100868000034013400340034FF34FF3400340034E1
:10087800013400340134FF3400340230F300003016
:10088800F40024088431BA2484310030A000A10087
:10089800A2018431F924043008000130F30000304B
:1008A800F40024088431BA2484310030A000A10067
:1008B800A2018431F924043008000230F30000302A
:1008C800F40024088431BA2484310030A000A10047
:1008D800A2018431F924023008000130F30000300D
:1008E800F40024088431BA2484310030A000A10027
:1008F800A2018431F92402300800F300842C40015D
:10090800640050019E18832C1E1773089A007030DB
:100918009B001E141C08080085313125843185315F
:100928004425843185314D25843181311C21843120
:1009380085313B250800F6004101BC1D08007608FA
:10094800F5007508B7007408B9007308B800BC1141
:100958000800B5003508B3003308AE003208B4000B
:100968003408AF002030823124220800F600DA1D56
:1009780008007608F5007508D5007408D7007308D4
:10098800D600DA11080040015B085C040319D12C79
:100998005C088A005B080A0084317E01D5130800D0
:1009A80040015D085E040319DE2C5E088A005D08BC
:1009B8000A0084317E01551308002108F40020083C
:1009C800F3002208A3002308F50002308231F32245
:1009D80008002108F4002008F3002208A3002308D7
:1009E800F50000308231CF2208002108F4002008E9
:1009F800F3002208A3002308F50000308231F32217
:100A08000800FF30F3007308F400F91B0F2D780875
:100A1800F3007308F400740808004301901A0800F2
:100A28008F0108309000910113308D009016080056
:100A38007E01551F222D8431D4248531D51F08000D
:100A48008431C72408004001DA1C08008531872555
:100A580085318231A8228531272D4F0196019701D2
:100A6800980199019A019B019C019D01080062303F
:100A780051018D008F019101063093009201080009
:100A880043018F0108309000910113308D009012BE
:100A98000800990108309A009B01133097009A12B8
:100AA80008005A140314540D8531792505300800BF
:100AB800640080010131890B5D2D00345A145435CE
:100AC80085317925033008004301110E890C890C02
:100AD8000139080074084001DE007308DD000800D1
:100AE8005A108531BD2504300800F300730843010E
:100AF8008C0008007408DC007308DB000800003074
:100B080083318E2308004E010F180800872DDA1054
:100B1800D9010E3008008531B32509300800853128
:100B2800B3250A3008008531AF2505300800853126
:100B3800C025003008008531C32501300800853103
:100B4800C325023008008531C32501300800DA10BA
:100B5800D9010E3008004301911211160800430113
:100B68009116111608004E010F14080043010C08D5
:100B780008004301911508004301111508004301BD
:100B88009114080043011114080043019012080051
:100B98004E010F100800053008000130080005302C
:0E0BA8000800013008001910080008000800BD
:020000040001F9
:0A000E00EC3FFF3F9F3FFF3FFF3F25
:10E000000000FF00FF00FF00FF00FF00FF00FF0017
:00000001FF
