:04000000803114280F
:100008007E1480314E01161E0A280B2812280C1E59
:100018000E280F2812288131D42180317E10090042
:1000280080311628F501F601F7014001AB01AC015A
:100038007E1040018031962840012C08F4002B08DE
:10004800F3000D0D0D0D0139F0000D0E890C890C12
:10005800013909077004F1007108F2007708F0000F
:100068000130F035FF3E031D352870357204F1006C
:100078007108F70077080F39E53E840081300318CE
:10008800013E85000008F000F101F01BF103700843
:10009800F5077108F63D7608803AF0008030700266
:1000A800031D582806307502031C5B285C2863284A
:1000B8000130F3070030F43DF501F60175287608A4
:1000C800803AF0007F307002031D6C28FB30750207
:1000D80003186F2870287528FF30F307FF30F43DA8
:1000E80060287408803AF00080307002031D7E2872
:1000F80004307302031C8128822886284001AB0142
:10010800AC019528F41F89288A28902803304001DB
:10011800AB000030AC00952874084001AC007308AF
:10012800AB000800FF304001A6002608A700823176
:100138001222803120304001A0000030A10082311D
:100148003422803120304001A0000030A1008231EB
:100158002E2280318B170B178031E520803140012A
:10016800A6002608A800280881319921803140017D
:100178002808A6002608A70007304001A6007D3001
:10018800890BC428A60BC42882313A228031400149
:10019800A6002608A800280827060319D428D52869
:1001A800C028280881319921803140012808A600FB
:1001B8002608A000003081316B218031BB288031B6
:1001C800142840018E010C16A401A5012508803AC7
:1001D800A10080302102031DF32804302402031CEF
:1001E800F628F728F828262901304001A100240A1A
:1001F800FE28A135890BFD282108A2002208A300AA
:100208002308A10021088E04A3304001A100553025
:10021800890B0C29A10B0C2940012309A1002108F5
:100228008E050130A4070030A53D2508803AA100BD
:1002380080302102031D222904302402031C2529B1
:100248002629F82800308131C12180314001A100E0
:10025800A2012108AB002208AC002B0808004001CD
:10026800980199019A010F309200F030930094019F
:100278007E01CE01C301B801C401B901CF01BA01A1
:10028800C501D0013730BB00F030C600FF30D100C7
:100298003F30BC00F030C700FF30D2004A13CA1309
:1002A8004917C9174817C8173D304001A000023048
:1002B800A1008231342281313E304001A000023059
:1002C800A10082312E2281314E011616080040010C
:1002D800A10050019E18712972296D291E1740012D
:1002E800210850019A0070309B009D0140012008B0
:1002F80050019C00400103108B1F83298429852904
:1003080003148B1350011E1555309F00AA309F000F
:100318009E149E18902991298D291E114001031CB5
:100328009629972998298B1708004001A200E030E8
:10033800A00020088E0521304001A0007630890BEE
:10034800A329A00BA329000001304001A000220A24
:10035800AE29A035890BAD2920081F39A100210835
:100368008E0421304001A0007630890BB929A00BFA
:10037800B929000040010E1608004001A0006400E1
:1003880050019E18C829CA294001C3291E174001D7
:10039800200850019A0070309B001E141C080800A9
:1003A8007E014A1FD829D929DC29823104228131CA
:1003B8007E01CA1FE029E129E4298131F521813133
:1003C80008000034FF3401340034013400340034B0
:1003D800FF34FF3400340034013400340134FF3476
:1003E8000034400129082A040319FB29FC29012AA1
:1003F8002A088A0029080A0082317E01CA130800E7
:10040800780879040319092A0A2A0F2A79088A0020
:1004180078080A0082317E014A13080082311C22C2
:1004280082318131332182318231262282310800A2
:100438004F0196019701980199019A019B019C012E
:100448009D010800603051018D008F0191019301D9
:100458009201080040012108AA002008A90008000C
:1004680040012108F9002008F800080040012B0885
:0604780008000800080066
:020000040001F9
:08000000FF3FFF3FFF3FFF3F00
:0A000E00EC3FFF3F9F3FFF3FFF3F25
:10E000000000FF00FF00FF00FF00FF00FF00FF0017
:00000001FF
