:0400000080312528FE
:100008007E1480314101161E0A280B2813280C1E65
:100018000E280F2813288731FE27803123280B1F2D
:10002800162817282328961E1A281B2823288C1ED2
:100038001E281F2823288F314B27803123287E1024
:10004800090080312728B4308400873085002030AB
:1000580086000030870034308F31142780317E10BD
:1000680040018731402F41308F319B27803140013B
:10007800DA005A08031941284228A9283C085A06D8
:100088000319472848284A28BD01BE015A08BC0060
:1000980010305A06031D5128522857280130BD0731
:1000A8000030BE3D612820305A06031D5C285D28BB
:1000B8006128FF30BD07FF30BE3D2608D700250860
:1000C800D6003E08803AF90080307902031D6E2878
:1000D80001303D02031C712872287A28FF30400144
:1000E800D607FF30D73DBD01BE0189281D30203E0F
:1000F800860087014131811F8228832889280130A1
:100108004001D6070030D73D772840015708803A8C
:10011800F90080307902031D932840305602031CF1
:10012800962897289D2800304001A6003F30A5005A
:10013800A9284001D71FA128A228A528A501A60102
:10014800A9285708A6005608A5004D308F31CC279E
:1001580080314001DA005A080319B328B42820294D
:1001680048085A060319B928BA28BC28C901CA017F
:100178005A08C80010305A06031DC328C428C928C5
:100188000130C9070030CA3DD32820305A06031D64
:10019800CE28CF28D328FF30C907FF30CA3D220810
:1001A800D9002108D8004A08803AF900803079023D
:1001B800031DE02803304902031CE328E428EC2847
:1001C80001304001D8070030D93DC901CA010029D2
:1001D80040014A08803AF9007F307902031DF62869
:1001E800FE3049020318F928FA280029FF30400197
:1001F800D807FF30D93DE92840015908803AF9006D
:1002080080307902031D0A2904305802031C0D2985
:100218000E2912294001A101A20120294001D91F5C
:10022800162917291C290030A2000330A100202913
:100238005908A2005808A1004603470403192529B4
:100248002629592900300E190130D4005408031DFD
:100258002E292F2944291430F0000030F1000130F4
:10026800C2070030C33D4308F3004208F20086315C
:10027800E126803171084001C5007008C400592981
:100288004508803AF90080307902031D4D29013074
:100298004402031C50295129562900304001C70047
:1002A8000130C6004001C201C301520353040319BF
:1002B8005E295F29922900308E1B0130D500550830
:1002C800031D672968297D291430F0000030F100EA
:1002D8000130CE070030CF3D4F08F3004E08F20042
:1002E8008631E126803171084001D1007008D000C4
:1002F80092295108803AF90080307902031D862935
:1003080001305002031C89298A298F2900304001B5
:10031800D3000130D2004001CE01CF0108004130A6
:100328008F319B2781314001D900590803199D2934
:100338009E29892A3C0859060319A329A429AB290F
:100348003B353D3E860087010030C03FC13F59081C
:10035800BC0010305906031DB229B329BD293B350D
:100368003D3E860087010130810741310318810A2B
:10037800CD2920305906031DC229C329CD293B3573
:100388003D3E86008701FF3081074131FF30813DC6
:100398007F313B08031DD129D229272A2608D600F8
:1003A8002508D5003B353D3E86008701403FF900D2
:1003B800413FFA007A08803AFB0080307B02031D37
:1003C800E72901307902031CEA29EB29F829FF30D3
:1003D8004001D507FF30D63D3B353D3E86008701BD
:1003E8000030C03FC13F072A40013B353D3E8600F3
:1003F80087014131811F012A022A072A0130D507C6
:100408000030D63DF0295608803AF900803079024C
:10041800031D102A40305502031C132A142A1A2AD5
:1004280000304001A6003F30A500892A4001D61FB0
:100438001E2A1F2A222AA501A601892A5608A600D3
:100448005508A500892A2208D8002108D7003B357D
:100458003D3E86008701403FF900413FFA007A0897
:10046800803AFB0080307B02031D3C2A033079026E
:10047800031C3F2A402A4D2A01304001D70700308B
:10048800D83D3B353D3E860087010030C03FC13F27
:10049800692A40013B353D3E86008701403FF9000F
:1004A800413FFA007A08803AFB007F307B02031D47
:1004B8005F2AFE3079020318622A632A692AFF300C
:1004C8004001D707FF30D83D452A40015808803AF7
:1004D800F90080307902031D732A04305702031C87
:1004E800762A772A7B2A4001A101A201892A4001A4
:1004F800D81F7F2A802A852A0030A2000330A10055
:10050800892A5808A2005708A1004603470403197E
:100518008E2A8F2AC22A00300E190130D4005408BE
:10052800031D972A982AAD2A1430F0000030F100F4
:100538000130C2070030C33D4308F3004208F2000F
:100548008631E126813171084001C5007008C40078
:10055800C22A4508803AF90080307902031DB62A7C
:1005680001304402031CB92ABA2ABF2A00304001CC
:10057800C7000130C6004001C201C30108004001A4
:10058800DE005E08860087010103031DCC2ACD2A00
:100598003A2B5E08263E86008701160001040319DF
:1005A800D62AD72A212B5E08243E86008701403FA1
:1005B800DB00413FDC005C08803ADD0080305D02F2
:1005C800031DE82A96305B02031CEB2AEC2A122B47
:1005D80040015E08053E860087015E0A84008501A9
:1005E8000008DB000130DB35FF3E031DF72A5B35D1
:1005F8005E07DC005C080B3E84008501403F803FBD
:10060800413F813FE830DB000330DC005E08093EF3
:10061800860087015B08C03F5C08C13F40015E0857
:10062800263E860087010030C03FC13F5E08243E59
:10063800860087010030C03FC13F5E08323E860019
:1006480087011600010403192A2B2B2BB72B5E08F0
:10065800263E860087010030C03FC13F5E08243E29
:10066800860087010030C03FC13FB72B5E08263E99
:1006780086008701160001040319432B442BB72B6E
:100688005E08243E86008701403FDB00413FDC00D6
:100698005C08803ADD0080305D02031D552B9630E2
:1006A8005B02031C582B592B802B40015E08053E2A
:1006B800860087015E0A840085010008DB0001309E
:1006C800DB35FF3E031D642B5B355E07DC005C08F1
:1006D8000B3E84008501403F803F413F813FE83029
:1006E800DB000330DC005E08093E860087015B08FA
:1006F800C03F5C08C13FA92B40015E081B3E860035
:1007080087010108031D892B8A2B912B5E081B3E4C
:100718008600870101308100962B5E081B3E86000B
:10072800870181015E081C3E8600870181015E0801
:100738001B3E8600870101355E07DB005B081D3E16
:10074800860087010030C03FC13F5E08263E860014
:1007580087010030C03FC13F5E08243E8600870104
:100768000030C03FC13F08004101A7002708073EED
:1007780086008701403F4001DB00413FDC0041012A
:100788002708053E86008701403F4001DD00413FC4
:10079800DE005C085E06031DD32B5B085D060319AB
:1007A800D62BD72B962C41012708053E86008701BA
:1007B80001083F39A4003F3040010C05DB005B080D
:1007C800410124060319E92BEA2B962C27081C3E25
:1007D8008600870110300106031DF32BF42B432CF0
:1007E800A001A1012108803A4001DB0080305B02B2
:1007F800031D012C063041012002031C042C052C8A
:10080800062C892C01304001DB004101200A4001FF
:100818000E2CDB35890B0D2C5B084101A500250842
:1008280024054001DB004101250840010C05DC00DE
:100838005C085B060319212C222C3D2C410124085D
:1008480025050319282C292C2F2C25084001DB000D
:100858005B088C04342C25094001DB005B088C05FF
:100868000B304001DB006230890B382CDB0B382C55
:10087800000001304101A0070030A13DF62B0530F2
:10088800A2000030A300A31F4A2C4B2C4C2C892C0F
:1008980001304001DB004101220A4001542CDB35C4
:1008A800890B532C5B084101A6002608240540014A
:1008B800DB004101260840010C05DC005C085B06F2
:1008C8000319672C682C832C410124082605031979
:1008D8006E2C6F2C752C26084001DB005B088C04FD
:1008E8007A2C26094001DB005B088C050B3040019F
:1008F800DB006230890B7E2CDB0B7E2C0000FF3086
:100908004101A207FF30A33D472C41012708053EBE
:10091800860087012708073E84008501403F803F05
:10092800413F813F08004001DF005F08033E860029
:100938008701403FDB00413FDC005F0A86008701FA
:10094800403FDD00413FDE005C085E06031DAE2C23
:100958005B085D060319B12CB22C4A2D5F08033ED3
:10096800860087011600FF3ADB001600FF3ADB0419
:100978000319BF2CC02CDA2C5F08053E86008701BE
:100988005F08033E840085010008DB000130DB3589
:10099800FF3E031DCB2C5B355F07DC005C080D3E7A
:1009A80084008501403F803F413F813FF030DB00BC
:1009B8005B088D050B304001DB006230890BE22CAF
:1009C800DB0BE22C000040015F0A8600870101086A
:1009D800DB000130DB35FF3E031DEE2C5B355F0786
:1009E800DC005C080D3E860087015F08053E840038
:1009F8008501403F803F413F813F0708DE000608F0
:100A0800DD005F08073E860087015D08C03F5E087D
:100A1800C13F5F08053E860087013F300105DB00C6
:100A28000C08C0395B048C000130DB005F0A8600CB
:100A38008701010A202DDB35890B1F2D0F305B053F
:100A4800DC000D08F0395C048D000B304001DB0040
:100A58006230890B2D2DDB0B2D2D000040015F0A24
:100A6800860087015F08033E84008501403F803F80
:100A7800413F813FE830DB000330DC005F08093E7E
:100A8800860087015B08C03F5C08C13F0800410140
:100A9800A10040019916F030DC005C088D050B3090
:100AA8004001DC006230890B572DDC0B572D00000C
:100AB80040010C08C0393F388C004101A201A30154
:100AC8002308803A4001DC0080305C02031D6F2D52
:100AD800043041012202031C722D732D742DAD2D9B
:100AE80001304001DC004101220A40017C2DDC3547
:100AF800890B7B2D5C084101A00020084001DC0027
:100B08005C088D0415304001DD004B30DC00BE3040
:100B1800890B8C2DDC0B8C2DDD0B8C2D00004101FD
:100B280020094001DC005C088D0501304101A20765
:100B38000030A33D2308803A4001DC0080305C028D
:100B4800031DA92D043041012202031CAC2DAD2D3B
:100B5800742D04308F315A2785314001DC00DD01C6
:100B68004101210A8600870140015C08C03F5D08F9
:100B7800C13F4101A40124088F315A278531400122
:100B8800DC00DD01410124084001DE000130DE35D2
:100B9800FF3E031DCB2D5E35410121074001DF00DB
:100BA8005F080B3E860087015C08C03F5D08C13FB7
:100BB800410124084001E0000130E035FF3E031DFB
:100BC800E12D6035410121074001E10061080D3E3A
:100BD800860087015C08C03F5D08C13F0130DC002A
:100BE8005C084101A40704302402031CFC2DFD2DE0
:100BF800BF2D08004001DF005F08093E860087011D
:100C08001600FF3ADD001600FF3ADD0403190D2E29
:100C18000E2E792E5F08093E86008701FF30810776
:100C28004131FF30813D7F3116000104031D1D2E27
:100C38001E2E792E5F0A8600870104308F315A27CD
:100C4800853101060319292E2A2E342E40015F080A
:100C580086008701413FDB0004308F316D278531E5
:100C680040015F0A860087010108DD000130DD359B
:100C7800FF3E031D3B2E5D355F07DE005E080B3E21
:100C8800860087015F0A8400850100088F315A2792
:100C9800853101060319512E522E6C2E40015F0A30
:100CA800860087010108DD000130DD35FF3E031DA8
:100CB800592E5D355F07DE005E08860087014B3FD1
:100CC800DB005F0A8600870101088F316D278531B7
:100CD800FF304001DD00FF30DE005F08093E86007E
:100CE80087015D08C03F5E08C13F080040018E1BB8
:100CF8007E2E7F2EE02E8C2E05304001DE000F3038
:100D0800DD00F130890B862EDD0B862EDE0B862E5C
:100D180040018E1F902E912E802EDF01E0010310DE
:100D28004001991E031403189A2E9D2E400199160E
:100D38009F2E4001991215304001DE004B30DD0036
:100D4800BE30890BA52EDD0BA52EDE0BA52E0000CF
:100D580001304001DF070030E03D6008803ADD00E7
:100D680080305D02031DBA2E0A305F02031CBD2EBF
:100D7800BE2E932E3F304001DB0000308F316D27AF
:100D880086313F304001DB0001308F316D278631DD
:100D98003F304001DB0002308F316D2786313F3014
:100DA8004001DB0003308F316D2786314001DB01C4
:100DB80004308F316D2786310800F601F11FE52ECA
:100DC800E62EED2EF009F109F00A0319F10AF601F1
:100DD800F60AF31FF02EF12EFA2EF209F309F20AA1
:100DE8000319F30A0130F4007408F606F701F80154
:100DF800700871040319012F022F312FF501F50A2C
:100E08000E2F0130F035F10D890B062F0130F4005B
:100E18007408F507F11F112F122F052F0130F73530
:100E2800F80D890B132F71087302031D1D2F70080D
:100E38007202031C202F212F262F7008F20271083E
:100E4800F33B77140130F136F00C890B272F013072
:100E5800F502031D302F312F122F76080319352F75
:100E6800362F3B2FF709F809F70A0319F80A78080B
:100E7800F1007708F00008008F31302787310B30F8
:100E88004001E3002630E2005D30890B492FE20B78
:100E9800492FE30B492F003286317A2687313D30BE
:100EA8004001DB000F30DC008F310E2787318B17B4
:100EB8000B17203085314B2587312030843197241A
:100EC800873120308331B823873120308231C322E3
:100ED800873120308531FE2587310B304001E20013
:100EE8006230890B752FE20B752F0000612F80315E
:100EF80025284001980199019A019C01C03092006F
:100F0800D0309300FF30940008309600C0307D0147
:100F18008C00D03096001830A0008D019701E73082
:100F2800A100B5018E019801A201FF308F00FF30AA
:100F38009900FF30A300FF309000FF309A00FF3087
:100F4800A4000830B8009101920193019B019C0113
:100F58009D01A501A601A701B901BA01BB010800BD
:100F68000134FF34FF34FF34FF34FF34FF34FF34DF
:100F7800FF34FF34FF343F340034FF34FF343F3450
:100F88000034FF34FF343F340034FF34FF343F343F
:100F98000034FF34FF3400340034003400340034AB
:100FA8000034003400340034003400340034003499
:100FB8000034003400340034003400340034003489
:100FC8000034003400340034F93043019D009C01A2
:100FD80077309F00FD304001DB000730DC008F31A7
:100FE8000E27873141018C129616803043019E00EE
:060FF800080008000800DB
:101E100040015C08E7005B08E600080040015C0840
:101E2000E5005B08E4000800FE0012001E00FE0B47
:101E3000152F003444018E018F019101053093006C
:101E4000900192019401080041010C100B14003024
:101E50004001DB000030DC008F3108278F310800A3
:101E60008F311A278F3187317D278F318731E827CE
:101E70008F318F3124278F31080040012003031D4B
:101E8000422F432F472F803137208F314A2F813106
:101E900093218F31080041018C12400164086504D0
:101EA0000319532F542F592F65088A0064080A001C
:101EB0008F3108004001DB00640079019018612F28
:101EC000632F40015C2F101740015B0879018C00E3
:101ED00070308D0010140E0808004001DC007901FC
:101EE0009018732F742F6F2F101740015C08790121
:101EF0008C0070308D008F0140015B0879018E00ED
:101F0000400103108B1F852F862F872F03148B13FF
:101F10007901101555309100AA3091009014901855
:101F2000922F932F8F2F10114001031C982F992F60
:101F30009A2F8B170800F70040010E0C0139F000B2
:101F40000E08013909077004F6007708860087013A
:101F500077088400850100080F39F000F101F035A1
:101F6000F10DF035F10D0030F2009030F300700803
:101F70007207F4007108733DF50076087407840059
:101F800075080318750A8500000881007708860027
:101F90008701010830390800F70040010E0E890C56
:101FA000890C0139F0000E0E890C01390907700403
:101FB000F60077088600870177088400850100080D
:101FC0000F39F000F101F035F10DF035F10D003071
:101FD000F2009030F30070087207F4007108733D4E
:101FE000F50076087407840075080318750A8500E3
:101FF0000008810077088600870101083039080051
:102000000334023401340034233400340134003406
:1020100013340234003400340334053404340034FF
:1020200003340334043410340334053403342034CB
:10203000E834073400340034003400340034003411
:082040000E340F3400340034AB
:020000040001F9
:04000E008C3FE73FFD
:04001400FF3FFF3F6C
:10E000003F003F003F003F000000FF00FF00FF0017
:00000001FF
