:1000000080311E28080008007E1480314101161A34
:100010000C1E0E289631AB2680311C280B1F1C2885
:10002000971B8D1F17289631C72680311C28961ADA
:100030008C1E1C289631FB267E100900803120285A
:10004000B0308400963085005E3086000030870036
:1000500004309631BA268031B6308400873085006E
:10006000A03086000030870045309631BA268031B6
:10007000FB01FC01FD0120308400003085002B30A5
:100080009631B4268031E530840000308500083098
:100090009631B4267E1040018831A82840010D0E0B
:1000A0000139D7002A082B04031973285708031DA8
:1000B0005B2801305C2800302C0603197328570890
:1000C000031D6428013065280030F0002B088A00E9
:1000D0002A080A00803140015708031D71280130A9
:1000E00072280030AC003808031D08007D08031D8D
:1000F000A0285708031D7F280130B20708003208E6
:10010000031996280130FD000130B300B401FB0152
:10011000FC01A201A301B5014101EB01EC01FF309B
:100120004001B9000130B100AF010800200A0319F5
:10013000210A031908000130A0070030A13D080082
:1001400033080319DA2957080319B0280130B10719
:10015000EC303102031C012CFD01B201B101012C74
:10016000D401D501B90120303202031CC7282A303E
:1001700032020318C72806303102031CC7280C308E
:1001800031020318C7288F30D400983016295E300A
:100190003202031CDB28B33032020318DB282F3075
:1001A0003102031CDB285B3031020318DB287E3070
:1001B000D400983016295E303202031CEF28B33089
:1001C00032020318EF2817303102031CEF282E30BB
:1001D00031020318EF286D30D400983016293C30D6
:1001E0003202031C03294D303202031803293C302C
:1001F0003102031C03294D303102031803295C30FE
:10020000D4009830162928303202031C18293F30B8
:1002100032020318182913303102031C1829213027
:100220003102031818294B30D4009830D500942996
:100230000B303202031C202911303202031C282902
:1002400016303202031C5529213032020318552979
:100250000B303102031C302911303102031C3829C4
:1002600016303102031C552921303102031855295B
:100270003A30D4009830D5003108AE001130320247
:10028000031C462921303202031C4E291130310251
:10029000031C52292130310203185229AD0140308C
:1002A000AF0094290130AD00942923303202031CA1
:1002B0006B292E30320203186B290B303102031CDC
:1002C0006B291130310203186B292930D400983082
:1002D000D500AE01522903303202031C73290730C6
:1002E0003202031C7B2906303202031C92290D3096
:1002F00032020318922907303102031C83290C3083
:100300003102031C8B290E303102031C9229173055
:100310003102031892291830D4009830D5003108E2
:10032000AE005229FD01BA017D080319A6293A3011
:10033000F0000030F1005508F3005408F2001130CD
:10034000F4000030F5009731502780314A1CD52940
:1003500017303A060319D52909303A060319D52969
:1003600031083C020318C9293C08CB00CC01CB352D
:10037000CC0D4C08803ACD0080304D02031DC229BF
:1003800031084B02031CC9294001CA18D129013088
:10039000D22940012D08031DD529CA1CD1290130BD
:1003A000D22900308C31782480310130B200B10183
:1003B000B301012C34080319F72BD2015708031994
:1003C000E72A0130B10747083906031D0F2A480301
:1003D000031D0F2A4A18F1292E30D0000030D10019
:1003E000F329D001D1015108803ACB0080304B0273
:1003F000031DFC293108500203180F2A40014A1836
:10040000092A3F083202031C0B2A32084002031C4F
:100410000B2AC801E92AFD01B201B101E92A400114
:100420003A03031D372A0C303102031C372A0B30E4
:100430003902031C372A3908013EC7000130D200B7
:100440003908CB00CC014B08CC00CB014B08003E57
:10045000CE00F5304C3DCF004E08A2044F08A30457
:1004600045083907013EC6000A30B100E92A1730B5
:100470003A06031D802A4808031D802A3E08CB0047
:10048000CC01CB35CC0D4C08803A803C031D4A2A68
:100490004B083102031C542A0F3040013902031C5F
:1004A000542A1130C700A52A113040013902031C1B
:1004B000E92A1130BA00C3010B30C4000B30C5006B
:1004C0001630C6000230A235A30D890B632A7C08C2
:1004D000CC007B08CB000630CC36CB0C890B6C2AC9
:1004E0004B08A2044C08A3043F30FB050030FC0578
:1004F0002D08CB00CC014B08FB044C08FC04E92A76
:100500004A1CAA2A3E08CB00CC01CB35CC0D4C08A6
:10051000803A803C031D8E2A4B083102031CAA2A14
:1005200040014708FE3ECB00FF3003180030CC00EE
:100530004C08803A803C031D9F2A4B083902031C5B
:10054000AA2A40014808031DAA2A0130D20001301E
:10055000C800E92AEC3040013102031CE92A4708AF
:10056000FF3ECB00FF3003180030CC0039084B06AB
:100570004C04031DC12A4808031DC12A0130B907D4
:10058000E92A02303A060319C92A1C303A06031D2B
:100590000B2A3908031D0B2A073021021A300319D0
:1005A00020020318E52A0130C8000230BA003908D9
:1005B000C7006108A3006008A2005F08FC005E0895
:1005C000FB003614A001A101E92AB801E92A013093
:1005D000D20052080319012C4A1C952B32083C0208
:1005E0000318482B09303A06031D102B0430390636
:1005F000031D102B0C303202031C102B2430470635
:10060000031D092B01308C317824803101304001E9
:10061000462B00308C31782480314001AD01922B83
:10062000CA18142B0130152B00308C3178248031FE
:1006300009303A06031D392B04303906031D392BC6
:100640000C303202031C392B01308C31782480317C
:100650003E08CB00CC01CB35CC0D4C08803ACD0008
:1006600080304D02031D362B31084B02031C0D2B2D
:10067000062BCA1C3D2B01303E2B00308C317824D8
:100680008031CA1C452B0130462B0030AD00922B27
:100690003B083202031C902B32083C02031C902BB7
:1006A0002E083E0203186F2B3E08CB00CC01CB3541
:1006B000CC0D4C08803ACD0080304D02031D622BDA
:1006C0002E084B02031C6F2B40012D08031D6A2BC3
:1006D00001306B2B0030D6005608AD00722B400164
:1006E0002D08D60009303A06031D8B2B3903031D54
:1006F0008B2B5603031D8B2B2430C7000530C30002
:1007000043080F3EC4004408013EC50045080F3EA3
:10071000C600A201A30156088C3178248031922BA7
:10072000FD01B1013108AE00F32B03303A06031D81
:10073000CD2B10303906031DCD2B05303202031CA2
:10074000B12B0D3032020318B12B3C303102031CA7
:10075000B12B4D3031020318B12BB4010130B90770
:10076000F42B05303202031CCA2B0D303202031861
:10077000CA2B0A30BA001030C5002030C600203025
:10078000C7000F303102031CEF2B20303102031C55
:10079000DD2BEF2BFD01B101F42B3B083202031CD2
:1007A000DF2B32083C02031CDF2B3D083102031C07
:1007B000DF2B31083E02031CDF2B0130F02B3F08FA
:1007C0003202031CCA2B32084002031CCA2B410808
:1007D0003102031CCA2B31084202031CCA2B003011
:1007E0008C3178248031B4010130B200012C5708DB
:1007F000031DFD2B0130B207012C0130B400013084
:10080000B1007D080319080047083906031D0800D8
:100810004808031D08007C085F06031D112C7B0897
:100820005E06031D1D2C04302102BC30031920027A
:1008300003181D2C0130B0071E2CB0013A03031D14
:100840002B2C30030319282C02303006031D2B2CCF
:10085000A001A101B52C0130B80002303A06031DF9
:10086000482C3908031D482C073021021A3003197F
:1008700020020318472C6108A3006008A2005F084B
:10088000FC005E08FB003614A001A101482CB80151
:1008900005303A06031D862C410166084001CB0055
:1008A0000430CB36890B512C0F304B05CC000F3068
:1008B000410166054001CD00410165084001CE00BF
:1008C0000430CE36890B612C0F304E05CF0041012C
:1008D00065080F3940014F064D064C06D3000F3016
:1008E000410167054001CB004B085306031DB801C9
:1008F00041016708680669064001D30041016A08A2
:1009000040015306031DB8013508B60409303A0604
:10091000031D902C24304706031D902C1530912C7C
:100920003A08B7002308A9002208A80002303A06B6
:10093000031D9E2C2308E1002208E00007303A0640
:10094000031DA92C2F08CB00CC014B08FB044C083D
:10095000FC047C08A7007B08A60041016C0840014C
:10096000A50041016B084001A40038080319D92CE7
:100970007C085F06031DBE2C7B085E06031DCF2C82
:1009800023086106031DC62C22086006031DCF2C18
:1009900008302102E13003192002031C3614230819
:1009A000E1002208E0007C08DF007B08DE00A001F7
:1009B000A101FD01FB01FC01B201B1010800013000
:1009C000BF070030C03DC630F0000030F100973165
:1009D000C8278431D30053080319552D410141081C
:1009E000400153060319F72C4101C201C301400124
:1009F00053084101C100103040015306031D052D6D
:100A000001304101C20700300D2D20305306031D77
:100A10000E2DFF304101C207FF30C33D41012B08BD
:100A20004001D00041012A084001CF0041014308A4
:100A3000803AF90080307902031D202D01304202F6
:100A4000031C272DFF304001CF07FF30322DC2306D
:100A50008600003087004131811F362D0130400172
:100A6000CF070030D03D4101C201C3014001500811
:100A7000803AF90080307902031D402D40304F024A
:100A8000031C472D00304101AB003F30542D400185
:100A9000D01F4E2D4101AA01AB01552D5008410137
:100AA000AB0040014F084101AA0040010E19632D1F
:100AB00041014708031DA12D4008CC003F08CB0091
:100AC0000130C700A12D410147080319A12DCB30EA
:100AD000860000308700A0308400003085001F3180
:100AE000403F0002F9000131413F003BFA00790824
:100AF0004001CB007A08CC004101C7010030400121
:100B00004C02143003194B02031CA12D4101400873
:100B1000CE003F08CD00033040014C02E8300319FD
:100B20004B02031C9A2D03304101CF00C901CA01B9
:100B3000C801A12D01304101C9070030CA3D013073
:100B4000C800410148080319CC2DCD308600003083
:100B50008700A0308400003085001F31403F000234
:100B6000F9000131413F003BFA0001307A02F530D3
:100B700003197902031CCC2D49034A04031DC22D1D
:100B80000130C82D023049064A04031DC92D023028
:100B9000CF00C901CA01C801D530F0000030F10012
:100BA00088310B208431D30053080319432E4101AF
:100BB0005008400153060319E02D4101D101D20133
:100BC000400153084101D000103040015306031D7D
:100BD000EE2D01304101D1070030F62D20305306B3
:100BE000031DF72DFF304101D107FF30D23D4101F8
:100BF00027084001D200410126084001D1004101EF
:100C00005208803AF90080307902031D092E033022
:100C10005102031C102E01304001D1070030202E5C
:100C200041015208803AF9007F307902031D1A2EE3
:100C3000FE3051020318242EFF304001D107FF304F
:100C4000D23D4101D101D20140015208803AF90060
:100C500080307902031D2E2E04305102031C342EE5
:100C60004101A601A701432E4001D21F3C2E0030B6
:100C70004101A7000330422E52084101A700400164
:100C800051084101A60040018E1B512E410156081A
:100C9000031D8F2E4008DB003F08DA000130D6002C
:100CA0008F2E4101560803198F2EDA30860000304E
:100CB0008700A0308400003085001F31403F0002D3
:100CC000F9000131413F003BFA0079084001CD00B5
:100CD0007A08CE004101D601003040014E021430A6
:100CE00003194D02031C8F2E41014008DD003F080F
:100CF000DC00033040014E02E83003194D02031CB2
:100D0000882E03304101DE00D801D901D7018F2E92
:100D100001304101D8070030D93D0130D7004101F1
:100D2000570803190800DC30860000308700A03027
:100D30008400003085001F31403F0002F90001317E
:100D4000413F003BFA0001307A02F5300319790285
:100D5000031C080058035904031DB02E0130B62EA1
:100D6000023058065904031DB72E0230DE00D801A8
:100D7000D901D701080020083F3E4001D9000030CA
:100D80004201213D4001DA00893111218631003ACA
:100D900003190800420120083F3E86000030213D33
:100DA000870007300106031D08002008403E86002A
:100DB0000030213D87001600013AA2001600A2046F
:100DC000031D08002008860087014631403FA60029
:100DD000413FA7002008860087014A31403FA40018
:100DE000413FA5002008443E86000030213D870099
:100DF000010803191A2F462F0130A6070030032FD0
:100E0000FF30A607FF30A73D5D2FFF30A407FF305E
:100E10000C2F0130A4070030A53D5D2FA601A701CE
:100E20005D2F0130162F0230162F0330A600003040
:100E3000A7005D2F2008423E86000030213D87003C
:100E4000403FA200413FA3002308003A0319292F85
:100E50005D2F2208013A03190E2F033A0319112FAF
:100E6000013A0319132F073A0319152F143A0319DE
:100E7000052F013A0319092F313A0319FC2E013AC3
:100E80000319002F143A03195D2F5D2F2008423EED
:100E900086000030213D8700403FA200413FA30073
:100EA0002308003A0319552F5D2F2208103A031921
:100EB000052F013A0319092F5D2F2708803AA20058
:100EC00080302202031D662F04302602031C712F7E
:100ED000420120088600870146310030C03FC13FF3
:100EE000892F4201A71F812F0330A2000030A300E9
:100EF00020088600870146312208C03F2308C13FF1
:100F0000892F20088600870146312608C03F270820
:100F1000C13F2508803AA20080302202031D922F93
:100F200040302402031CA22F3F304201A2000030B7
:100F3000A3002008860087014A312208C03F230809
:100F4000C13F08004201A51FAD2F20088600870180
:100F50004A310030C03FC13F0800200886008701A9
:100F60004A312408C03F2508C13F0800013402343B
:100F700002340034FF34FF34FF34FF34FF34FF34D5
:100F8000FF34FF34FF34FF343F340034FF34FF3488
:100F90003F340034FF34FF343F340034FF34FF3437
:100FA0003F340034FF34FF34003400340034003464
:100FB0000034003400340034003400340034003491
:100FC0000034003400340034003400340034003481
:100FD0000034003400340034003400340034003471
:100FE0000034003400340034003400340034003461
:100FF0000034003400345A08AB005908AA00080035
:1010000041010C100B1400304001D9000030DA000F
:101010009631CF26080040010E0E890C890C01394B
:10102000F2000E0E890C0139F3000130F335890B03
:10103000162873087204F80070088600710887008B
:10104000700884007108850000080F39F200F30170
:10105000F235F30DF235F30D0030F4009830F50061
:1010600072087407F6007308753DF7007808760774
:10107000840077080318013E85000008810070088D
:1010800086007108870001083039080040018E1B76
:10109000080040018E1B592805304001DC000F304C
:1010A000DB00F130890B5228DB0B5228DC0B522875
:1010B00049284201A001A10103104001991E031417
:1010C000031C6528400199166728400199121530C4
:1010D0004001DC004B30DB00BE30890B6D28DB0BA0
:1010E0006D28DC0B6D28000001304201A0070030A4
:1010F000A13D2108803A4001DB0080305B02031DE6
:1011000084280A3042012002031C5D283F30400140
:10111000D90000309731712788313F304001D90024
:1011200001309731712788313F304001D9000230BA
:101130009731712788313F304001D9000330973112
:10114000712788314001D901043097317127080097
:101150009731062788310B304201AF002630AE00B0
:101160005D30890BB128AE0BB128AF0BB12800322E
:10117000883146208831E7304001D9001630DA0046
:101180009631D7268831AD304001D9001630DA00CB
:101190009631DF2688318B170B17A0304001DA001B
:1011A0000030DB008931A82188318031032088316B
:1011B000C0304001D9001630DA008731FB27883172
:1011C000A0304201A0000030A1008631BB2688314A
:1011D000A0304001D9000030DA008D31432588313C
:1011E000A0304001D9000030DA008A31472288312E
:1011F000A0304001D9000030DA008A31F522883170
:10120000A030DB000030DC008B31AF2388310B30A5
:101210004201AE006230890B0B29AE0B0B29000096
:10122000E0284101EF0140013808031D6729A52985
:1012300026092706031D7B29FF30A6050030A705D8
:101240002408DC00DB015B08A6045C08A704432932
:101250002609270603193C29EE3028068730031992
:101260002906031D41290B30B7002708DB00DC01EC
:101270005B08A8005C08A900FF30A6050030A705A0
:1012800043293830B70001304101EF007B2927089E
:10129000260603193C297B2926090139DB0026088B
:1012A000DC000130DC36890B522901305C05DD00A1
:1012B0005D085B06031D7B290130A736A60C890B50
:1012C0005D294329DF30A805FF30A90543293708E8
:1012D000023A03192829013A03191829043A031973
:1012E0006229163A03194C29063A03194C29253A62
:1012F00003194729272941016F0803199D29400136
:10130000590886005A088700370881005908860066
:10131000870141312808C03F2908C13F590886008C
:10132000870143312608C03F2708C13F590886007E
:1013300087014531360881009F294001B701A60188
:10134000A701A801A901B601B80141016F08080071
:101350009916F0308D0520304201A0002930890B0C
:10136000AF29A00BAF29003240010C08C0393F382B
:101370008C004201AB01AC012C08803AA000803007
:101380002002031DC52904302B020318F529013062
:101390004201A0002B0ACD29A035890BCC292008B9
:1013A000AA002A0840018D0415304201A1004B30EB
:1013B000A000BE30890BDA29A00BDA29A10BDA29AB
:1013C000000042012A0940018D0501304201AB07AE
:1013D0000030AC3D2C08803AA00080302002031D74
:1013E000F32904302B02031CC72904309731152739
:1013F00089314201A000A10140015A0886008701FD
:10140000463142012008C03F2108C13FAD012D08EF
:101410009731152789314201A000A1012D08A200B2
:10142000A301A235A30DA235A30D220840015A073E
:101430004201A400230840015B3D4201A5002408AD
:10144000860087014E312008C03F2108C13F2D088A
:10145000A600A701A635A70DA635A70D26084001B1
:101460005A074201A800270840015B3D4201A9003C
:1014700028088600870150312008C03F2108C13F5D
:101480000130AD0704302D0203180800072A59085F
:10149000860087014C31403F4201A000413FA1003E
:1014A00040015908860087014A31403F4201A200AD
:1014B000413FA30021082306031D602A20082206BD
:1014C0000319080040015908860087014A310108C4
:1014D0003F394201AA003F3040010C054201A00003
:1014E00020082A0603190800A401A5012508803A4E
:1014F000A00080302002031D7F2A0630240203183A
:10150000AD2A01304201A000240A872AA035890BA8
:10151000862A2008A80028082A05A00028084001DB
:101520000C054201A100210820060319A72A2A0858
:10153000280503199E2A280840018C042030420106
:10154000A0002930890BA22AA00BA22A0032013068
:101550004201A4070030A53D762A4201A601A70159
:101560002708803AA00080302002031DB92A0630E7
:1015700026020318E72A01304201A000260AC12AE8
:10158000A035890BC02A2008A90029082A05A00037
:10159000290840010C054201A10021082006031979
:1015A000E12A2A082905031DD82A290940018C05AA
:1015B00020304201A0002930890BDC2AA00BDC2A54
:1015C000003201304201A6070030A73DB02A400199
:1015D0005908860087014A315908840085010C3179
:1015E000403F803F413F813F0800590886005A082C
:1015F00087000103031D852B59082F3E860000300C
:101600005A3D87000108031D202B402B59088600F6
:101610008701413102300106031D392BE830DB0020
:101620000330DC0059088600870144315B08C03F65
:101630005C08C13F59088600870143310114392BEA
:1016400059082F3E860000305A3D87000108DB0014
:10165000DC015C08003A03192E2B392B5B08013A98
:101660000319392B033A0319392B013A0319062BB5
:10167000392B59082F3E860000305A3D87008101E2
:1016800059083E3E860000305A3D87000108031984
:101690000800642B59088600870142310230010698
:1016A000031D7D2BE830DB000330DC005908860089
:1016B000870144315B08C03F5C08C13F5908860080
:1016C0008701433181147D2B59083E3E860000304E
:1016D0005A3D87000108DB00DC015C08003A031971
:1016E000722B7D2B5B08013A03197D2B033A0319FA
:1016F0007D2B013A03194A2B7D2B59083E3E86006B
:1017000000305A3D87008101080059082F3E8600AD
:1017100000305A3D870001080319080059082F3E80
:10172000860000305A3D87000108DB00DC015C08C0
:10173000003A03199C2BA72B5B08013A0319A72B2E
:10174000033A0319A72B013A0319A72BA72B590812
:101750002F3E860000305A3D8700810108005B085B
:10176000860087014431403F4201A000413FA10073
:101770002108803AA20080302202031DC12B0130D3
:101780002002031CCF2B40015B08860087014431F7
:10179000FF3081074131FF30813D7F31080040013A
:1017A0005B0886005C0887000103031D08005B08D6
:1017B000860087014331011C552C5B088600870198
:1017C0004331FE3081055B08860087014A315B08A2
:1017D000840085010631003F4201A000013FA100C5
:1017E000A035A10DA035A10D200840015B074201E5
:1017F000A200210840015C3D4201A30022088400B0
:1018000085010E31403F803F413F813F40015B08F1
:10181000860087014631403F4201A000413FA100C0
:10182000A035A10DA035A10D200840015B074201A4
:10183000A200210840015C3D4201A300220886006D
:1018400087014E3140015B088400850106310008A4
:10185000973115278B3101060319552C40015B0880
:10186000860087014631403F4201A000413FA10070
:10187000A035A10DA035A10D200840015B07420154
:10188000A200210840015C3D4201A300220886001D
:1018900087014E3101084001D9005B0886008701AD
:1018A00046310108973171278B3140015B08860072
:1018B00087014331811C08005B08860087014331A2
:1018C000FD3081055B088600870146310430973181
:1018D00015278B3101060319080040015B088600BB
:1018E000870146310108D90004309731712708007B
:1018F000F20043083902031C9D2C440839020318E6
:101900009D2C49080319902C7208F000F10143083E
:101910003902890A8D2CF035F10D890B8B2C982C0E
:101920000130A235A30D890B912C7208F000F10152
:101930007008A2047108A304C02C45083902031CD6
:10194000C02C460839020318C02C49080319B42CCE
:101950007208F000F10145083902890AB12CF0350E
:10196000F10D890BAF2CBC2C0130FB35FC0D890B24
:10197000B52C7208F000F1017008FB047108FC043A
:1019800003303A06031DDD2C11303902031CDD2C17
:10199000153039020318DD2C7208F000F101390806
:1019A000EF3E890AD52CF035F10D890BD32C700848
:1019B0004101EB047108EC043F2D05303A06031D8C
:1019C0003F2D14303902031CF92C1830390203184A
:1019D000F92C7208F000F1013908F83E890AF22C5E
:1019E000F035F10D890BF02C7008FB047108FC0434
:1019F0000C2D18303902031C0C2D1C303902031831
:101A00000C2D7208F0003908EC3E890A082DF035DB
:101A1000890B072D7008B5043030390203183F2DAB
:101A200072080319292D3908F0000330F036890BAC
:101A3000162D7008E53E860087010130F100390857
:101A40000739890A242DF135890B232D710881046A
:101A50003F2D3908F0000330F036890B2C2D70082B
:101A6000E53E860087010130F10039080739890A0F
:101A70003A2DF135890B392D7108FF3A8105013076
:101A80004001B90708005908860087014831403FE6
:101A90004201A000413FA100400159088600870192
:101AA0004631403F4201A200413FA30021082306E6
:101AB000031D5C2D20082206031908004001590867
:101AC0008600870148311600FF3A4201A000160047
:101AD000FF3AA0040319902D4001590886008701A0
:101AE0004A315908840085010831003F4201A000B5
:101AF000013FA100A035A10DA035A10D2008400196
:101B000059074201A200210840015A3D4201A300A9
:101B10002208840085011031403F803F413F813FD2
:101B2000F03040018D0520304201A0002930890BA2
:101B3000972DA00B972D0032400159088600870190
:101B40004631403F4201A000413FA100A035A10D18
:101B5000A035A10D2008400159074201A20021082B
:101B600040015A3D4201A3002208860087015031FE
:101B700040015908840085010A31403F803F413FC0
:101B8000813F07084201A5000608A400400159084A
:101B9000860087014C3142012408C03F2508C13F1F
:101BA00040015908860087014A313F300105420152
:101BB000A00040010C08C0394201200440018C0003
:101BC00001304201A00040015908860087014631DA
:101BD000010A4201EC2DA035890BEB2D0F302005B9
:101BE000A10040010D08F0394201210440018D009F
:101BF00020304201A0002930890BFC2DA00BFC2DC8
:101C00000032400159088600870148311600FF3A2A
:101C10004201A0001600FF3AA00403192B2E400138
:101C200059088600870141310103031D2B2E5908F5
:101C30008600870143318114E8304201A00003305F
:101C4000A100400159088600870144314201200863
:101C5000C03F2108C13F4001590886008701463135
:101C60005908840085010831403F803F413F813F52
:101C70000800C630F0000030F1009731C8278E31DF
:101C8000D80058080319812F410141084001580626
:101C90000319562E41013E35C23E86000030873D75
:101CA0003E350030873D0030C03FC13F40015808FD
:101CB0004101C100103040015806031D762E41013C
:101CC0003E084001CB00CC01CB35CC0DC230CD005D
:101CD0000030CE004B084D0786004C084E3D870073
:101CE0000130810741310318810A912E20305806B6
:101CF000031D912E41013E084001CB00CC01CB35A4
:101D0000CC0DC230CD000030CE004B084D07860010
:101D10004C084E3D8700FF3081074131FF30813D47
:101D20007F3141013E08031D052F2B084001D500DE
:101D300041012A084001D40041013E084001CB0086
:101D4000CC01CB35CC0DC230CD000030CE004B08DD
:101D50004D0786004C084E3D8700403FCF00413F75
:101D6000D0005008803AD10080305102031DBA2EB5
:101D700001304F02031CC12EFF304001D407FF3059
:101D8000D82E41013E084001CB00CC01CB35CC0D13
:101D9000C230CD000030CE004B084D0786004C0805
:101DA0004E3D87004131811FE52E0130D4070030C0
:101DB000D53D41013E35C23E86000030873D3E356F
:101DC0000030873D0030C03FC13F40015508803A98
:101DD000CB0080304B02031DEF2E40305402031C19
:101DE000F62E00304101AB003F30032F4001D51FDC
:101DF000FD2E4101AA01AB01812F55084101AB0025
:101E0000400154084101AA00812F27084001D70052
:101E1000410126084001D60041013E084001CB00A7
:101E2000CC01CB35CC0DC230CD000030CE004B08FC
:101E30004D0786004C084E3D8700403FCF00413F94
:101E4000D0005008803AD10080305102031D2A2F63
:101E500003304F02031C312F01304001D607003000
:101E6000552F41013E084001CB00CC01CB35CC0DB4
:101E7000C230CD000030CE004B084D0786004C0824
:101E80004E3D8700403FCF00413FD0005008803A90
:101E9000D1007F305102031D4F2FFE304F02031837
:101EA000622FFF304001D607FF30D73D41013E355C
:101EB000C23E86000030873D3E350030873D003011
:101EC000C03FC13F40015708803ACB0080304B02F1
:101ED000031D6C2F04305602031C722F4101A60112
:101EE000A701812F4001D71F7A2F00304101A700A1
:101EF0000330802F57084101A700400156084101D7
:101F0000A60001304101BF070030C03D40010E195D
:101F1000942F41014708031DD22F4008CC003F08F1
:101F2000CB000130C700D22F410147080319D22F3F
:101F3000CB30860000308700A03084000030850060
:101F40001F31403F00024001CB000131413F003BC7
:101F5000CC004B08D2004C08D3004101C70100302F
:101F600040015302143003195202031CD22F4101C5
:101F70004008CE003F08CD00033040015302E83056
:101F800003195202031CCB2F03304101CF00C901BA
:101F9000CA01C801D22F01304101C9070030CA3D32
:101FA0000130C8004101480803190800CD308600FF
:101FB00000308700A0308400003085001F31403F92
:101FC00000024001CB000131413F003BCC00013019
:101FD0004C02F53003194B02031C08004101490370
:101FE0004A04031DF52F0130FB2F023049064A0435
:101FF000031DFC2F0230CF00C901CA01C80108002F
:102D56000800080080314E200800FF34FF34FF349D
:102D6600FF34640080010131890BB52E0034FE006A
:102D760012001E00FE0BBB2E003470080319C52E70
:102D860099120800991608008D13420131088A002D
:102D960030080A00963108005A084201B300400183
:102DA60059084201B20008005A084101EE004001EC
:102DB60059084101ED0008005A084201B1004001DE
:102DC60059084201B000080041012003031DEE2E00
:102DD6008431DF2408008E313926080044018E0133
:102DE6008F01910105309300900192019401080032
:102DF6008C126D086E04031908006E088A006D08AF
:102E06000A00973108009631F126973197319227BB
:102E1600973197312727973197313A27973188315C
:102E2600002008004001D900192F400164007901F3
:102E36009018182F10174001590879018C0070302E
:102E46008D0010140E080800F93043019D009C0106
:102E560077309F00AC304001D9001630DA00963149
:102E6600D7268C129616803043019E000800033048
:102E7600460190008F01910183308D008C01023054
:102E86004001D9000030DA009631DF2641018D136A
:102E96009717C03046018E0008007308F7007208C5
:102EA600F6007008F9000130F4020030F53B740AB0
:102EB6000319750A03190800760884007708850047
:102EC6000008F8000130F6070030F73D7908860063
:102ED6008701780881000130F907562FDA00790159
:102EE6009018722F101740015A0879018C00703023
:102EF6008D008F014001590879018E0003108B1B4C
:102F060003148B13101555309100AA3091009014BC
:102F160090188B2F1011031C08008B170800400116
:102F2600980199019A019C019201D0309300FF30DB
:102F36009400083096007D018C01C0309600183050
:102F4600A0008D0110309700E730A100B5018E0179
:102F56009801A201FF308F00FF309900FF30A300D7
:102F6600FF309000FF309A00FF30A4000830B80010
:102F76009101920193019B019C019D01A501A6016E
:102F8600A701B901BA01BB01080040010E0C0139C5
:102F9600F2000E080139F3000130F335890BD02F0A
:102FA60073087204F80070088600710887007008BC
:102FB60084007108850000080F39F200F301F2352C
:102FC600F30DF235F30D0030F4009830F500720879
:102FD6007407F6007308753DF700780876078400D5
:102FE60077080318013E85000008810070088600F6
:102FF60071088700010830390800033402340134AF
:1030060000342334003401340034133402340034E1
:1030160000340334053404340034033403340434F4
:10302600103403340534033420341734033406349F
:1030360003340634003400340034003400340934D8
:103046000934113416340034003403340934053499
:103056000C340534093400340034003400340534AB
:103066000D340D341534153400340034033407346C
:103076000B3410340B341034003400340034003474
:103086000134073407340D340D3400340034013470
:10309600053403340A340E34183403340A34043441
:1030A6000934003410341C342834303401340134EB
:1030B6000034033405340C340F341F3405340C3417
:1030C60004340B34003410341534253425340134DB
:1030D60001340034023405340C34113422340534FE
:1030E6000C3405340C34003400340034003400341D
:1030F600013401340034023405340C3411342234E2
:1031060005340C3405340C340034103410342034B7
:10311600203401340134003401340F3415340734BB
:103126000B3407340B3407340B340F3414340034A7
:103136000F3414340034013400343A341734003474
:1031460000340034003400340034DF3416340034E4
:10315600003427341734003400340034003400348B
:0A3166000034D7341634003400346E
:020000040001F9
:04000E008C3FE73FFD
:04001400FF3FFF3F6C
:10E000003F003F003F003F000000FF00FF00FF0017
:00000001FF
