:0400000080313428EF
:1000060008007E14803100308600003087000B1F08
:100016000D280E2832284101991F122813281B2863
:100026008F1F162817281B288D315E258031322810
:10003600191F1E281F2827280F1F22282328272894
:100046008D31622580313228961E2A282B283228A7
:100056008C1E2E282F2832288D31FB2580317E10CC
:100066000900803136286A3084008D3085005D3085
:1000760086000030870004308D31982580314B3062
:10008600840087308500A030860000308700393034
:100096008D3198258031F901FA01FB01FC01FD0142
:1000A600443084000030850019308D31922580312E
:1000B6007E10400186311E2EC130F0000030F10066
:1000C6008731BC2780314001AC002C0803196C280D
:1000D6006D28CB2941013C0840012C0603197428E0
:1000E6007528822841013B35BD3E860087010030D8
:1000F600873D3B350030873D0030C03FC13F400162
:100106002C084101BC00103040012C06031D8C2830
:100116008D28A42841013B084001A000A101A0357B
:10012600A10DBD30A2000030A300200822078600E2
:100136002108233D87000130810741310318810AD8
:10014600C12820302C06031DA928AA28C128410150
:100156003B084001A000A101A035A10DBD30A200C1
:100166000030A3002008220786002108233D8700CF
:10017600FF3081074131FF30813D7F3141013B082E
:10018600031DC628C728432926084001A9004101A6
:1001960025084001A80041013B084001A000A1013B
:1001A600A035A10DBD30A2000030A3002008220713
:1001B60086002108233D8700403FA400413FA5005B
:1001C6002508803AA60080302602031DEC2801305F
:1001D6002402031CEF28F0280329FF304001A8075A
:1001E600FF30A93D41013B35BD3E86008701003009
:1001F600873D3B350030873D0030C03FC13F1E295B
:1002060041013B084001A000A101A035A10DBD3070
:10021600A2000030A3002008220786002108233D03
:1002260087004131811F182919291E290130A80785
:100236000030A93DF52840012908803AA000813008
:100246002002031D282900302802031C2B292C29F3
:10025600322900304101A600FF30A500CB2940011C
:10026600A91F362937293B294101A501A601CB291A
:1002760029084101A600400128084101A500CB2913
:1002860022084001AB00410121084001AA004101BA
:100296003B084001A000A101A035A10DBD30A20080
:1002A6000030A3002008220786002108233D87008E
:1002B600403FA400413FA5002508803AA6008030B3
:1002C6002602031D682903302402031C6B296C29AE
:1002D6007F2901304001AA070030AB3D41013B3583
:1002E600BD3E860087010030873D3B350030873DA7
:1002F6000030C03FC13FA72941013B084001A00093
:10030600A101A035A10DBD30A2000030A300200838
:10031600220786002108233D8700403FA400413F75
:10032600A5002508803AA6007F302602031D9D29D8
:10033600FE3024020318A029A129A729FF30400175
:10034600AA07FF30AB3D712940012B08803AA00077
:1003560080302002031DB12904302A02031CB4296F
:10036600B529B9294101A101A201CB294001AB1F41
:10037600BD29BE29C42900304101A2000330A100D5
:10038600CB292B084101A20040012A084101A10006
:100396004101460347040319D129D2290A2A4001FB
:1003A6000E0C890C0139A7002708031DDB29DC295F
:1003B600F2291430F0000030F10001304101C2078B
:1003C6000030C33D4308F3004208F2008531C325DF
:1003D600803171084101C5007008C4000A2A410134
:1003E6004508803A4001A00080302002031DFE2906
:1003F600013041014402031C012A022A072A003067
:100406004101C7000130C6004101C201C301080015
:1004160040012D0886002E0887000103031D142ABB
:10042600152A952A2D08263E860000302E3D870087
:10043600160001040319202A212A762A2D08243EB3
:10044600860000302E3D8700403FAF00413FB000A0
:100456003008803AB10080303102031D342A9630CC
:100466002F02031C372A382A632A40012D088600EA
:10047600870145312D08840085010131003FAF0019
:10048600013FB000AF35B00DAF35B00D2F082D07C9
:10049600B10030082E3DB2003108840085010B31D1
:1004A600403F803F413F813FE830AF000330B0001E
:1004B6002D088600870149312F08C03F3008C13F0B
:1004C60040012D08263E860000302E3D8700003074
:1004D600C03FC13F2D08243E860000302E3D8700D8
:1004E6000030C03FC13F2D08323E860000302E3D11
:1004F6008700160001040319812A822A272B2D085A
:10050600263E860000302E3D87000030C03FC13FAA
:100516002D08243E860000302E3D87000030C03F67
:10052600C13F272B2D08263E860000302E3D870032
:10053600160001040319A02AA12A272B2D08243E00
:10054600860000302E3D8700403FAF00413FB0009F
:100556003008803AB10080303102031DB42A96304B
:100566002F02031CB72AB82AE42A40012D08860068
:10057600870145312D08840085010131003FAF0018
:10058600013FB000AF35B00DAF35B00D2F082D07C8
:10059600B10030082E3DB2003108840085010B31D0
:1005A600403F803F413F813FE830AF000330B0001D
:1005B6002D088600870149312F08C03F3008C13F0A
:1005C600152B40012D08860087015B310108031DAC
:1005D600ED2AEE2AF52A2D08860087015B310130C7
:1005E6008100FA2A2D08860087015B3181012D08DA
:1005F600860087015C3181012D08860087015B3109
:100606000108AF00B001AF35B00D2F082D07B100BE
:1006160030082E3DB2003108860087015D3100307A
:10062600C03FC13F2D08263E860000302E3D870084
:100636000030C03FC13F2D08243E860000302E3DCD
:1006460087000030C03FC13F0800400198161530B2
:100656004101DC004B30DB00BE30890B302BDB0B5D
:10066600302BDC0B302B0000400198121817153088
:100676004101DC004B30DB00BE30890B402BDB0B2D
:10068600402BDC0B402B0000400118139817153047
:100696004101DC004B30DB00BE30890B502BDB0BFD
:1006A600502BDC0B502B000040019813D430AD00CA
:1006B6000030AE008431EA24833105304101DC008C
:1006C6000F30DB00F130890B662BDB0B662BDC0B66
:1006D600662B4001991205304101DC000F30DB002A
:1006E600F130890B742BDB0B742BDC0B742B400164
:1006F600991668304101DB00E430890B802BDB0B57
:10070600802B00005D304001BC000030BD00873109
:1007160084278331D4304001BC000030BD008631CF
:100726007226833104308E31622683314101DB002B
:10073600DC0159088600870141315B08C03F5C082F
:10074600C13F4001C30143088E3162268331410116
:10075600DB00DC01400143084101DD00DE01DD353F
:10076600DE0DDD35DE0D5D085907DF005E085A3DFA
:10077600E0005F08860087014B315B08C03F5C08DC
:10078600C13F400143084101E100E201E135E20DCC
:10079600E135E20D61085907E30062085A3DE400BD
:1007A6006308860087014D315B08C03F5C08C13F86
:1007B60001304001C30704304302031CE32BE42B42
:1007C600A62B080040012F08860087014931160034
:1007D600FF3AB1001600FF3AB1040319F32BF42BCC
:1007E6006E2C2F08860087014931FF308107413181
:1007F600FF30813D7F3116000104031D032C042CBC
:100806006E2C2F0886008701413104308E31622616
:10081600833101060319102C112C1C2C40012F08C2
:100826008600870141310108AD0004308F31A027D1
:10083600833140012F08860087014131403FB100D6
:10084600413FB200B135B20DB135B20D31082F07B7
:10085600B3003208303DB4003308860087014B31BF
:100866002F0884008501013100088E31622683310C
:10087600010603193F2C402C612C40012F088600ED
:1008860087014131403FB100413FB200B135B20D61
:10089600B135B20D31082F07B3003208303DB40030
:1008A6003308860087014B310108AD002F0886000A
:1008B6008701413101088F31A0278331FF30400184
:1008C600B100FF30B2002F08860087014931310898
:1008D600C03F3208C13F080040013F08860087013B
:1008E6004331403F4101D900413FDA0040013F0812
:1008F600860087014131403F4101DB00413FDC007A
:100906005A085C06031D892C59085B0603198C2CB2
:100916008D2CE92C40013F088600870143311600E3
:10092600FF3A4101D9001600FF3AD90403199C2C5D
:100936009D2CC12C40013F088600870145313F08A8
:10094600840085010331003F4101D900013FDA00EF
:10095600D935DA0DD935DA0D590840013F0741017D
:10096600DB005A084001403D4101DC005B08840081
:1009760085010D31403F803F413F813F40013F08A7
:10098600860087014131403FBC00413FBD008E31AA
:100996003D26843140013F088600870141313F08EA
:1009A600840085010331403F803F413F813FE8306D
:1009B6004101D9000330DA0040013F088600870173
:1009C600493141015908C03F5A08C13F0800F72C78
:1009D600181098101B2D181098141B2D1814981405
:1009E6001B2D181498101B2D40012D088600870119
:1009F60044310108AF00B0013008003A0319042D54
:100A0600F42C2F08003A0319EB2C013A0319F42CA5
:100A1600033A0319EE2C013A0319F12CF42C1811A0
:100A26009811322D18119815322D18159811322D4E
:100A36002D088600870143310108AF00B001300858
:100A4600003A0319272D182D2F08013A0319122DE4
:100A5600033A0319182D013A0319152D182D1916E5
:100A6600432D19149910191599155A2D1910991005
:100A7600191199115A2D19149910191599115A2DE0
:100A86002D088600870142310108AF00B001300809
:100A9600003A03194F2D3E2D2F08003A0319392D20
:100AA600013A03193E2D033A0319342D3E2D080051
:100AB60040010E195F2D602DC22D6D2D05304001B0
:100AC600B0000F30AF00F130890B672DAF0B672DEB
:100AD600B00B672D40010E1D712D722D612DB101D8
:100AE600B201400198160B304001B0002630AF002D
:100AF6005D30890B7C2DAF0B7C2DB00B7C2D00322D
:100B0600400198120B304001B0002630AF005D3036
:100B1600890B8B2DAF0B8B2DB00B8B2D003201303B
:100B26004001B1070030B23D3208803AAF00803054
:100B36002F02031DA02D0A303102031CA32DA42D64
:100B4600742D4001AD0100308F31A0278531400161
:100B5600AD0101308F31A02785314001AD01023052
:100B66008F31A02785314001AD0103308F31A02799
:100B760085314001AD0104308F31A0278531080051
:100B8600F501F11FC72DC82DCF2DF009F109F00A87
:100B96000319F10A0130F500F31FD22DD32DDA2DFA
:100BA600F209F309F20A0319F30A0130F506F60110
:100BB600F701700871040319E12DE22D0F2E0130A3
:100BC600F400EC2D0130F035F10D890BE62D0130E6
:100BD600F407F11FEF2DF02DE52D0130F635F70D59
:100BE600890BF12D71087302031DFB2D700872022B
:100BF600031CFE2DFF2D042E7008F2027108F33B34
:100C060076140130F136F00C890B052E0130F40212
:100C1600031D0E2E0F2EF02D75080319132E142EFC
:100C2600192EF609F709F60A0319F70A7708F100EB
:100C36007608F00008008E314F2686310B304101D0
:100C4600E6002630E5005D30890B272EE50B272EC2
:100C5600E60B272E003285315B2586316630400152
:100C6600AD000D30AE008D31862586318B170B1702
:100C76008D3154258631A0304101D9000030DA008B
:100C8600833128238631A0304001BF000030C000E8
:100C960084316F248631A0304001AD000030AE00B3
:100CA6008E31FA268631A0304001AD000030AE000C
:100CB60082310B228631A0304001AF000030B000F7
:100CC6008331E52386310B304101E5006230890B23
:100CD6006A2EE50B6A2E0000462E8031342840012C
:100CE6003C08DC00BA01BA0A00308D31ED258631A8
:100CF60010304001C000862EC017A62E4017A62E23
:100D0600C030C004A62E5C0A860087010108BE001A
:100D1600BF013F08003A0319912EA62E3E08003A5D
:100D26000319A62E013A03197F2E033A0319812EC1
:100D3600013A0319832EA62E4014BF2EC014BF2ECF
:100D46000330C004BF2E5C08860087010108BE0080
:100D5600BF013F08003A0319B12EBF2E3E08003AE4
:100D66000319BF2E013A03199F2E033A0319A12E28
:100D7600013A0319A32EBF2E4008BA0001308D3167
:100D8600ED25863108004001980180309900C03079
:100D96009A009C011030920040309300FF3094007E
:100DA600083096007D018C0196013830A0008D0137
:100DB60097010730A100B5018E019801A201FF300D
:100DC6008F00FF309900FF30A300FF309000FF3006
:100DD6009A00FF30A4000830B8000E307C01C10034
:100DE6000E307B019B0016307C01C70015307B015D
:100DF600A20017307C01C80016307B01A3007D01DC
:100E06009101920193019B019C019D01A501A601FF
:100E1600A701B901BA01BB01080041010F134D0139
:100E26000F1E162F172F1B2F8E3119268731362F9F
:100E36008F1A1E2F1F2F292F111F222F232F292FE5
:100E460005304001D1000130D000362F8F1E2C2FE7
:100E56002D2F362F111F302F312F362F0530400101
:100E6600D1000230D00040015108F100F201F13505
:100E7600F20D7930710784001130723D803885009B
:100E8600013F8A00003F0A0087314001D100080077
:100E96000034FF34FF34FF34FF34FF34FF34FF34B3
:100EA600FF34FF34FF3400340034FF34FF340034A1
:100EB6000034FF34FF3400340034FF34FF34003490
:100EC6000034FF34FF34013400340034003400347D
:100ED600003400340034003400340034003400346C
:100EE600003400340034003400340034003400345C
:100EF6000034003400340034013402340234023445
:100F0600013440013C08FD00C0014008BE00BF019D
:100F1600BE35BF0DA2303E07840010303F3D8038FD
:100F26008500003FC100013FC2004103031D9C2F05
:100F36009D2FAC2F8F30C2053C0886003D088700E8
:100F460001080739BE000430BE35890BA72F3E08BD
:100F5600C2044208BA0041088D31DF2587310130CD
:100F66004001C0070E304002031CBA2FBB2F882F4A
:100F7600080040010E0C0139F2000E080139F30099
:100F86000130F335890BC42F73087204F80070081A
:100F960086007108870070088400710885000008C3
:100FA6000F39F200F301F235F30DF235F30D0B3084
:100FB600F4009130F50072087407F6007308753D69
:100FC600F70078087607840077080318013E850045
:100FD6000008810070088600710887000108303912
:100FE60008004001BB001030B6000030B7003B08D7
:0A0FF600B8008F3122278731080070
:101AA80043019E1708004001440808004001C40192
:101AB800083008008E3175268D31080087311027CF
:101AC8008D31080080315F208D3108000334FF34E8
:101AD800FF34FF34400145354D018C0003300800C8
:101AE8008D31A5258D31F000700808008D31AC25A9
:101AF8008D31F0007008080040012E08FC002D0808
:101B0800FB00080040012E08E2002D08E100080053
:101B18004D01111402304001D10008006400800119
:101B28000131890B932D0034FE0012001E00FE0BBC
:101B3800992D003403144001450D4D018C000430EB
:101B480008004D0111158E3119268D31003008001D
:101B58004D01901290164001C40100300800440164
:101B68008F01910105309300920194010800400112
:101B78002D082E040319C12DC22DC62D2E08FA00DA
:101B88002D08F900080040012D082E040319CD2D59
:101B9800CE2DD22D2E08D7002D08D60008004101E1
:101BA8000C100B1400304001AD000030AE008D3138
:101BB80080258D3108004001BB001030B300003093
:101BC800B4003B08B5003A08B6008E31AF268D3117
:101BD80008004001BB001130B3000030B4003B08DE
:101BE800B5003A08B6008E31AF268D3108004001A5
:101BF800610862040319012E022E072E62088A006A
:101C080061080A008E3141018C12080080304D01B4
:101C18008F0008309000910192014F308D004101F2
:101C2800191799174D01901608004001C40100309A
:101C3800C600FF30C500C701C801CB01CC01D101E6
:101C480041010F138F134D01901310130800F93041
:101C580043019D009C0177309F0003304001E10063
:101C68000030E20041018C129616803043019E003C
:101C7800080003308731F4278E314001BE00F83068
:101C8800BE053C080739BE043E08BA0003308D3152
:101C9800DF258E3108008D31B3258E318631C62679
:101CA8008E318E310A268E318E312B268E318E3131
:101CB80091268E318D31D3258E3108004001AD003B
:101CC800640079019018692E6B2E4001642E10175C
:101CD80040012D0879018C0070308D0010140E0819
:101CE800080006304001D1000330D00041018F13B5
:101CF80040015108F100F201F135F20D7930710718
:101D080084001130723D80388500013F8A00003F11
:101D18000A008E314001D100080048304C01920081
:101D2800903090002630910044308E008F010030B2
:101D38004001AD000030AE008D31BB258E31003042
:101D48004001AD000030AE008D31C7258E31400115
:101D5800D801D90108004001B801B9013508B80017
:101D68003608B9003408AE003308AD003830AF008B
:101D78000230B0000030B1008E31D3268E314001E0
:101D8800B70037080319C92ECA2ED22E8D31572510
:101D98008E31003A031DD12ED22ECA2E08004001E2
:101DA800B2018D3157258E31003A031DDC2EDD2E10
:101DB800F72E01304001C4002E08C6002D08C500CA
:101DC800CF012F08C700C8013108CA003008C90070
:101DD800CB01CC01CD01CE01D0018D318C258E31C6
:101DE80001304001B20040013208080040012D08CE
:101DF800860087014731403FAF00413FB0002D08C2
:101E0800860087014531403FB100413FB2003008AC
:101E18003206031D112F2F0831060319142F152F11
:101E2800212F2D088600870145312D088400850162
:101E38000731403F803F413F813F0800400137085C
:101E4800AE003608AD003830AF000130B0000030C9
:101E5800B1003A30B2000130B3000030B4008F3125
:101E680075278F314001B900390803193C2F3D2FE0
:101E7800482F8D3157258F31003A031D442F452FA8
:101E88003D2F40013A08492F003008004001490819
:101E98004A040319502F512F642F0130C902003012
:101EA800CA3B470886004808870001084D018C0096
:101EB80001304001C7070030C83D0330F000732FE0
:101EC8004F080319682F692F6F2FCF014D01911407
:101ED8000130F000732F8D31A5258F31F000700887
:101EE80008004001B5018D3157258F31003A031D97
:101EF8007E2F7F2F9D2F01304001C4002E08C60081
:101F08002D08C5000130CF002F08C700C8013108CF
:101F1800CA003008C9003208CB00CC013408CE0012
:101F28003308CD00D0018D318C258F31013040012F
:101F3800B5004001350808004001AE00790190184D
:101F4800A62FA72FA22F101740012E0879018C0069
:101F580070308D008F0140012D0879018E004001FD
:101F680003108B1FB82FB92FBA2F03148B137901C5
:101F7800101555309100AA30910090149018C52F73
:101F8800C62FC22F10114001031CCB2FCC2FCD2FF1
:101F98008B1708000430F0004D010F1CD42FD52FEB
:101FA800FD2F40014D084E040319DB2FDC2FEC2FC9
:101FB8004B0886004C0887004D010C088100013051
:101FC8004001CB070030CC3D0130CD020030CE3B84
:101FD8004D084E040319F12FF22FF62F4D019112DF
:101FE8001116FE2F4D019110911611160730F000B1
:101FF800FE2F91157008080091340E340034003417
:102008000034003400340034003400340034003428
:102018000034003400340034003400340034003418
:102028000034003400340034003400340034003408
:1020380000340034003400340034003400340034F8
:102048000034003400340034BB340D34C7340D344C
:10205800003400340034003450346134723469344C
:102068007434793420344534723472346F347234B1
:1020780020346F3472342034423469347034683414
:1020880061347334653420344534723472346F34B7
:102098007234203453347434613474347534733482
:1020A8003A342034253473340D340A34003443343C
:1020B800683461346E346E3465346C34203453348F
:1020C8007434613474347534733420344234753460
:1020D8006634663465347234203449346E3474346A
:1020E8006534723472347534703474343A3420344C
:1020F800253473340D340A34003451342D34733498
:102108007534623463346F34643465342034423453
:1021180075346634663465347234203449346E3428
:1021280074346534723472347534703474343A34B7
:102138002034253473340D340A34003400346334C5
:1021480001345A3402348834033448340434EE34C5
:102158000534B53420347734213400342234003443
:102168002334003424343F342534FF3426340334F4
:10217800283420344E346F346E342D345034433484
:102188004D3420344134753474346F34203444343D
:10219800653474346534633474343A342034253403
:1021A80073340D340A3400345034723465342D34A9
:1021B80065346D347034683461347334693473341D
:1021C80020344434653474346534633474343A34B4
:1021D8002034253473340D340A34003444345434F0
:1021E80053342D34433444342034413475347434F6
:1021F8006F3420344434653474346534633474344F
:102208003A342034253473340D340A34003403341A
:1022180002340134003423340034013400341334DC
:1022280002340034003403340534043400340334F5
:102238000334043410340334053403342034413473
:102248007534643469346F342034423469347434F6
:1022580020344F34753474347034753474343A34EB
:102268002034253473340D340A34003450344C345B
:102278004C3420344C346F3463346B34203453344E
:10228800743461347434753473343A3420342534F6
:1022980073340D340A3400345534733469346E346D
:1022A8006734203469346E347034753474342034AF
:1022B8003A34203452345834253475340D340A34C1
:1022C80000340A340E3400340034D3340E3400346D
:1022D800003475340F34003400340034003457347B
:1022E8000D3400340034003400345A340D349E3434
:1022F8000D346E340D344A340F34CE340F34743404
:102308000D347A340D34A5340D34AC340D345334D3
:1023180061346D3470346C3469346E34673420340D
:10232800723461347434653420343A3420340034DF
:1023380053347434613474347534733420343A3417
:1023480020340D340A34003452346534733465341F
:1023580072347634653464340D340A3400343134DC
:10236800373436342E3434344B3448347A340D34DC
:102378000A340034343434342E3431344B34483451
:102388007A340D340A340034383438342E34323444
:102398004B3448347A340D340A3400344E346F34B4
:1023A80020346334683461346E34673465340034FF
:1023B8004E346F346E3420344134753464346934A7
:1023C8006F3400344E346F342034643465347434DC
:1023D80065346334743400343134393432344B3432
:1023E80048347A340D340A34003455346E346C343D
:1023F8006F3463346B346534643400344E346F3472
:1024080020344534723472346F34723400343934C1
:1024180036344B3448347A340D340A340034343486
:1024280038344B3448347A340D340A340034433465
:10243800683461346E3467346534643400344C3441
:102448006F3463346B346534643400344434653435
:10245800743465346334743400344F344634463449
:0824680000344F344E340034FF
:020000040001F9
:04000E008C3FE73FFD
:04001400FF3FFF3F6C
:10E0000000000000000000000000FF00FF00FF0013
:00000001FF
