:1000000080311428003418347E1480314E01961E3D
:100010000A280B2812288C1E0E280F2812288C3133
:10002000442480317E10090080311628803102205E
:100030008031E200803103208031E300CC30840045
:100040008F308500A03086000030870034308C313E
:100050006824803143308400003085001D308C31AD
:10006000622480317E1040018631BD2EC1308F3137
:10007000982780314001A500250803194028412810
:10008000492941013C08400125060319482849280F
:10009000512841013B35BD3E860087010030C03FFD
:1000A000C13F400125084101BC0010304001250638
:1000B000031D5B285C28672841013B35BD3E860057
:1000C00087010130810741310318810A78282030E7
:1000D0002506031D6C286D28782841013B35BD3E5F
:1000E00086008701FF3081074131FF30813D7F313C
:1000F00041013B08031D7D287E28DE28260840019B
:10010000A200410125084001A10041013B35BD3E4F
:1001100086008701403FF900413FFA007A08803AA3
:10012000FB0080307B02031D972801307902031CFD
:100130009A289B28A928FF304001A107FF30A23D43
:1001400041013B35BD3E860087010030C03FC13FC5
:10015000B92841013B35BD3E860087014131811FF1
:10016000B228B328B92801304001A1070030A23DD0
:10017000A02840012208803AF90080307902031D4E
:10018000C32840302102031CC628C728CD280030D0
:100190004101A6003F30A50049294001A21FD128F6
:1001A000D228D6284101A501A601492922084101EA
:1001B000A600400121084101A5004929220840016B
:1001C000A400410121084001A30041013B35BD3E8F
:1001D00086008701403FF900413FFA007A08803AE3
:1001E000FB0080307B02031DF72803307902031CDB
:1001F000FA28FB28092901304001A3070030A43D5B
:1002000041013B35BD3E860087010030C03FC13F04
:10021000252941013B35BD3E86008701403FF9005D
:10022000413FFA007A08803AFB007F307B02031DD1
:100230001B29FE30790203181E291F292529FF30AA
:100240004001A307FF30A43D002940012408803A63
:10025000F90080307902031D2F2904302302031C8A
:100260003229332937294101A101A201492940013D
:10027000A41F3B293C29422900304101A200033040
:10028000A100492924084101A2004001230841019D
:10029000A10041014603470403194F29502986292B
:1002A000003040010E1A0130A0002008031D59291A
:1002B0005A2970291430F0000030F100013041015A
:1002C000C2070030C33D4308F3004208F200853105
:1002D000AF25803171084101C5007008C40086292E
:1002E00041014508803AF90080307902031D7A29DE
:1002F00001304402031C7D297E29832900304101FD
:10030000C7000130C6004101C201C301080040011D
:10031000A9002908860087010103031D902991295E
:10032000FE292908263E86008701160001040319CC
:100330009A299B29E5292908243E86008701403F08
:10034000A600413FA7002708803AA8008030280275
:10035000031DAC2996302602031CAF29B029D629EB
:1003600040012908053E86008701290A840085018D
:100370000008A6000130A635FF3E031DBB29263527
:100380002907A70027080B3E84008501403F803FD6
:10039000413F813FE830A6000330A7002908093E0D
:1003A000860087012608C03F2708C13F4001290871
:1003B000263E860087010030C03FC13F2908243E09
:1003C000860087010030C03FC13F2908323E8600C9
:1003D0008701160001040319EE29EF297B2A290859
:1003E000263E860087010030C03FC13F2908243ED9
:1003F000860087010030C03FC13F7B2A2908263E86
:1004000086008701160001040319072A082A7B2A9F
:100410002908243E86008701403FA600413FA700EF
:100420002708803AA80080302802031D192A963038
:100430002602031C1C2A1D2A442A40012908053EC5
:1004400086008701290A840085010008A600013082
:10045000A635FF3E031D282A26352907A7002708B1
:100460000B3E84008501403F803F413F813FE830A3
:10047000A6000330A7002908093E86008701260848
:10048000C03F2708C13F6D2A400129081B3E860056
:1004900087010108031D4D2A4E2A552A29081B3EB3
:1004A00086008701013081005A2A29081B3E8600F8
:1004B0008701810129081C3E8600870181012908E6
:1004C0001B3E8600870101352907A60026081D3E30
:1004D000860087010030C03FC13F2908263E8600C4
:1004E00087010030C03FC13F2908243E86008701B4
:1004F0000030C03FC13F08004001B900B7017F3064
:100500008C31BD24823108304001B7000D308C3170
:10051000BD2482314001B7010E308C31BD248231BF
:1005200022304001B7000F308C31BD2482314001B0
:10053000B70110308C31BD2482314001B701113038
:100540008C31BD24823106304001B7001B308C3124
:10055000BD24823107304001B7001C308C31BD24EE
:10056000823105304001B7001D308C31BD2482310D
:100570000D304001B7001E308C31BD248231023075
:100580004001B7002D308C31BD2482312030400134
:10059000B7002E308C31BD2482314001390A8600EB
:1005A000870118300106031DD62AD72ADD2AB70194
:1005B0002F308C31BD248231E32A4030B7002F30F8
:1005C0008C31BD2482314001B70130308C31BD24E3
:1005D00082314001B70131308C31BD2482311C3071
:1005E0004001B70007308C31BD2482314001B70192
:1005F00008308C31BD2482314001B70109308C3183
:10060000BD24823108304001B70008308C31BD2450
:10061000823102304001B7007F308C31BD248231FD
:1006200080304001B70000308C31BD2482318030F1
:100630004001B70001308C31BD24823118304001B7
:10064000B70008308C31BD24823118304001B7002A
:1006500009308C31BD2482314001B7017F308C31AB
:10066000BD2482314001B70108308C31BD24823174
:100670003F304001B70001308C31BD248231393028
:100680004001B70003308C31BD2482314001B701F5
:1006900004308C31BD2482314001B701B70A0530E6
:1006A0008C31BD2482314001B70106308C31BD242C
:1006B000823108004001BD003A080319602B612B0C
:1006C000662B3A03031D652B662B172C0430390269
:1006D000031C6B2B6C2B6D2B172CB7017F308C31CF
:1006E000BD24833140013A08031D772B782B022C5F
:1006F0003D08860087010108031D7F2B802BBD2B41
:100700001C30B70007308C31BD24833108304001E4
:10071000B70008308C31BD24833102304001B7006E
:100720007F308C31BD24833180304001B7000030F0
:100730008C31BD24833180304001B70001308C31D1
:10074000BD24833118304001B70008308C31BD24FE
:10075000833118304001B70009308C31BD2483311A
:100760004001B7017F308C31BD2483314001B70196
:1007700008308C31BD248331172C3D088600870159
:100780000103031DC42BC52B172C3C30B7000730C9
:100790008C31BD24833108304001B70008308C31E2
:1007A000BD24833102304001B7007F308C31BD243D
:1007B000833180304001B70000308C31BD2483315B
:1007C00080304001B70001308C31BD2483310830C6
:1007D0004001B70008308C31BD248331083040011E
:1007E000B70009308C31BD2483314001B7017F301F
:1007F0008C31BD2483314001B70108308C31BD24D8
:100800008331172C3A03031D062C072C172C3908AB
:10081000BB000530BB35FF3E031D0A2C3B3530388D
:10082000BC003C08B70008308C31BD24833108007F
:100830004001B900390803191E2C1F2C252C39033F
:100840000319232C242C252CBB2CB7017F308C3191
:10085000BD24843140013908031D2F2C302C732C0A
:100860001C30B70007308C31BD2484310830400182
:10087000B70008308C31BD24843102304001B7000C
:100880007F308C31BD24843180304001B70000308E
:100890008C31BD24843180304001B70001308C316F
:1008A000BD24843118304001B70008308C31BD249C
:1008B000843118304001B70009308C31BD248431B7
:1008C0004001B7017F308C31BD2484314001B70134
:1008D00008308C31BD2484314001B70104308C31A3
:1008E000BD248431BB2C3903031D772C782CBB2C01
:1008F0003C30B70007308C31BD24843108304001D2
:10090000B70008308C31BD24843102304001B7007B
:100910007F308C31BD24843180304001B7000030FD
:100920008C31BD24843180304001B70001308C31DE
:10093000BD24843108304001B70008308C31BD241B
:10094000843108304001B70009308C31BD24843136
:100950004001B7017F308C31BD2484314001B701A3
:1009600008308C31BD2484314001B701B70A04300E
:100970008C31BD24843108004001AA002A08093EB8
:10098000860087011600FF3AA8001600FF3AA80467
:100990000319CB2CCC2C372D2A08093E8600870161
:1009A000FF3081074131FF30813D7F311600010466
:1009B000031DDB2CDC2C372D2A0A8600870104302E
:1009C0008D311525843101060319E72CE82CF22C12
:1009D00040012A0886008701413FA60004308E317D
:1009E000DE26843140012A0A860087010108A8001A
:1009F0000130A835FF3E031DF92C28352A07A90030
:100A000029080B3E860087012A0A84008501000818
:100A10008D3115258431010603190F2D102D2A2D36
:100A200040012A0A860087010108A8000130A83584
:100A3000FF3E031D172D28352A07A9002908860027
:100A400087014B3FA6002A0A8600870101088E31E4
:100A5000DE268431FF304001A800FF30A9002A08BB
:100A6000093E860087012808C03F2908C13F0800C9
:100A70004001C000941414149A109A1005304001DB
:100A8000BB000F30BA00F130890B442DBA0B442D56
:100A9000BB0B442D40019A1105304001BB000F30C3
:100AA000BA00F130890B522DBA0B522DBB0B522DCF
:100AB00040019A1568304001BA00E430890B5E2D80
:100AC000BA0B5E2D0000623082317C2285318C3180
:100AD0008524853104308D31152585314001BA00DA
:100AE000BB01400A860087013A08C03F3B08C13F6E
:100AF000C10141088D31152585314001BA00BB0186
:100B00004108BC000130BC35FF3E031D832D3C3540
:100B10004007BD003D080B3E860087013A08C03FF4
:100B20003B08C13F4108BE000130BE35FF3E031DFA
:100B3000952D3E354007BF003F080D3E86008701DA
:100B40003A08C03F3B08C13F0130BA003A08C1072C
:100B500004304102031CAD2DAE2D792D0800F601A5
:100B6000F11FB32DB42DBB2DF009F109F00A0319C3
:100B7000F10AF601F60AF31FBE2DBF2DC82DF209AA
:100B8000F309F20A0319F30A0130F4007408F606B7
:100B9000F701F801700871040319CF2DD02DFF2D36
:100BA000F501F50ADC2D0130F035F10D890BD42D5E
:100BB0000130F4007408F507F11FDF2DE02DD32D6F
:100BC0000130F735F80D890BE12D71087302031D13
:100BD000EB2D70087202031CEE2DEF2DF42D700822
:100BE000F2027108F33B77140130F136F00C890BF7
:100BF000F52D0130F502031DFE2DFF2DE02D7608A9
:100C00000319032E042E092EF709F809F70A031910
:100C1000F80A7808F1007708F00008004001AA00FF
:100C20002A08033E86008701403FA600413FA700F7
:100C30002A0A86008701403FA800413FA9002708F3
:100C40002906031D252E260828060319282E292EDD
:100C5000682E2A08033E860087011600FF3AA60088
:100C60001600FF3AA6040319362E372E512E2A08F5
:100C7000053E860087012A08033E8400850100089E
:100C8000A6000130A635FF3E031D422E26352A0759
:100C9000A70027080D3E84008501403F803F413F6B
:100CA000813F2A0A860087012A08033E84008501C5
:100CB000403F803F413F813FE830A6000330A7001E
:100CC0002A08093E860087012608C03F2708C13F41
:100CD00008008C3156248631003A0319702E712E8B
:100CE000A02E7E2E8C3117248631BC2E8C311C24F4
:100CF0008631BC2E8C3126248631BC2E4001520810
:100D0000AD000630433E86008701413F8A00403FE8
:100D10000A0086314001AE00AF012F08003A0319E6
:100D2000922E7A2E2E08013A03197A2E033A0319CD
:100D3000722E013A0319762E073A03197A2E7A2E6B
:100D400040015F101730433E86008701403F84001A
:100D50008501810A00088C31502486310130400120
:100D6000DB020030DC3B5B085C04031DB82EB92EAF
:100D7000BB2E0630BC2E033008008731EF278631AA
:100D8000A03085313825863175304001A6000C3001
:100D9000A7008C314A2486318B170B1740011410A1
:100DA00094106208843118248631410121084001E1
:100DB000B900BA01623083315A23863100308E3156
:100DC000B42686314001BE014101210887314927FF
:100DD0008631A03086310E268631A0308F313A27F9
:100DE0008631A030813187218631A0308431BC2406
:100DF00086310B304001C2006230890BFD2EC20BE0
:100E0000FD2E0000E92E8031142840015A0886008A
:100E100087018C3104248731810001304001AE000C
:100E20002E08DA070130DB020030DC3B5B085C0493
:100E300003191B2F1C2F212F8C310E2487310530D5
:100E4000482FDF152B2F8C3135248731482F8C31DB
:100E500030248731482F4F08AD0044088A004308EA
:100E60000A0087314001AE00AF012F08003A031994
:100E70003A2F272F2E08013A0319272F033A031977
:100E8000232F013A0319232F073A0319272F272F5E
:100E900008004001C000043040020318502F512FB9
:100EA000822F3E080319552F562F5C2F3E0303193E
:100EB0005A2F5B2F5C2F822FB7017F308C31BD24DE
:100EC0008731400140080838BF003F08B7000D30A7
:100ED0008C31BD24873118304001B7000E308C3181
:100EE000BD24873102304001B7002D308C31BD2444
:100EF000873140014008B9003E08BA0062308331B2
:100F00005A23873108004001A600A701A70A5F19EC
:100F10008A2F8B2FB82F2608D900DF105F155F109E
:100F20000E30DD00F430D7000130D800DF15EB3093
:100F3000C3000B30C400CF01EB30C5000B30C6003E
:100F4000D001EB30C7000B30C800D101EB30C90035
:100F50000B30CA00D201ED30CB000B30CC00D301F6
:100F60008B31EF2387318C31FA2487314001A7017F
:100F7000270808004001B600400136088731832762
:100F80008731003A0319C52FC62FBC2FAD30400161
:100F9000AA000D30AB003530AC008C31C82487314D
:100FA00001304001A6000030A70034308D31072504
:100FB000873100304001AA00AB000030AC00AD002A
:100FC0008C31D42487318C313F2487318D31D52524
:100FD0008731013A0319ED2FEE2FE62F08008C31EF
:100FE000A82487318C318D2487318F316827873150
:100FF0008C31962487318D31C02587310800080057
:1017D60001300800053008004E010F1008004301D3
:1017E600901208004E011910080043011114080058
:1017F6004301911408004301111508004301911596
:10180600080043010C0808004E010F1408004301AC
:101816009116111608004301911211160800400195
:10182600DF10DE010E3008008B31FB238C310130D6
:1018360008008B31FB238C31023008008B31FB23EF
:101846008C31013008008B31FE238C3100300800CA
:101856008C310E248C31053008008C310A248C31F1
:101866000A3008008C310A248C3109300800400106
:10187600DF10DE010E30080000308E3121268C315B
:1018860008004E018C128C31E0248C310800400196
:101896002708E1002608E00008004001A600260807
:1018A60043018C0008004301110E890C890C013993
:1018B60008004E010F1C602C612C5C2C0800640093
:1018C60080010131890B632C0034FE0012001E00DA
:1018D600FE0B692C003440015F108C3101248C31E1
:1018E6000430080040011414803136208C31400148
:1018F6001410080040015F1459358C3150248C3186
:101906000330080002304001B70013308C31B22496
:101916008C31080043018F010830900091014F304F
:101926008D0090120800603051018D008F019101E9
:10193600063093009201080040015F140314590D0C
:101946008C3150248C31053008004F0196019701E7
:10195600980199019A019B019C019D010800400193
:10196600B8003808B4003708B5004C308731BA27BC
:101976008C3108004001B8003808B4003708B500BB
:1019860070308731BA278C31080040012B08A70038
:101996002A08A6002C08A80000308E313E268C317D
:1019A600080040012B08A7002A08A6002C08A8005A
:1019B60002308E313E268C310800400160086104F9
:1019C6000319E62CE72CEC2C61088A0060080A0053
:1019D6008C310800F42C8C315C248C318E316326DA
:1019E6008C314001DF18F82CF92CEE2C080043014D
:1019F600901AFE2CFF2C062D8F01083090009101C5
:101A06004F308D00901608004001A800DF1D0C2DF8
:101A16000D2D142D2808DA002708DC002608DB0027
:101A2600DF1108004001A600640050019E181C2D1D
:101A36001E2D4001172D1E174001260850019A0041
:101A460070309B001E141C08080002304001A600DE
:101A56000030A7002D088D3107258D31003040015B
:101A6600AA00AB00AC018C31C8248D3104300800CB
:101A760001304001A6000030A7002D088D31072552
:101A86008D3100304001AA00AB00AC018C31C82476
:101A96008D310430080001304001A6000030A70057
:101AA6002D088D3107258D3100304001AA00AB008D
:101AB600AC018C31C8248D3102300800023040015F
:101AC600A6000030A7002D088D3107258D31003086
:101AD6004001AA00AB00AC018C31C8248D31023024
:101AE600080002304001A6000030A7002D088D3105
:101AF60007258D3100304001AA00AB00AC018C31C6
:101B0600C8248D310430080001304001A6000030A1
:101B1600A7002D088D3107258D3100304001AA0020
:101B2600AB00AC018C31C8248D3102300800023084
:101B36004001A6000030A7002D088D3107258D3104
:101B460000304001AA00AB00AC018C31C8248D31B5
:101B56000230080001304001A6000030A7002D0821
:101B66008D3107258D3100304001AA00AB00AC0154
:101B76008C31C8248D310430080067304B019F003A
:101B8600F9309D009C014E018C129616FF304001E3
:101B9600A6000730A7008C314A248D3180304B01D6
:101BA6009E0008004001A601A60ADF18DB2DDC2DE9
:101BB600EB2D5F11FF30D9008B31EF238D318B3147
:101BC600F5238D318B31F2238D3140015E08A6005D
:101BD6002608080040012D0886008701403FA60020
:101BE600413FA7002D08023E8600870101088D317E
:101BF60007258D3100304001AA00AB00AC018C31C5
:101C0600C8248D310230080040012D088600870166
:101C1600403FA600413FA7002D08023E86008701EF
:101C260001088D3107258E3100304001AA00AB0036
:101C3600AC018C31C8248E31023008004001B2005C
:101C4600B301B30ADF18282E292E3B2EDF14B30169
:101C5600320803192F2E302E332EDD01DD0A352EE4
:101C66000230DD008B31F8238E318C31ED248E313C
:101C76004001330808004001A9002608270403197B
:101C8600452E462E552E2935433E860087012608C9
:101C9600C03F2708C13F29084F3E86008701280814
:101CA6008100622E2935433E86008701EB30C03F16
:101CB6000B30C13F29084F3E86008701810108008D
:101CC6008B31EF238E3140015F1C6A2E6B2E762EF0
:101CD6008C3156248E31003A0319722E732E762ECD
:101CE6000F304001DD0040015D08B000B101B035A4
:101CF600B10D0030300784001030313D803885004A
:101D0600013F8A00003F0A008E314001DD000800D5
:101D160040015F100230DE00982E8C3121248E3176
:101D2600B32E8C3126248E31B32E5108AD000430EB
:101D3600433E86008701413F8A00403F0A008E31BC
:101D46004001AE00AF012F08003A0319AB2E942EC6
:101D56002E08023A0319902E013A0319902E942E5A
:101D660008004001B90039080319BA2EBB2EC12E4E
:101D760039030319BF2EC02EC12EDD2EB7017F30C9
:101D86008C31BD248E3140013908031DCB2ECC2E5B
:101D9600D32E2030B7002E308C31BD248E31DD2E6F
:101DA6003903031DD72ED82EDD2EB7012E308C31E8
:101DB600BD248E3108004001A70050019E18E42E74
:101DC600E52EE02E1E174001270850019A007030BC
:101DD6009B009D014001260850019C004001031014
:101DE6008B1FF62EF72EF82E03148B1350011E159B
:101DF60055309F00AA309F009E149E18032F042F73
:101E0600002F1E114001031C092F0A2F0B2F8B17C1
:101E160008004001DF151C2F8C3121248F31392F0A
:101E26008C3107248F310330392F8C3126248F31A2
:101E3600392F4F08AD0044088A0043080A008F3145
:101E46004001AE00AF012F08003A03192B2F182FBF
:101E56002E08013A0319182F033A03190F2F013AD6
:101E660003190F2F073A0319132F182F08004001E3
:101E7600AA002A08073E86008701403FA600413F88
:101E8600A7002A08053E86008701403FA800413F7B
:101E9600A90027082906031D522F2608280603191C
:101EA600552F562F672F2A08053E86008701010801
:101EB6002A08053E860087012A08073E8400850118
:101EC600403F803F413F813F080040019801990112
:101ED6009A013F309200F0309300F43094002430A1
:101EE6007E01CE00A030C3003330B800C4010430F8
:101EF600B900CF01BA01C501D0013730BB00F030BF
:101F0600C600FF30D1003F30BC00F030C700FF30C4
:101F1600D2000E307D01C50013307E019E001430C4
:101F26009C000C307D01C6000800F70040010E0D34
:101F36000E0D0139F0000E0E890C890C01390907C6
:101F46007004F6007708860087017708840085010B
:101F560000080F39F000F101F035F10DF035F10D03
:101F66002030F2009030F30070087207F400710818
:101F7600733DF50076087407840075080318750A22
:101F8600850000088100770886008701010830393E
:101F960008000034FF34FF34FF34FF34FF34FF34CD
:101FA600FF34FF34FF34FF343F340034FF34FF3452
:101FB6003F340034FF34FF343F340034FF34FF3401
:101FC6003F340034FF34FF3400340034003400342E
:101FD600003400340034003400340034003400345B
:101FE600003400340034003400340034003400344B
:101FF6000034003400340034003412340C349F347E
:102006000C347D340C3469340634053407346E34AC
:102016000C340C340F3417340C341C340C34213487
:102026000C3426340C342B340C3430340C34353424
:102036000C343A340C348B340E3403340234013409
:1020460000342334003401340034133402340034B1
:1020560000340334053404340034033403340434C4
:0A2066001034033405340334203431
:020000040001F9
:0A000E00EC3FFF3F9F3FFF3FFF3F25
:10E000003F003F003F003F000000FF00FF00FF0017
:00000001FF
