:04000000803114280F
:100008007E1480314E01961E0A280B2812288C1E59
:100018000E280F2812288031E12080317E10090037
:100028008031162820308400003085001D30803152
:10003800D52080317E1040018031DB2840019801B5
:1000480099019A013F309200F0309300FF309400FC
:100058002F307E01CE00A030C3003730B800C40175
:10006800B901CF01BA01C501D0013730BB00F0306A
:10007800C600FF30D1003F30BC00F030C700FF3071
:10008800D2000E307D01C50013307E019E00143071
:100098009C000C307D01C600080000340034003498
:1000A80000340034003400340034003400340034A8
:1000B8000034003400340034003400340034003498
:1000C8000034003400340034003400340034003488
:1000D8000034003400340034003403340234013472
:1000E800003423340034013400341334023400342F
:1000F8000034033405340434003403340334043442
:100108001034033405340334203467304B019F0026
:10011800F9309D009C014E018C129616EC30F200CD
:100128000030F3008031E720803180304B019E00A1
:1001380008008031B92080318031CC208031803175
:10014800222080318031C320803180318920803164
:100158000800700871040319B228B328B828710878
:100168008A0070080A00803108004F019601970143
:10017800980199019A019B019C019D01080060303A
:1001880051018D008F019101063093009201080002
:1001980043018F010830900091014F308D0090127B
:1001A8000800640080010131890BD62800348031B1
:1001B8009D208031DE28803114284E018C12803138
:1001C800AD20803108007308F1007208F0000800C3
:0201D80008001D
:020000040001F9
:0A000E00EC3FFF3F9F3FFF3FFF3F25
:00000001FF
