:04000000803114280F
:100008007E1480314E01961E0A280B2812288C1E59
:100018000E280F2812288031C92080317E1009004F
:100028008031162820308400003085001D30803152
:10003800BD2080317E1040018031C32840019801E5
:1000480099019A013F309200F0309300FF309400FC
:10005800FF307E01CE00A030C3003730B800C401A5
:10006800B901CF01BA01C501D0013730BB00F0306A
:10007800C600FF30D1003F30BC00F030C700FF3071
:10008800D2000E307D01C50013307E019E00143071
:100098009C000C307D01C600080000340034003498
:1000A80000340034003400340034003400340034A8
:1000B8000034003400340034003400340034003498
:1000C8000034003400340034003400340034003488
:1000D8000034003400340034003467304B019F0092
:1000E800F9309D009C014E018C129616D430F20016
:1000F8000030F3008031CF20803180304B019E00EA
:1001080008008031A12080318031B42080318031D5
:10011800222080318031AB208031803171208031C4
:1001280008007008710403199A289B28A0287108F0
:100138008A0070080A00803108004F019601970173
:10014800980199019A019B019C019D01080060306A
:1001580051018D008F019101063093009201080032
:1001680043018F010830900091014F308D009012AB
:100178000800640080010131890BBE2800348031F9
:1001880085208031C628803114284E018C12803198
:100198009520803108007308F1007208F00008000B
:0201A80008004D
:020000040001F9
:0A000E00EC3FFF3F9F3FFF3FFF3F25
:00000001FF
